{
	"data": {
		"bytecode": {
			"linkReferences": {},
			"object": "6080604052612710600760006101000a81548161ffff021916908361ffff1602179055506000600760026101000a81548161ffff021916908361ffff16021790555060326008556801158e460913d000006009556001600a60006101000a81548160ff021916908360ff1602179055506361adc300600b556040518060a00160405280606881526020016200633560689139600c9080519060200190620000a89291906200027f565b506000600d60006101000a81548160ff0219169083151502179055506001600d60016101000a81548160ff021916908315150217905550348015620000ec57600080fd5b506040518060400160405280601181526020017f4b4f4d5072697661746553616c654e46540000000000000000000000000000008152506040518060400160405280600881526020017f4b4f4d50534e4654000000000000000000000000000000000000000000000000815250620001796200016d620001b360201b60201c565b620001bb60201b60201c565b8160019080519060200190620001919291906200027f565b508060029080519060200190620001aa9291906200027f565b50505062000394565b600033905090565b60008060009054906101000a900473ffffffffffffffffffffffffffffffffffffffff169050816000806101000a81548173ffffffffffffffffffffffffffffffffffffffff021916908373ffffffffffffffffffffffffffffffffffffffff1602179055508173ffffffffffffffffffffffffffffffffffffffff168173ffffffffffffffffffffffffffffffffffffffff167f8be0079c531659141344cd1fd0a4f28419497f9722a3daafe3b4186f6b6457e060405160405180910390a35050565b8280546200028d906200032f565b90600052602060002090601f016020900481019282620002b15760008555620002fd565b82601f10620002cc57805160ff1916838001178555620002fd565b82800160010185558215620002fd579182015b82811115620002fc578251825591602001919060010190620002df565b5b5090506200030c919062000310565b5090565b5b808211156200032b57600081600090555060010162000311565b5090565b600060028204905060018216806200034857607f821691505b602082108114156200035f576200035e62000365565b5b50919050565b7f4e487b7100000000000000000000000000000000000000000000000000000000600052602260045260246000fd5b615f9180620003a46000396000f3fe608060405234801561001057600080fd5b506004361061027f5760003560e01c8063715018a61161015c578063d31dd6b0116100ce578063eabdd57211610087578063eabdd5721461077e578063ed7003741461079a578063f0d25336146107b8578063f2fde38b146107e8578063f4b9fa7514610804578063f516a2e6146108225761027f565b8063d31dd6b0146106be578063d547cfb7146106da578063e35568cb146106f8578063e7cd4a0414610716578063e7d6ea4d14610732578063e985e9c51461074e5761027f565b8063a2ce325a11610120578063a2ce325a14610612578063b4b2b18b14610630578063b88d4fde1461063a578063bf5c86e714610656578063c849488814610672578063c87b56dd1461068e5761027f565b8063715018a6146105925780637e1c0c091461059c5780638da5cb5b146105ba57806395d89b41146105d8578063a22cb465146105f65761027f565b806330176e13116101f55780634a73d757116101b95780634a73d757146104865780634f6ccce7146104a25780635ab1a8fa146104d25780636352211e14610502578063706d42c91461053257806370a08231146105625761027f565b806330176e13146103fa57806336710735146104165780633c440c0b1461043257806342842e0e1461044e578063493143e41461046a5761027f565b806318160ddd1161024757806318160ddd1461033a57806319709a9d146103585780632042e5c21461037457806323b872dd1461039057806324b04905146103ac57806325187924146103ca5761027f565b806301ffc9a71461028457806306fdde03146102b4578063081812fc146102d2578063095ea7b31461030257806310430a421461031e575b600080fd5b61029e600480360381019061029991906141c0565b610840565b6040516102ab9190614b36565b60405180910390f35b6102bc610922565b6040516102c99190614b87565b60405180910390f35b6102ec60048036038101906102e79190614390565b6109b4565b6040516102f99190614a6f565b60405180910390f35b61031c600480360381019061031791906140dd565b610a39565b005b610338600480360381019061033391906143bd565b610b51565b005b610342610c31565b60405161034f9190614fc9565b60405180910390f35b610372600480360381019061036d9190613f5a565b610c45565b005b61038e60048036038101906103899190613f5a565b610d05565b005b6103aa60048036038101906103a59190613fc7565b610ddc565b005b6103b4610e3c565b6040516103c19190614b6c565b60405180910390f35b6103e460048036038101906103df9190613f5a565b610e62565b6040516103f19190614fc9565b60405180910390f35b610414600480360381019061040f9190614247565b610e83565b005b610430600480360381019061042b9190614166565b610f6f565b005b61044c60048036038101906104479190614390565b611008565b005b61046860048036038101906104639190613fc7565b61108e565b005b610484600480360381019061047f9190614390565b6110ae565b005b6104a0600480360381019061049b919061421a565b611134565b005b6104bc60048036038101906104b79190614390565b6111f4565b6040516104c99190614fe4565b60405180910390f35b6104ec60048036038101906104e79190613f5a565b611246565b6040516104f99190614b36565b60405180910390f35b61051c60048036038101906105179190614390565b61129c565b6040516105299190614a6f565b60405180910390f35b61054c60048036038101906105479190614310565b61134e565b6040516105599190614fc9565b60405180910390f35b61057c60048036038101906105779190613f5a565b6113a7565b6040516105899190614fe4565b60405180910390f35b61059a61145f565b005b6105a46114e7565b6040516105b19190614fc9565b60405180910390f35b6105c26114fb565b6040516105cf9190614a6f565b60405180910390f35b6105e0611524565b6040516105ed9190614b87565b60405180910390f35b610610600480360381019061060b919061409d565b6115b6565b005b61061a611737565b6040516106279190614fe4565b60405180910390f35b61063861173d565b005b610654600480360381019061064f919061401a565b6117d6565b005b610670600480360381019061066b91906142bd565b611838565b005b61068c60048036038101906106879190614290565b6121db565b005b6106a860048036038101906106a39190614390565b612265565b6040516106b59190614b87565b60405180910390f35b6106d860048036038101906106d39190614290565b61230c565b005b6106e26123fe565b6040516106ef9190614b87565b60405180910390f35b610700612490565b60405161070d9190614fc9565b60405180910390f35b610730600480360381019061072b9190613f5a565b6124c3565b005b61074c60048036038101906107479190614350565b61259a565b005b61076860048036038101906107639190613f87565b612b44565b6040516107759190614b36565b60405180910390f35b610798600480360381019061079391906140dd565b612bd8565b005b6107a2612d08565b6040516107af9190614fff565b60405180910390f35b6107d260048036038101906107cd9190613f87565b612d1b565b6040516107df9190614fff565b60405180910390f35b61080260048036038101906107fd9190613f5a565b612d4a565b005b61080c612e42565b6040516108199190614b51565b60405180910390f35b61082a612e68565b6040516108379190614fe4565b60405180910390f35b60007f80ac58cd000000000000000000000000000000000000000000000000000000007bffffffffffffffffffffffffffffffffffffffffffffffffffffffff1916827bffffffffffffffffffffffffffffffffffffffffffffffffffffffff1916148061090b57507f5b5e139f000000000000000000000000000000000000000000000000000000007bffffffffffffffffffffffffffffffffffffffffffffffffffffffff1916827bffffffffffffffffffffffffffffffffffffffffffffffffffffffff1916145b8061091b575061091a82612e6e565b5b9050919050565b60606001805461093190615401565b80601f016020809104026020016040519081016040528092919081815260200182805461095d90615401565b80156109aa5780601f1061097f576101008083540402835291602001916109aa565b820191906000526020600020905b81548152906001019060200180831161098d57829003601f168201915b5050505050905090565b60006109bf82612ed8565b6109fe576040517f08c379a00000000000000000000000000000000000000000000000000000000081526004016109f590614e49565b60405180910390fd5b6005600083815260200190815260200160002060009054906101000a900473ffffffffffffffffffffffffffffffffffffffff169050919050565b6000610a448261129c565b90508073ffffffffffffffffffffffffffffffffffffffff168373ffffffffffffffffffffffffffffffffffffffff161415610ab5576040517f08c379a0000000000000000000000000000000000000000000000000000000008152600401610aac90614ee9565b60405180910390fd5b8073ffffffffffffffffffffffffffffffffffffffff16610ad4612f44565b73ffffffffffffffffffffffffffffffffffffffff161480610b035750610b0281610afd612f44565b612b44565b5b610b42576040517f08c379a0000000000000000000000000000000000000000000000000000000008152600401610b3990614d29565b60405180910390fd5b610b4c8383612f4c565b505050565b610b59612f44565b73ffffffffffffffffffffffffffffffffffffffff16610b776114fb565b73ffffffffffffffffffffffffffffffffffffffff1614610bcd576040517f08c379a0000000000000000000000000000000000000000000000000000000008152600401610bc490614e69565b60405180910390fd5b60008160ff1611610c13576040517f08c379a0000000000000000000000000000000000000000000000000000000008152600401610c0a90614ba9565b60405180910390fd5b80600a60006101000a81548160ff021916908360ff16021790555050565b600760029054906101000a900461ffff1681565b610c4d612f44565b73ffffffffffffffffffffffffffffffffffffffff16610c6b6114fb565b73ffffffffffffffffffffffffffffffffffffffff1614610cc1576040517f08c379a0000000000000000000000000000000000000000000000000000000008152600401610cb890614e69565b60405180910390fd5b80601260006101000a81548173ffffffffffffffffffffffffffffffffffffffff021916908373ffffffffffffffffffffffffffffffffffffffff16021790555050565b610d0d612f44565b73ffffffffffffffffffffffffffffffffffffffff16610d2b6114fb565b73ffffffffffffffffffffffffffffffffffffffff1614610d81576040517f08c379a0000000000000000000000000000000000000000000000000000000008152600401610d7890614e69565b60405180910390fd5b6000601160008373ffffffffffffffffffffffffffffffffffffffff1673ffffffffffffffffffffffffffffffffffffffff16815260200190815260200160002060006101000a81548160ff02191690831515021790555050565b610ded610de7612f44565b82613005565b610e2c576040517f08c379a0000000000000000000000000000000000000000000000000000000008152600401610e2390614f29565b60405180910390fd5b610e378383836130e3565b505050565b601360009054906101000a900473ffffffffffffffffffffffffffffffffffffffff1681565b600e6020528060005260406000206000915054906101000a900461ffff1681565b610e8b612f44565b73ffffffffffffffffffffffffffffffffffffffff16610ea96114fb565b73ffffffffffffffffffffffffffffffffffffffff1614610eff576040517f08c379a0000000000000000000000000000000000000000000000000000000008152600401610ef690614e69565b60405180910390fd5b60001515600d60009054906101000a900460ff16151514610f55576040517f08c379a0000000000000000000000000000000000000000000000000000000008152600401610f4c90614ce9565b60405180910390fd5b80600c9080519060200190610f6b929190613c67565b5050565b610f77612f44565b73ffffffffffffffffffffffffffffffffffffffff16610f956114fb565b73ffffffffffffffffffffffffffffffffffffffff1614610feb576040517f08c379a0000000000000000000000000000000000000000000000000000000008152600401610fe290614e69565b60405180910390fd5b80600d60016101000a81548160ff02191690831515021790555050565b611010612f44565b73ffffffffffffffffffffffffffffffffffffffff1661102e6114fb565b73ffffffffffffffffffffffffffffffffffffffff1614611084576040517f08c379a000000000000000000000000000000000000000000000000000000000815260040161107b90614e69565b60405180910390fd5b8060098190555050565b6110a9838383604051806020016040528060008152506117d6565b505050565b6110b6612f44565b73ffffffffffffffffffffffffffffffffffffffff166110d46114fb565b73ffffffffffffffffffffffffffffffffffffffff161461112a576040517f08c379a000000000000000000000000000000000000000000000000000000000815260040161112190614e69565b60405180910390fd5b80600b8190555050565b61113c612f44565b73ffffffffffffffffffffffffffffffffffffffff1661115a6114fb565b73ffffffffffffffffffffffffffffffffffffffff16146111b0576040517f08c379a00000000000000000000000000000000000000000000000000000000081526004016111a790614e69565b60405180910390fd5b80601360006101000a81548173ffffffffffffffffffffffffffffffffffffffff021916908373ffffffffffffffffffffffffffffffffffffffff16021790555050565b60006111ff82612ed8565b61123e576040517f08c379a000000000000000000000000000000000000000000000000000000000815260040161123590614cc9565b60405180910390fd5b819050919050565b6000601160008373ffffffffffffffffffffffffffffffffffffffff1673ffffffffffffffffffffffffffffffffffffffff16815260200190815260200160002060009054906101000a900460ff169050919050565b6000806003600084815260200190815260200160002060009054906101000a900473ffffffffffffffffffffffffffffffffffffffff169050600073ffffffffffffffffffffffffffffffffffffffff168173ffffffffffffffffffffffffffffffffffffffff161415611345576040517f08c379a000000000000000000000000000000000000000000000000000000000815260040161133c90614d89565b60405180910390fd5b80915050919050565b6000808260014361135f9190615286565b40414433604051602001611377959493929190614a10565b6040516020818303038152906040528051906020012060001c9050838161139e9190615534565b91505092915050565b60008073ffffffffffffffffffffffffffffffffffffffff168273ffffffffffffffffffffffffffffffffffffffff161415611418576040517f08c379a000000000000000000000000000000000000000000000000000000000815260040161140f90614d69565b60405180910390fd5b600460008373ffffffffffffffffffffffffffffffffffffffff1673ffffffffffffffffffffffffffffffffffffffff168152602001908152602001600020549050919050565b611467612f44565b73ffffffffffffffffffffffffffffffffffffffff166114856114fb565b73ffffffffffffffffffffffffffffffffffffffff16146114db576040517f08c379a00000000000000000000000000000000000000000000000000000000081526004016114d290614e69565b60405180910390fd5b6114e5600061333f565b565b600760009054906101000a900461ffff1681565b60008060009054906101000a900473ffffffffffffffffffffffffffffffffffffffff16905090565b60606002805461153390615401565b80601f016020809104026020016040519081016040528092919081815260200182805461155f90615401565b80156115ac5780601f10611581576101008083540402835291602001916115ac565b820191906000526020600020905b81548152906001019060200180831161158f57829003601f168201915b5050505050905090565b6115be612f44565b73ffffffffffffffffffffffffffffffffffffffff168273ffffffffffffffffffffffffffffffffffffffff16141561162c576040517f08c379a000000000000000000000000000000000000000000000000000000000815260040161162390614ca9565b60405180910390fd5b8060066000611639612f44565b73ffffffffffffffffffffffffffffffffffffffff1673ffffffffffffffffffffffffffffffffffffffff16815260200190815260200160002060008473ffffffffffffffffffffffffffffffffffffffff1673ffffffffffffffffffffffffffffffffffffffff16815260200190815260200160002060006101000a81548160ff0219169083151502179055508173ffffffffffffffffffffffffffffffffffffffff166116e6612f44565b73ffffffffffffffffffffffffffffffffffffffff167f17307eab39ab6107e8899845ad3d59bd9653f200f220920489ca2b5937696c318360405161172b9190614b36565b60405180910390a35050565b60095481565b611745612f44565b73ffffffffffffffffffffffffffffffffffffffff166117636114fb565b73ffffffffffffffffffffffffffffffffffffffff16146117b9576040517f08c379a00000000000000000000000000000000000000000000000000000000081526004016117b090614e69565b60405180910390fd5b6001600d60006101000a81548160ff021916908315150217905550565b6117e76117e1612f44565b83613005565b611826576040517f08c379a000000000000000000000000000000000000000000000000000000000815260040161181d90614f29565b60405180910390fd5b61183284848484613403565b50505050565b3373ffffffffffffffffffffffffffffffffffffffff163273ffffffffffffffffffffffffffffffffffffffff16146118a6576040517f08c379a000000000000000000000000000000000000000000000000000000000815260040161189d90614d09565b60405180910390fd5b6000600b54141580156118bb575042600b5411155b6118fa576040517f08c379a00000000000000000000000000000000000000000000000000000000081526004016118f190614da9565b60405180910390fd5b60008361ffff1611611941576040517f08c379a000000000000000000000000000000000000000000000000000000000815260040161193890614f69565b60405180910390fd5b600760009054906101000a900461ffff1661ffff168361ffff161061199b576040517f08c379a000000000000000000000000000000000000000000000000000000000815260040161199290614ec9565b60405180910390fd5b600081116119de576040517f08c379a00000000000000000000000000000000000000000000000000000000081526004016119d590614c69565b60405180910390fd5b600060095411611a23576040517f08c379a0000000000000000000000000000000000000000000000000000000008152600401611a1a90614bc9565b60405180910390fd5b6000611a2d612490565b905060008161ffff1611611a76576040517f08c379a0000000000000000000000000000000000000000000000000000000008152600401611a6d90614fa9565b60405180910390fd5b600d60019054906101000a900460ff1615611ac6576040517f08c379a0000000000000000000000000000000000000000000000000000000008152600401611abd90614d49565b60405180910390fd5b8061ffff168461ffff161115611add578060ff1693505b6000611af88561ffff1660095461345f90919063ffffffff16565b905080831015611b3d576040517f08c379a0000000000000000000000000000000000000000000000000000000008152600401611b3490614c49565b60405180910390fd5b808310611bf757601260009054906101000a900473ffffffffffffffffffffffffffffffffffffffff1673ffffffffffffffffffffffffffffffffffffffff166323b872dd3330846040518463ffffffff1660e01b8152600401611ba393929190614a8a565b602060405180830381600087803b158015611bbd57600080fd5b505af1158015611bd1573d6000803e3d6000fd5b505050506040513d601f19601f82011682018060405250810190611bf59190614193565b505b60008561ffff1667ffffffffffffffff811115611c1757611c16615652565b5b604051908082528060200260200182016040528015611c455781602001602082028036833780820191505090505b5090506000600760029054906101000a900461ffff16905086600e60003373ffffffffffffffffffffffffffffffffffffffff1673ffffffffffffffffffffffffffffffffffffffff16815260200190815260200160002060008282829054906101000a900461ffff16611cb99190615139565b92506101000a81548161ffff021916908361ffff16021790555086600760028282829054906101000a900461ffff16611cf29190615139565b92506101000a81548161ffff021916908361ffff16021790555060005b8761ffff16811015611d6857611d24826134da565b61ffff16838281518110611d3b57611d3a615623565b5b6020026020010181815250508180611d5290615464565b9250508080611d609061548f565b915050611d0f565b508573ffffffffffffffffffffffffffffffffffffffff16600073ffffffffffffffffffffffffffffffffffffffff161415611dd9576040517f08c379a0000000000000000000000000000000000000000000000000000000008152600401611dd090614f09565b60405180910390fd5b3373ffffffffffffffffffffffffffffffffffffffff168673ffffffffffffffffffffffffffffffffffffffff161415611e48576040517f08c379a0000000000000000000000000000000000000000000000000000000008152600401611e3f90614dc9565b60405180910390fd5b600854600e60003373ffffffffffffffffffffffffffffffffffffffff1673ffffffffffffffffffffffffffffffffffffffff16815260200190815260200160002060009054906101000a900461ffff1661ffff161115611ede576040517f08c379a0000000000000000000000000000000000000000000000000000000008152600401611ed590614e09565b60405180910390fd5b600854600e60008873ffffffffffffffffffffffffffffffffffffffff1673ffffffffffffffffffffffffffffffffffffffff16815260200190815260200160002060009054906101000a900461ffff1661ffff1610612191576001600e60003373ffffffffffffffffffffffffffffffffffffffff1673ffffffffffffffffffffffffffffffffffffffff16815260200190815260200160002060009054906101000a900461ffff1661ffff1610612190576000601060003373ffffffffffffffffffffffffffffffffffffffff1673ffffffffffffffffffffffffffffffffffffffff16815260200190815260200160002060008873ffffffffffffffffffffffffffffffffffffffff1673ffffffffffffffffffffffffffffffffffffffff16815260200190815260200160002060009054906101000a900460ff1660ff16141561218f57601360009054906101000a900473ffffffffffffffffffffffffffffffffffffffff1673ffffffffffffffffffffffffffffffffffffffff16637ba2acfc600a60009054906101000a900460ff16886040518363ffffffff1660e01b815260040161209292919061501a565b600060405180830381600087803b1580156120ac57600080fd5b505af11580156120c0573d6000803e3d6000fd5b505050506040513d6000823e3d601f19601f820116820180604052508101906120e9919061411d565b50600a60009054906101000a900460ff16601060003373ffffffffffffffffffffffffffffffffffffffff1673ffffffffffffffffffffffffffffffffffffffff16815260200190815260200160002060008873ffffffffffffffffffffffffffffffffffffffff1673ffffffffffffffffffffffffffffffffffffffff16815260200190815260200160002060006101000a81548160ff021916908360ff1602179055505b5b5b61219b338361366f565b7f4a152e3a27e8b1c24df3ae9208d29aa25fb4e2955a9b6820732d4e47b1969060866040516121ca9190614a6f565b60405180910390a150505050505050565b6121e3612f44565b73ffffffffffffffffffffffffffffffffffffffff166122016114fb565b73ffffffffffffffffffffffffffffffffffffffff1614612257576040517f08c379a000000000000000000000000000000000000000000000000000000000815260040161224e90614e69565b60405180910390fd5b8061ffff1660088190555050565b606061227082612ed8565b6122af576040517f08c379a00000000000000000000000000000000000000000000000000000000081526004016122a690614ea9565b60405180910390fd5b60006122b96138c5565b905060008151116122d95760405180602001604052806000815250612304565b806122e384613957565b6040516020016122f49291906149ec565b6040516020818303038152906040525b915050919050565b612314612f44565b73ffffffffffffffffffffffffffffffffffffffff166123326114fb565b73ffffffffffffffffffffffffffffffffffffffff1614612388576040517f08c379a000000000000000000000000000000000000000000000000000000000815260040161237f90614e69565b60405180910390fd5b60001515600d60009054906101000a900460ff161515146123de576040517f08c379a00000000000000000000000000000000000000000000000000000000081526004016123d590614ce9565b60405180910390fd5b80600760006101000a81548161ffff021916908361ffff16021790555050565b6060600c805461240d90615401565b80601f016020809104026020016040519081016040528092919081815260200182805461243990615401565b80156124865780601f1061245b57610100808354040283529160200191612486565b820191906000526020600020905b81548152906001019060200180831161246957829003601f168201915b5050505050905090565b6000600760029054906101000a900461ffff16600760009054906101000a900461ffff166124be9190615252565b905090565b6124cb612f44565b73ffffffffffffffffffffffffffffffffffffffff166124e96114fb565b73ffffffffffffffffffffffffffffffffffffffff161461253f576040517f08c379a000000000000000000000000000000000000000000000000000000000815260040161253690614e69565b60405180910390fd5b6001601160008373ffffffffffffffffffffffffffffffffffffffff1673ffffffffffffffffffffffffffffffffffffffff16815260200190815260200160002060006101000a81548160ff02191690831515021790555050565b3373ffffffffffffffffffffffffffffffffffffffff163273ffffffffffffffffffffffffffffffffffffffff1614612608576040517f08c379a00000000000000000000000000000000000000000000000000000000081526004016125ff90614d09565b60405180910390fd5b6000600b541415801561261d575042600b5411155b61265c576040517f08c379a000000000000000000000000000000000000000000000000000000000815260040161265390614da9565b60405180910390fd5b60008261ffff16116126a3576040517f08c379a000000000000000000000000000000000000000000000000000000000815260040161269a90614f89565b60405180910390fd5b600760009054906101000a900461ffff1661ffff168261ffff16106126fd576040517f08c379a00000000000000000000000000000000000000000000000000000000081526004016126f490614ec9565b60405180910390fd5b6000612707612490565b905060008161ffff1611612750576040517f08c379a000000000000000000000000000000000000000000000000000000000815260040161274790614fa9565b60405180910390fd5b600d60019054906101000a900460ff16156127f257601160003373ffffffffffffffffffffffffffffffffffffffff1673ffffffffffffffffffffffffffffffffffffffff16815260200190815260200160002060009054906101000a900460ff166127f1576040517f08c379a00000000000000000000000000000000000000000000000000000000081526004016127e890614f49565b60405180910390fd5b5b8061ffff168361ffff161115612806578092505b60006128218461ffff1660095461345f90919063ffffffff16565b905080831015612866576040517f08c379a000000000000000000000000000000000000000000000000000000000815260040161285d90614c49565b60405180910390fd5b60085484600e60003373ffffffffffffffffffffffffffffffffffffffff1673ffffffffffffffffffffffffffffffffffffffff16815260200190815260200160002060009054906101000a900461ffff166128c29190615139565b61ffff161115612907576040517f08c379a00000000000000000000000000000000000000000000000000000000081526004016128fe90614e09565b60405180910390fd5b8083106129c157601260009054906101000a900473ffffffffffffffffffffffffffffffffffffffff1673ffffffffffffffffffffffffffffffffffffffff166323b872dd3330846040518463ffffffff1660e01b815260040161296d93929190614a8a565b602060405180830381600087803b15801561298757600080fd5b505af115801561299b573d6000803e3d6000fd5b505050506040513d601f19601f820116820180604052508101906129bf9190614193565b505b60008461ffff1667ffffffffffffffff8111156129e1576129e0615652565b5b604051908082528060200260200182016040528015612a0f5781602001602082028036833780820191505090505b5090506000600760029054906101000a900461ffff16905085600e60003373ffffffffffffffffffffffffffffffffffffffff1673ffffffffffffffffffffffffffffffffffffffff16815260200190815260200160002060008282829054906101000a900461ffff16612a839190615139565b92506101000a81548161ffff021916908361ffff16021790555085600760029054906101000a900461ffff16612ab99190615139565b600760026101000a81548161ffff021916908361ffff16021790555060005b8661ffff16811015612b3157612aed826134da565b61ffff16838281518110612b0457612b03615623565b5b6020026020010181815250508180612b1b90615464565b9250508080612b299061548f565b915050612ad8565b50612b3c338361366f565b505050505050565b6000600660008473ffffffffffffffffffffffffffffffffffffffff1673ffffffffffffffffffffffffffffffffffffffff16815260200190815260200160002060008373ffffffffffffffffffffffffffffffffffffffff1673ffffffffffffffffffffffffffffffffffffffff16815260200190815260200160002060009054906101000a900460ff16905092915050565b612be0612f44565b73ffffffffffffffffffffffffffffffffffffffff16612bfe6114fb565b73ffffffffffffffffffffffffffffffffffffffff1614612c54576040517f08c379a0000000000000000000000000000000000000000000000000000000008152600401612c4b90614e69565b60405180910390fd5b601260009054906101000a900473ffffffffffffffffffffffffffffffffffffffff1673ffffffffffffffffffffffffffffffffffffffff1663a9059cbb83836040518363ffffffff1660e01b8152600401612cb1929190614b0d565b602060405180830381600087803b158015612ccb57600080fd5b505af1158015612cdf573d6000803e3d6000fd5b505050506040513d601f19601f82011682018060405250810190612d039190614193565b505050565b600a60009054906101000a900460ff1681565b60106020528160005260406000206020528060005260406000206000915091509054906101000a900460ff1681565b612d52612f44565b73ffffffffffffffffffffffffffffffffffffffff16612d706114fb565b73ffffffffffffffffffffffffffffffffffffffff1614612dc6576040517f08c379a0000000000000000000000000000000000000000000000000000000008152600401612dbd90614e69565b60405180910390fd5b600073ffffffffffffffffffffffffffffffffffffffff168173ffffffffffffffffffffffffffffffffffffffff161415612e36576040517f08c379a0000000000000000000000000000000000000000000000000000000008152600401612e2d90614c09565b60405180910390fd5b612e3f8161333f565b50565b601260009054906101000a900473ffffffffffffffffffffffffffffffffffffffff1681565b60085481565b60007f01ffc9a7000000000000000000000000000000000000000000000000000000007bffffffffffffffffffffffffffffffffffffffffffffffffffffffff1916827bffffffffffffffffffffffffffffffffffffffffffffffffffffffff1916149050919050565b60008073ffffffffffffffffffffffffffffffffffffffff166003600084815260200190815260200160002060009054906101000a900473ffffffffffffffffffffffffffffffffffffffff1673ffffffffffffffffffffffffffffffffffffffff1614159050919050565b600033905090565b816005600083815260200190815260200160002060006101000a81548173ffffffffffffffffffffffffffffffffffffffff021916908373ffffffffffffffffffffffffffffffffffffffff160217905550808273ffffffffffffffffffffffffffffffffffffffff16612fbf8361129c565b73ffffffffffffffffffffffffffffffffffffffff167f8c5be1e5ebec7d5bd14f71427d1e84f3dd0314c0f7b2291e5b200ac8c7c3b92560405160405180910390a45050565b600061301082612ed8565b61304f576040517f08c379a000000000000000000000000000000000000000000000000000000000815260040161304690614cc9565b60405180910390fd5b600061305a8361129c565b90508073ffffffffffffffffffffffffffffffffffffffff168473ffffffffffffffffffffffffffffffffffffffff1614806130c957508373ffffffffffffffffffffffffffffffffffffffff166130b1846109b4565b73ffffffffffffffffffffffffffffffffffffffff16145b806130da57506130d98185612b44565b5b91505092915050565b8273ffffffffffffffffffffffffffffffffffffffff166131038261129c565b73ffffffffffffffffffffffffffffffffffffffff1614613159576040517f08c379a000000000000000000000000000000000000000000000000000000000815260040161315090614e89565b60405180910390fd5b600073ffffffffffffffffffffffffffffffffffffffff168273ffffffffffffffffffffffffffffffffffffffff1614156131c9576040517f08c379a00000000000000000000000000000000000000000000000000000000081526004016131c090614c89565b60405180910390fd5b6131d4838383613ab8565b6131df600082612f4c565b6001600460008573ffffffffffffffffffffffffffffffffffffffff1673ffffffffffffffffffffffffffffffffffffffff168152602001908152602001600020600082825461322f9190615286565b925050819055506001600460008473ffffffffffffffffffffffffffffffffffffffff1673ffffffffffffffffffffffffffffffffffffffff16815260200190815260200160002060008282546132869190615171565b92505081905550816003600083815260200190815260200160002060006101000a81548173ffffffffffffffffffffffffffffffffffffffff021916908373ffffffffffffffffffffffffffffffffffffffff160217905550808273ffffffffffffffffffffffffffffffffffffffff168473ffffffffffffffffffffffffffffffffffffffff167fddf252ad1be2c89b69c2b068fc378daa952ba7f163c4a11628f55a4df523b3ef60405160405180910390a4505050565b60008060009054906101000a900473ffffffffffffffffffffffffffffffffffffffff169050816000806101000a81548173ffffffffffffffffffffffffffffffffffffffff021916908373ffffffffffffffffffffffffffffffffffffffff1602179055508173ffffffffffffffffffffffffffffffffffffffff168173ffffffffffffffffffffffffffffffffffffffff167f8be0079c531659141344cd1fd0a4f28419497f9722a3daafe3b4186f6b6457e060405160405180910390a35050565b61340e8484846130e3565b61341a84848484613abd565b613459576040517f08c379a000000000000000000000000000000000000000000000000000000000815260040161345090614be9565b60405180910390fd5b50505050565b60008083141561347257600090506134d4565b6000828461348091906151f8565b905082848261348f91906151c7565b146134cf576040517f08c379a00000000000000000000000000000000000000000000000000000000081526004016134c690614e29565b60405180910390fd5b809150505b92915050565b60008082600760009054906101000a900461ffff166134f99190615252565b90506000613507828561134e565b90506000600f60008361ffff1661ffff16815260200190815260200160002060009054906101000a900461ffff1690506000600f60008461ffff1661ffff16815260200190815260200160002060009054906101000a900461ffff1661ffff161415613571578190505b6000600f60006001866135849190615252565b61ffff1661ffff16815260200190815260200160002060009054906101000a900461ffff1661ffff161461362157600f60006001856135c39190615252565b61ffff1661ffff16815260200190815260200160002060009054906101000a900461ffff16600f60008461ffff1661ffff16815260200190815260200160002060006101000a81548161ffff021916908361ffff1602179055613663565b60018361362e9190615252565b600f60008461ffff1661ffff16815260200190815260200160002060006101000a81548161ffff021916908361ffff16021790555b50809350505050919050565b600073ffffffffffffffffffffffffffffffffffffffff168273ffffffffffffffffffffffffffffffffffffffff1614156136df576040517f08c379a00000000000000000000000000000000000000000000000000000000081526004016136d690614de9565b60405180910390fd5b8051600460008473ffffffffffffffffffffffffffffffffffffffff1673ffffffffffffffffffffffffffffffffffffffff168152602001908152602001600020600082825461372f9190615171565b9250508190555060005b81518110156138c05761376582828151811061375857613757615623565b5b6020026020010151612ed8565b156137a5576040517f08c379a000000000000000000000000000000000000000000000000000000000815260040161379c90614c29565b60405180910390fd5b6137cb6000848484815181106137be576137bd615623565b5b6020026020010151613ab8565b82600360008484815181106137e3576137e2615623565b5b6020026020010151815260200190815260200160002060006101000a81548173ffffffffffffffffffffffffffffffffffffffff021916908373ffffffffffffffffffffffffffffffffffffffff16021790555081818151811061384a57613849615623565b5b60200260200101518373ffffffffffffffffffffffffffffffffffffffff16600073ffffffffffffffffffffffffffffffffffffffff167fddf252ad1be2c89b69c2b068fc378daa952ba7f163c4a11628f55a4df523b3ef60405160405180910390a480806138b89061548f565b915050613739565b505050565b6060600c80546138d490615401565b80601f016020809104026020016040519081016040528092919081815260200182805461390090615401565b801561394d5780601f106139225761010080835404028352916020019161394d565b820191906000526020600020905b81548152906001019060200180831161393057829003601f168201915b5050505050905090565b6060600082141561399f576040518060400160405280600181526020017f30000000000000000000000000000000000000000000000000000000000000008152509050613ab3565b600082905060005b600082146139d15780806139ba9061548f565b915050600a826139ca91906151c7565b91506139a7565b60008167ffffffffffffffff8111156139ed576139ec615652565b5b6040519080825280601f01601f191660200182016040528015613a1f5781602001600182028036833780820191505090505b5090505b60008514613aac57600182613a389190615286565b9150600a85613a479190615565565b6030613a539190615171565b60f81b818381518110613a6957613a68615623565b5b60200101907effffffffffffffffffffffffffffffffffffffffffffffffffffffffffffff1916908160001a905350600a85613aa591906151c7565b9450613a23565b8093505050505b919050565b505050565b6000613ade8473ffffffffffffffffffffffffffffffffffffffff16613c54565b15613c47578373ffffffffffffffffffffffffffffffffffffffff1663150b7a02613b07612f44565b8786866040518563ffffffff1660e01b8152600401613b299493929190614ac1565b602060405180830381600087803b158015613b4357600080fd5b505af1925050508015613b7457506040513d601f19601f82011682018060405250810190613b7191906141ed565b60015b613bf7573d8060008114613ba4576040519150601f19603f3d011682016040523d82523d6000602084013e613ba9565b606091505b50600081511415613bef576040517f08c379a0000000000000000000000000000000000000000000000000000000008152600401613be690614be9565b60405180910390fd5b805181602001fd5b63150b7a0260e01b7bffffffffffffffffffffffffffffffffffffffffffffffffffffffff1916817bffffffffffffffffffffffffffffffffffffffffffffffffffffffff191614915050613c4c565b600190505b949350505050565b600080823b905060008111915050919050565b828054613c7390615401565b90600052602060002090601f016020900481019282613c955760008555613cdc565b82601f10613cae57805160ff1916838001178555613cdc565b82800160010185558215613cdc579182015b82811115613cdb578251825591602001919060010190613cc0565b5b509050613ce99190613ced565b5090565b5b80821115613d06576000816000905550600101613cee565b5090565b6000613d1d613d1884615068565b615043565b90508083825260208201905082856020860282011115613d4057613d3f615686565b5b60005b85811015613d705781613d568882613f30565b845260208401935060208301925050600181019050613d43565b5050509392505050565b6000613d8d613d8884615094565b615043565b905082815260208101848484011115613da957613da861568b565b5b613db48482856153bf565b509392505050565b6000613dcf613dca846150c5565b615043565b905082815260208101848484011115613deb57613dea61568b565b5b613df68482856153bf565b509392505050565b600081359050613e0d81615eba565b92915050565b600082601f830112613e2857613e27615681565b5b8151613e38848260208601613d0a565b91505092915050565b600081359050613e5081615ed1565b92915050565b600081519050613e6581615ed1565b92915050565b600081359050613e7a81615ee8565b92915050565b600081519050613e8f81615ee8565b92915050565b600082601f830112613eaa57613ea9615681565b5b8135613eba848260208601613d7a565b91505092915050565b600081359050613ed281615eff565b92915050565b600082601f830112613eed57613eec615681565b5b8135613efd848260208601613dbc565b91505092915050565b600081359050613f1581615f16565b92915050565b600081359050613f2a81615f2d565b92915050565b600081519050613f3f81615f2d565b92915050565b600081359050613f5481615f44565b92915050565b600060208284031215613f7057613f6f615695565b5b6000613f7e84828501613dfe565b91505092915050565b60008060408385031215613f9e57613f9d615695565b5b6000613fac85828601613dfe565b9250506020613fbd85828601613dfe565b9150509250929050565b600080600060608486031215613fe057613fdf615695565b5b6000613fee86828701613dfe565b9350506020613fff86828701613dfe565b925050604061401086828701613f1b565b9150509250925092565b6000806000806080858703121561403457614033615695565b5b600061404287828801613dfe565b945050602061405387828801613dfe565b935050604061406487828801613f1b565b925050606085013567ffffffffffffffff81111561408557614084615690565b5b61409187828801613e95565b91505092959194509250565b600080604083850312156140b4576140b3615695565b5b60006140c285828601613dfe565b92505060206140d385828601613e41565b9150509250929050565b600080604083850312156140f4576140f3615695565b5b600061410285828601613dfe565b925050602061411385828601613f1b565b9150509250929050565b60006020828403121561413357614132615695565b5b600082015167ffffffffffffffff81111561415157614150615690565b5b61415d84828501613e13565b91505092915050565b60006020828403121561417c5761417b615695565b5b600061418a84828501613e41565b91505092915050565b6000602082840312156141a9576141a8615695565b5b60006141b784828501613e56565b91505092915050565b6000602082840312156141d6576141d5615695565b5b60006141e484828501613e6b565b91505092915050565b60006020828403121561420357614202615695565b5b600061421184828501613e80565b91505092915050565b6000602082840312156142305761422f615695565b5b600061423e84828501613ec3565b91505092915050565b60006020828403121561425d5761425c615695565b5b600082013567ffffffffffffffff81111561427b5761427a615690565b5b61428784828501613ed8565b91505092915050565b6000602082840312156142a6576142a5615695565b5b60006142b484828501613f06565b91505092915050565b6000806000606084860312156142d6576142d5615695565b5b60006142e486828701613f06565b93505060206142f586828701613dfe565b925050604061430686828701613f1b565b9150509250925092565b6000806040838503121561432757614326615695565b5b600061433585828601613f06565b925050602061434685828601613f06565b9150509250929050565b6000806040838503121561436757614366615695565b5b600061437585828601613f06565b925050602061438685828601613f1b565b9150509250929050565b6000602082840312156143a6576143a5615695565b5b60006143b484828501613f1b565b91505092915050565b6000602082840312156143d3576143d2615695565b5b60006143e184828501613f45565b91505092915050565b6143fb6143f6826152cc565b6154ea565b82525050565b61440a816152ba565b82525050565b61442161441c826152ba565b6154d8565b82525050565b614430816152de565b82525050565b614447614442826152ea565b6154fc565b82525050565b6000614458826150f6565b614462818561510c565b93506144728185602086016153ce565b61447b8161569a565b840191505092915050565b61448f81615377565b82525050565b61449e81615389565b82525050565b60006144af82615101565b6144b9818561511d565b93506144c98185602086016153ce565b6144d28161569a565b840191505092915050565b60006144e882615101565b6144f2818561512e565b93506145028185602086016153ce565b80840191505092915050565b600061451b600f8361511d565b9150614526826156c5565b602082019050919050565b600061453e60208361511d565b9150614549826156ee565b602082019050919050565b600061456160328361511d565b915061456c82615717565b604082019050919050565b600061458460268361511d565b915061458f82615766565b604082019050919050565b60006145a7601c8361511d565b91506145b2826157b5565b602082019050919050565b60006145ca60218361511d565b91506145d5826157de565b604082019050919050565b60006145ed60128361511d565b91506145f88261582d565b602082019050919050565b600061461060248361511d565b915061461b82615856565b604082019050919050565b600061463360198361511d565b915061463e826158a5565b602082019050919050565b6000614656602c8361511d565b9150614661826158ce565b604082019050919050565b600061467960278361511d565b91506146848261591d565b604082019050919050565b600061469c601e8361511d565b91506146a78261596c565b602082019050919050565b60006146bf60388361511d565b91506146ca82615995565b604082019050919050565b60006146e260208361511d565b91506146ed826159e4565b602082019050919050565b6000614705602a8361511d565b915061471082615a0d565b604082019050919050565b600061472860298361511d565b915061473382615a5c565b604082019050919050565b600061474b60058361511d565b915061475682615aab565b602082019050919050565b600061476e601d8361511d565b915061477982615ad4565b602082019050919050565b600061479160208361511d565b915061479c82615afd565b602082019050919050565b60006147b4601c8361511d565b91506147bf82615b26565b602082019050919050565b60006147d760218361511d565b91506147e282615b4f565b604082019050919050565b60006147fa602c8361511d565b915061480582615b9e565b604082019050919050565b600061481d60208361511d565b915061482882615bed565b602082019050919050565b600061484060298361511d565b915061484b82615c16565b604082019050919050565b6000614863602f8361511d565b915061486e82615c65565b604082019050919050565b600061488660218361511d565b915061489182615cb4565b604082019050919050565b60006148a960218361511d565b91506148b482615d03565b604082019050919050565b60006148cc60238361511d565b91506148d782615d52565b604082019050919050565b60006148ef60318361511d565b91506148fa82615da1565b604082019050919050565b600061491260108361511d565b915061491d82615df0565b602082019050919050565b600061493560238361511d565b915061494082615e19565b604082019050919050565b600061495860148361511d565b915061496382615e68565b602082019050919050565b600061497b601b8361511d565b915061498682615e91565b602082019050919050565b61499a81615332565b82525050565b6149b16149ac82615332565b615506565b82525050565b6149c081615360565b82525050565b6149d76149d282615360565b61552a565b82525050565b6149e68161536a565b82525050565b60006149f882856144dd565b9150614a0482846144dd565b91508190509392505050565b6000614a1c82886149a0565b600282019150614a2c8287614436565b602082019150614a3c82866143ea565b601482019150614a4c82856149c6565b602082019150614a5c8284614410565b6014820191508190509695505050505050565b6000602082019050614a846000830184614401565b92915050565b6000606082019050614a9f6000830186614401565b614aac6020830185614401565b614ab960408301846149b7565b949350505050565b6000608082019050614ad66000830187614401565b614ae36020830186614401565b614af060408301856149b7565b8181036060830152614b02818461444d565b905095945050505050565b6000604082019050614b226000830185614401565b614b2f60208301846149b7565b9392505050565b6000602082019050614b4b6000830184614427565b92915050565b6000602082019050614b666000830184614486565b92915050565b6000602082019050614b816000830184614495565b92915050565b60006020820190508181036000830152614ba181846144a4565b905092915050565b60006020820190508181036000830152614bc28161450e565b9050919050565b60006020820190508181036000830152614be281614531565b9050919050565b60006020820190508181036000830152614c0281614554565b9050919050565b60006020820190508181036000830152614c2281614577565b9050919050565b60006020820190508181036000830152614c428161459a565b9050919050565b60006020820190508181036000830152614c62816145bd565b9050919050565b60006020820190508181036000830152614c82816145e0565b9050919050565b60006020820190508181036000830152614ca281614603565b9050919050565b60006020820190508181036000830152614cc281614626565b9050919050565b60006020820190508181036000830152614ce281614649565b9050919050565b60006020820190508181036000830152614d028161466c565b9050919050565b60006020820190508181036000830152614d228161468f565b9050919050565b60006020820190508181036000830152614d42816146b2565b9050919050565b60006020820190508181036000830152614d62816146d5565b9050919050565b60006020820190508181036000830152614d82816146f8565b9050919050565b60006020820190508181036000830152614da28161471b565b9050919050565b60006020820190508181036000830152614dc28161473e565b9050919050565b60006020820190508181036000830152614de281614761565b9050919050565b60006020820190508181036000830152614e0281614784565b9050919050565b60006020820190508181036000830152614e22816147a7565b9050919050565b60006020820190508181036000830152614e42816147ca565b9050919050565b60006020820190508181036000830152614e62816147ed565b9050919050565b60006020820190508181036000830152614e8281614810565b9050919050565b60006020820190508181036000830152614ea281614833565b9050919050565b60006020820190508181036000830152614ec281614856565b9050919050565b60006020820190508181036000830152614ee281614879565b9050919050565b60006020820190508181036000830152614f028161489c565b9050919050565b60006020820190508181036000830152614f22816148bf565b9050919050565b60006020820190508181036000830152614f42816148e2565b9050919050565b60006020820190508181036000830152614f6281614905565b9050919050565b60006020820190508181036000830152614f8281614928565b9050919050565b60006020820190508181036000830152614fa28161494b565b9050919050565b60006020820190508181036000830152614fc28161496e565b9050919050565b6000602082019050614fde6000830184614991565b92915050565b6000602082019050614ff960008301846149b7565b92915050565b600060208201905061501460008301846149dd565b92915050565b600060408201905061502f60008301856149dd565b61503c6020830184614401565b9392505050565b600061504d61505e565b90506150598282615433565b919050565b6000604051905090565b600067ffffffffffffffff82111561508357615082615652565b5b602082029050602081019050919050565b600067ffffffffffffffff8211156150af576150ae615652565b5b6150b88261569a565b9050602081019050919050565b600067ffffffffffffffff8211156150e0576150df615652565b5b6150e98261569a565b9050602081019050919050565b600081519050919050565b600081519050919050565b600082825260208201905092915050565b600082825260208201905092915050565b600081905092915050565b600061514482615332565b915061514f83615332565b92508261ffff0382111561516657615165615596565b5b828201905092915050565b600061517c82615360565b915061518783615360565b9250827fffffffffffffffffffffffffffffffffffffffffffffffffffffffffffffffff038211156151bc576151bb615596565b5b828201905092915050565b60006151d282615360565b91506151dd83615360565b9250826151ed576151ec6155c5565b5b828204905092915050565b600061520382615360565b915061520e83615360565b9250817fffffffffffffffffffffffffffffffffffffffffffffffffffffffffffffffff048311821515161561524757615246615596565b5b828202905092915050565b600061525d82615332565b915061526883615332565b92508282101561527b5761527a615596565b5b828203905092915050565b600061529182615360565b915061529c83615360565b9250828210156152af576152ae615596565b5b828203905092915050565b60006152c582615340565b9050919050565b60006152d782615340565b9050919050565b60008115159050919050565b6000819050919050565b60007fffffffff0000000000000000000000000000000000000000000000000000000082169050919050565b600061532b826152ba565b9050919050565b600061ffff82169050919050565b600073ffffffffffffffffffffffffffffffffffffffff82169050919050565b6000819050919050565b600060ff82169050919050565b60006153828261539b565b9050919050565b60006153948261539b565b9050919050565b60006153a6826153ad565b9050919050565b60006153b882615340565b9050919050565b82818337600083830152505050565b60005b838110156153ec5780820151818401526020810190506153d1565b838111156153fb576000848401525b50505050565b6000600282049050600182168061541957607f821691505b6020821081141561542d5761542c6155f4565b5b50919050565b61543c8261569a565b810181811067ffffffffffffffff8211171561545b5761545a615652565b5b80604052505050565b600061546f82615332565b915061ffff82141561548457615483615596565b5b600182019050919050565b600061549a82615360565b91507fffffffffffffffffffffffffffffffffffffffffffffffffffffffffffffffff8214156154cd576154cc615596565b5b600182019050919050565b60006154e382615518565b9050919050565b60006154f582615518565b9050919050565b6000819050919050565b6000615511826156ab565b9050919050565b6000615523826156b8565b9050919050565b6000819050919050565b600061553f82615332565b915061554a83615332565b92508261555a576155596155c5565b5b828206905092915050565b600061557082615360565b915061557b83615360565b92508261558b5761558a6155c5565b5b828206905092915050565b7f4e487b7100000000000000000000000000000000000000000000000000000000600052601160045260246000fd5b7f4e487b7100000000000000000000000000000000000000000000000000000000600052601260045260246000fd5b7f4e487b7100000000000000000000000000000000000000000000000000000000600052602260045260246000fd5b7f4e487b7100000000000000000000000000000000000000000000000000000000600052603260045260246000fd5b7f4e487b7100000000000000000000000000000000000000000000000000000000600052604160045260246000fd5b600080fd5b600080fd5b600080fd5b600080fd5b600080fd5b6000601f19601f8301169050919050565b60008160f01b9050919050565b60008160601b9050919050565b7f6769667420636f756e74207a65726f0000000000000000000000000000000000600082015250565b7f4174206c6561737420444149207072696365206c6172676572207468616e2030600082015250565b7f4552433732313a207472616e7366657220746f206e6f6e20455243373231526560008201527f63656976657220696d706c656d656e7465720000000000000000000000000000602082015250565b7f4f776e61626c653a206e6577206f776e657220697320746865207a65726f206160008201527f6464726573730000000000000000000000000000000000000000000000000000602082015250565b7f4552433732313a20746f6b656e20616c7265616479206d696e74656400000000600082015250565b7f4e6f7420656e6f7567682044414920746f206d696e742074686520746f6b656e60008201527f7300000000000000000000000000000000000000000000000000000000000000602082015250565b7f204174206c656173742048617665204441490000000000000000000000000000600082015250565b7f4552433732313a207472616e7366657220746f20746865207a65726f2061646460008201527f7265737300000000000000000000000000000000000000000000000000000000602082015250565b7f4552433732313a20617070726f766520746f2063616c6c657200000000000000600082015250565b7f4552433732313a206f70657261746f7220717565727920666f72206e6f6e657860008201527f697374656e7420746f6b656e0000000000000000000000000000000000000000602082015250565b7f546869732066756e6374696f6e2063616e206e6f742062652063616c6c65642060008201527f616e796d6f726500000000000000000000000000000000000000000000000000602082015250565b7f5468652063616c6c657220697320616e6f7468657220636f6e74726163740000600082015250565b7f4552433732313a20617070726f76652063616c6c6572206973206e6f74206f7760008201527f6e6572206e6f7220617070726f76656420666f7220616c6c0000000000000000602082015250565b7f63616e206e6f7420776f726b20696e20656e61626c652077686974656c697374600082015250565b7f4552433732313a2062616c616e636520717565727920666f7220746865207a6560008201527f726f206164647265737300000000000000000000000000000000000000000000602082015250565b7f4552433732313a206f776e657220717565727920666f72206e6f6e657869737460008201527f656e7420746f6b656e0000000000000000000000000000000000000000000000602082015250565b7f6561726c79000000000000000000000000000000000000000000000000000000600082015250565b7f54686520696e76697465722063616e277420626520796f757273656c66000000600082015250565b7f4552433732313a206d696e7420746f20746865207a65726f2061646472657373600082015250565b7f596f752063616e206e6f74206d696e74206d6f726520746f6b656e7300000000600082015250565b7f536166654d6174683a206d756c7469706c69636174696f6e206f766572666c6f60008201527f7700000000000000000000000000000000000000000000000000000000000000602082015250565b7f4552433732313a20617070726f76656420717565727920666f72206e6f6e657860008201527f697374656e7420746f6b656e0000000000000000000000000000000000000000602082015250565b7f4f776e61626c653a2063616c6c6572206973206e6f7420746865206f776e6572600082015250565b7f4552433732313a207472616e73666572206f6620746f6b656e2074686174206960008201527f73206e6f74206f776e0000000000000000000000000000000000000000000000602082015250565b7f4552433732314d657461646174613a2055524920717565727920666f72206e6f60008201527f6e6578697374656e7420746f6b656e0000000000000000000000000000000000602082015250565b7f43616e2774206d696e74206d6f7265207468616e20746f74616c20746f6b656e60008201527f7300000000000000000000000000000000000000000000000000000000000000602082015250565b7f4552433732313a20617070726f76616c20746f2063757272656e74206f776e6560008201527f7200000000000000000000000000000000000000000000000000000000000000602082015250565b7f54686520696e766974657220616464726573732063616e206e6f74206265207a60008201527f65726f0000000000000000000000000000000000000000000000000000000000602082015250565b7f4552433732313a207472616e736665722063616c6c6572206973206e6f74206f60008201527f776e6572206e6f7220617070726f766564000000000000000000000000000000602082015250565b7f6e6f7420696e2077686974656c69737400000000000000000000000000000000600082015250565b7f4174206c65617374206f6e6520746f6b656e2073686f756c64206265206d696e60008201527f7465640000000000000000000000000000000000000000000000000000000000602082015250565b7f6f6e652073686f756c64206265206d696e746564000000000000000000000000600082015250565b7f4e6f20746f6b656e73206c65667420746f206265206d696e7465640000000000600082015250565b615ec3816152ba565b8114615ece57600080fd5b50565b615eda816152de565b8114615ee557600080fd5b50565b615ef1816152f4565b8114615efc57600080fd5b50565b615f0881615320565b8114615f1357600080fd5b50565b615f1f81615332565b8114615f2a57600080fd5b50565b615f3681615360565b8114615f4157600080fd5b50565b615f4d8161536a565b8114615f5857600080fd5b5056fea26469706673582212204c6e7ccbbf530acba90036ca57878948866508ca027b532a551fea48b8c3634864736f6c6343000807003368747470733a2f2f697066732e696f2f697066732f516d594a5370397443734469574d6350436556775355583447646f5870314e6159754b374d617547454c527a63313f66696c656e616d653d6b697474796f686d7072697661746573616c656e66742e6a736f6e",
			"opcodes": "PUSH1 0x80 PUSH1 0x40 MSTORE PUSH2 0x2710 PUSH1 0x7 PUSH1 0x0 PUSH2 0x100 EXP DUP2 SLOAD DUP2 PUSH2 0xFFFF MUL NOT AND SWAP1 DUP4 PUSH2 0xFFFF AND MUL OR SWAP1 SSTORE POP PUSH1 0x0 PUSH1 0x7 PUSH1 0x2 PUSH2 0x100 EXP DUP2 SLOAD DUP2 PUSH2 0xFFFF MUL NOT AND SWAP1 DUP4 PUSH2 0xFFFF AND MUL OR SWAP1 SSTORE POP PUSH1 0x32 PUSH1 0x8 SSTORE PUSH9 0x1158E460913D00000 PUSH1 0x9 SSTORE PUSH1 0x1 PUSH1 0xA PUSH1 0x0 PUSH2 0x100 EXP DUP2 SLOAD DUP2 PUSH1 0xFF MUL NOT AND SWAP1 DUP4 PUSH1 0xFF AND MUL OR SWAP1 SSTORE POP PUSH4 0x61ADC300 PUSH1 0xB SSTORE PUSH1 0x40 MLOAD DUP1 PUSH1 0xA0 ADD PUSH1 0x40 MSTORE DUP1 PUSH1 0x68 DUP2 MSTORE PUSH1 0x20 ADD PUSH3 0x6335 PUSH1 0x68 SWAP2 CODECOPY PUSH1 0xC SWAP1 DUP1 MLOAD SWAP1 PUSH1 0x20 ADD SWAP1 PUSH3 0xA8 SWAP3 SWAP2 SWAP1 PUSH3 0x27F JUMP JUMPDEST POP PUSH1 0x0 PUSH1 0xD PUSH1 0x0 PUSH2 0x100 EXP DUP2 SLOAD DUP2 PUSH1 0xFF MUL NOT AND SWAP1 DUP4 ISZERO ISZERO MUL OR SWAP1 SSTORE POP PUSH1 0x1 PUSH1 0xD PUSH1 0x1 PUSH2 0x100 EXP DUP2 SLOAD DUP2 PUSH1 0xFF MUL NOT AND SWAP1 DUP4 ISZERO ISZERO MUL OR SWAP1 SSTORE POP CALLVALUE DUP1 ISZERO PUSH3 0xEC JUMPI PUSH1 0x0 DUP1 REVERT JUMPDEST POP PUSH1 0x40 MLOAD DUP1 PUSH1 0x40 ADD PUSH1 0x40 MSTORE DUP1 PUSH1 0x11 DUP2 MSTORE PUSH1 0x20 ADD PUSH32 0x4B4F4D5072697661746553616C654E4654000000000000000000000000000000 DUP2 MSTORE POP PUSH1 0x40 MLOAD DUP1 PUSH1 0x40 ADD PUSH1 0x40 MSTORE DUP1 PUSH1 0x8 DUP2 MSTORE PUSH1 0x20 ADD PUSH32 0x4B4F4D50534E4654000000000000000000000000000000000000000000000000 DUP2 MSTORE POP PUSH3 0x179 PUSH3 0x16D PUSH3 0x1B3 PUSH1 0x20 SHL PUSH1 0x20 SHR JUMP JUMPDEST PUSH3 0x1BB PUSH1 0x20 SHL PUSH1 0x20 SHR JUMP JUMPDEST DUP2 PUSH1 0x1 SWAP1 DUP1 MLOAD SWAP1 PUSH1 0x20 ADD SWAP1 PUSH3 0x191 SWAP3 SWAP2 SWAP1 PUSH3 0x27F JUMP JUMPDEST POP DUP1 PUSH1 0x2 SWAP1 DUP1 MLOAD SWAP1 PUSH1 0x20 ADD SWAP1 PUSH3 0x1AA SWAP3 SWAP2 SWAP1 PUSH3 0x27F JUMP JUMPDEST POP POP POP PUSH3 0x394 JUMP JUMPDEST PUSH1 0x0 CALLER SWAP1 POP SWAP1 JUMP JUMPDEST PUSH1 0x0 DUP1 PUSH1 0x0 SWAP1 SLOAD SWAP1 PUSH2 0x100 EXP SWAP1 DIV PUSH20 0xFFFFFFFFFFFFFFFFFFFFFFFFFFFFFFFFFFFFFFFF AND SWAP1 POP DUP2 PUSH1 0x0 DUP1 PUSH2 0x100 EXP DUP2 SLOAD DUP2 PUSH20 0xFFFFFFFFFFFFFFFFFFFFFFFFFFFFFFFFFFFFFFFF MUL NOT AND SWAP1 DUP4 PUSH20 0xFFFFFFFFFFFFFFFFFFFFFFFFFFFFFFFFFFFFFFFF AND MUL OR SWAP1 SSTORE POP DUP2 PUSH20 0xFFFFFFFFFFFFFFFFFFFFFFFFFFFFFFFFFFFFFFFF AND DUP2 PUSH20 0xFFFFFFFFFFFFFFFFFFFFFFFFFFFFFFFFFFFFFFFF AND PUSH32 0x8BE0079C531659141344CD1FD0A4F28419497F9722A3DAAFE3B4186F6B6457E0 PUSH1 0x40 MLOAD PUSH1 0x40 MLOAD DUP1 SWAP2 SUB SWAP1 LOG3 POP POP JUMP JUMPDEST DUP3 DUP1 SLOAD PUSH3 0x28D SWAP1 PUSH3 0x32F JUMP JUMPDEST SWAP1 PUSH1 0x0 MSTORE PUSH1 0x20 PUSH1 0x0 KECCAK256 SWAP1 PUSH1 0x1F ADD PUSH1 0x20 SWAP1 DIV DUP2 ADD SWAP3 DUP3 PUSH3 0x2B1 JUMPI PUSH1 0x0 DUP6 SSTORE PUSH3 0x2FD JUMP JUMPDEST DUP3 PUSH1 0x1F LT PUSH3 0x2CC JUMPI DUP1 MLOAD PUSH1 0xFF NOT AND DUP4 DUP1 ADD OR DUP6 SSTORE PUSH3 0x2FD JUMP JUMPDEST DUP3 DUP1 ADD PUSH1 0x1 ADD DUP6 SSTORE DUP3 ISZERO PUSH3 0x2FD JUMPI SWAP2 DUP3 ADD JUMPDEST DUP3 DUP2 GT ISZERO PUSH3 0x2FC JUMPI DUP3 MLOAD DUP3 SSTORE SWAP2 PUSH1 0x20 ADD SWAP2 SWAP1 PUSH1 0x1 ADD SWAP1 PUSH3 0x2DF JUMP JUMPDEST JUMPDEST POP SWAP1 POP PUSH3 0x30C SWAP2 SWAP1 PUSH3 0x310 JUMP JUMPDEST POP SWAP1 JUMP JUMPDEST JUMPDEST DUP1 DUP3 GT ISZERO PUSH3 0x32B JUMPI PUSH1 0x0 DUP2 PUSH1 0x0 SWAP1 SSTORE POP PUSH1 0x1 ADD PUSH3 0x311 JUMP JUMPDEST POP SWAP1 JUMP JUMPDEST PUSH1 0x0 PUSH1 0x2 DUP3 DIV SWAP1 POP PUSH1 0x1 DUP3 AND DUP1 PUSH3 0x348 JUMPI PUSH1 0x7F DUP3 AND SWAP2 POP JUMPDEST PUSH1 0x20 DUP3 LT DUP2 EQ ISZERO PUSH3 0x35F JUMPI PUSH3 0x35E PUSH3 0x365 JUMP JUMPDEST JUMPDEST POP SWAP2 SWAP1 POP JUMP JUMPDEST PUSH32 0x4E487B7100000000000000000000000000000000000000000000000000000000 PUSH1 0x0 MSTORE PUSH1 0x22 PUSH1 0x4 MSTORE PUSH1 0x24 PUSH1 0x0 REVERT JUMPDEST PUSH2 0x5F91 DUP1 PUSH3 0x3A4 PUSH1 0x0 CODECOPY PUSH1 0x0 RETURN INVALID PUSH1 0x80 PUSH1 0x40 MSTORE CALLVALUE DUP1 ISZERO PUSH2 0x10 JUMPI PUSH1 0x0 DUP1 REVERT JUMPDEST POP PUSH1 0x4 CALLDATASIZE LT PUSH2 0x27F JUMPI PUSH1 0x0 CALLDATALOAD PUSH1 0xE0 SHR DUP1 PUSH4 0x715018A6 GT PUSH2 0x15C JUMPI DUP1 PUSH4 0xD31DD6B0 GT PUSH2 0xCE JUMPI DUP1 PUSH4 0xEABDD572 GT PUSH2 0x87 JUMPI DUP1 PUSH4 0xEABDD572 EQ PUSH2 0x77E JUMPI DUP1 PUSH4 0xED700374 EQ PUSH2 0x79A JUMPI DUP1 PUSH4 0xF0D25336 EQ PUSH2 0x7B8 JUMPI DUP1 PUSH4 0xF2FDE38B EQ PUSH2 0x7E8 JUMPI DUP1 PUSH4 0xF4B9FA75 EQ PUSH2 0x804 JUMPI DUP1 PUSH4 0xF516A2E6 EQ PUSH2 0x822 JUMPI PUSH2 0x27F JUMP JUMPDEST DUP1 PUSH4 0xD31DD6B0 EQ PUSH2 0x6BE JUMPI DUP1 PUSH4 0xD547CFB7 EQ PUSH2 0x6DA JUMPI DUP1 PUSH4 0xE35568CB EQ PUSH2 0x6F8 JUMPI DUP1 PUSH4 0xE7CD4A04 EQ PUSH2 0x716 JUMPI DUP1 PUSH4 0xE7D6EA4D EQ PUSH2 0x732 JUMPI DUP1 PUSH4 0xE985E9C5 EQ PUSH2 0x74E JUMPI PUSH2 0x27F JUMP JUMPDEST DUP1 PUSH4 0xA2CE325A GT PUSH2 0x120 JUMPI DUP1 PUSH4 0xA2CE325A EQ PUSH2 0x612 JUMPI DUP1 PUSH4 0xB4B2B18B EQ PUSH2 0x630 JUMPI DUP1 PUSH4 0xB88D4FDE EQ PUSH2 0x63A JUMPI DUP1 PUSH4 0xBF5C86E7 EQ PUSH2 0x656 JUMPI DUP1 PUSH4 0xC8494888 EQ PUSH2 0x672 JUMPI DUP1 PUSH4 0xC87B56DD EQ PUSH2 0x68E JUMPI PUSH2 0x27F JUMP JUMPDEST DUP1 PUSH4 0x715018A6 EQ PUSH2 0x592 JUMPI DUP1 PUSH4 0x7E1C0C09 EQ PUSH2 0x59C JUMPI DUP1 PUSH4 0x8DA5CB5B EQ PUSH2 0x5BA JUMPI DUP1 PUSH4 0x95D89B41 EQ PUSH2 0x5D8 JUMPI DUP1 PUSH4 0xA22CB465 EQ PUSH2 0x5F6 JUMPI PUSH2 0x27F JUMP JUMPDEST DUP1 PUSH4 0x30176E13 GT PUSH2 0x1F5 JUMPI DUP1 PUSH4 0x4A73D757 GT PUSH2 0x1B9 JUMPI DUP1 PUSH4 0x4A73D757 EQ PUSH2 0x486 JUMPI DUP1 PUSH4 0x4F6CCCE7 EQ PUSH2 0x4A2 JUMPI DUP1 PUSH4 0x5AB1A8FA EQ PUSH2 0x4D2 JUMPI DUP1 PUSH4 0x6352211E EQ PUSH2 0x502 JUMPI DUP1 PUSH4 0x706D42C9 EQ PUSH2 0x532 JUMPI DUP1 PUSH4 0x70A08231 EQ PUSH2 0x562 JUMPI PUSH2 0x27F JUMP JUMPDEST DUP1 PUSH4 0x30176E13 EQ PUSH2 0x3FA JUMPI DUP1 PUSH4 0x36710735 EQ PUSH2 0x416 JUMPI DUP1 PUSH4 0x3C440C0B EQ PUSH2 0x432 JUMPI DUP1 PUSH4 0x42842E0E EQ PUSH2 0x44E JUMPI DUP1 PUSH4 0x493143E4 EQ PUSH2 0x46A JUMPI PUSH2 0x27F JUMP JUMPDEST DUP1 PUSH4 0x18160DDD GT PUSH2 0x247 JUMPI DUP1 PUSH4 0x18160DDD EQ PUSH2 0x33A JUMPI DUP1 PUSH4 0x19709A9D EQ PUSH2 0x358 JUMPI DUP1 PUSH4 0x2042E5C2 EQ PUSH2 0x374 JUMPI DUP1 PUSH4 0x23B872DD EQ PUSH2 0x390 JUMPI DUP1 PUSH4 0x24B04905 EQ PUSH2 0x3AC JUMPI DUP1 PUSH4 0x25187924 EQ PUSH2 0x3CA JUMPI PUSH2 0x27F JUMP JUMPDEST DUP1 PUSH4 0x1FFC9A7 EQ PUSH2 0x284 JUMPI DUP1 PUSH4 0x6FDDE03 EQ PUSH2 0x2B4 JUMPI DUP1 PUSH4 0x81812FC EQ PUSH2 0x2D2 JUMPI DUP1 PUSH4 0x95EA7B3 EQ PUSH2 0x302 JUMPI DUP1 PUSH4 0x10430A42 EQ PUSH2 0x31E JUMPI JUMPDEST PUSH1 0x0 DUP1 REVERT JUMPDEST PUSH2 0x29E PUSH1 0x4 DUP1 CALLDATASIZE SUB DUP2 ADD SWAP1 PUSH2 0x299 SWAP2 SWAP1 PUSH2 0x41C0 JUMP JUMPDEST PUSH2 0x840 JUMP JUMPDEST PUSH1 0x40 MLOAD PUSH2 0x2AB SWAP2 SWAP1 PUSH2 0x4B36 JUMP JUMPDEST PUSH1 0x40 MLOAD DUP1 SWAP2 SUB SWAP1 RETURN JUMPDEST PUSH2 0x2BC PUSH2 0x922 JUMP JUMPDEST PUSH1 0x40 MLOAD PUSH2 0x2C9 SWAP2 SWAP1 PUSH2 0x4B87 JUMP JUMPDEST PUSH1 0x40 MLOAD DUP1 SWAP2 SUB SWAP1 RETURN JUMPDEST PUSH2 0x2EC PUSH1 0x4 DUP1 CALLDATASIZE SUB DUP2 ADD SWAP1 PUSH2 0x2E7 SWAP2 SWAP1 PUSH2 0x4390 JUMP JUMPDEST PUSH2 0x9B4 JUMP JUMPDEST PUSH1 0x40 MLOAD PUSH2 0x2F9 SWAP2 SWAP1 PUSH2 0x4A6F JUMP JUMPDEST PUSH1 0x40 MLOAD DUP1 SWAP2 SUB SWAP1 RETURN JUMPDEST PUSH2 0x31C PUSH1 0x4 DUP1 CALLDATASIZE SUB DUP2 ADD SWAP1 PUSH2 0x317 SWAP2 SWAP1 PUSH2 0x40DD JUMP JUMPDEST PUSH2 0xA39 JUMP JUMPDEST STOP JUMPDEST PUSH2 0x338 PUSH1 0x4 DUP1 CALLDATASIZE SUB DUP2 ADD SWAP1 PUSH2 0x333 SWAP2 SWAP1 PUSH2 0x43BD JUMP JUMPDEST PUSH2 0xB51 JUMP JUMPDEST STOP JUMPDEST PUSH2 0x342 PUSH2 0xC31 JUMP JUMPDEST PUSH1 0x40 MLOAD PUSH2 0x34F SWAP2 SWAP1 PUSH2 0x4FC9 JUMP JUMPDEST PUSH1 0x40 MLOAD DUP1 SWAP2 SUB SWAP1 RETURN JUMPDEST PUSH2 0x372 PUSH1 0x4 DUP1 CALLDATASIZE SUB DUP2 ADD SWAP1 PUSH2 0x36D SWAP2 SWAP1 PUSH2 0x3F5A JUMP JUMPDEST PUSH2 0xC45 JUMP JUMPDEST STOP JUMPDEST PUSH2 0x38E PUSH1 0x4 DUP1 CALLDATASIZE SUB DUP2 ADD SWAP1 PUSH2 0x389 SWAP2 SWAP1 PUSH2 0x3F5A JUMP JUMPDEST PUSH2 0xD05 JUMP JUMPDEST STOP JUMPDEST PUSH2 0x3AA PUSH1 0x4 DUP1 CALLDATASIZE SUB DUP2 ADD SWAP1 PUSH2 0x3A5 SWAP2 SWAP1 PUSH2 0x3FC7 JUMP JUMPDEST PUSH2 0xDDC JUMP JUMPDEST STOP JUMPDEST PUSH2 0x3B4 PUSH2 0xE3C JUMP JUMPDEST PUSH1 0x40 MLOAD PUSH2 0x3C1 SWAP2 SWAP1 PUSH2 0x4B6C JUMP JUMPDEST PUSH1 0x40 MLOAD DUP1 SWAP2 SUB SWAP1 RETURN JUMPDEST PUSH2 0x3E4 PUSH1 0x4 DUP1 CALLDATASIZE SUB DUP2 ADD SWAP1 PUSH2 0x3DF SWAP2 SWAP1 PUSH2 0x3F5A JUMP JUMPDEST PUSH2 0xE62 JUMP JUMPDEST PUSH1 0x40 MLOAD PUSH2 0x3F1 SWAP2 SWAP1 PUSH2 0x4FC9 JUMP JUMPDEST PUSH1 0x40 MLOAD DUP1 SWAP2 SUB SWAP1 RETURN JUMPDEST PUSH2 0x414 PUSH1 0x4 DUP1 CALLDATASIZE SUB DUP2 ADD SWAP1 PUSH2 0x40F SWAP2 SWAP1 PUSH2 0x4247 JUMP JUMPDEST PUSH2 0xE83 JUMP JUMPDEST STOP JUMPDEST PUSH2 0x430 PUSH1 0x4 DUP1 CALLDATASIZE SUB DUP2 ADD SWAP1 PUSH2 0x42B SWAP2 SWAP1 PUSH2 0x4166 JUMP JUMPDEST PUSH2 0xF6F JUMP JUMPDEST STOP JUMPDEST PUSH2 0x44C PUSH1 0x4 DUP1 CALLDATASIZE SUB DUP2 ADD SWAP1 PUSH2 0x447 SWAP2 SWAP1 PUSH2 0x4390 JUMP JUMPDEST PUSH2 0x1008 JUMP JUMPDEST STOP JUMPDEST PUSH2 0x468 PUSH1 0x4 DUP1 CALLDATASIZE SUB DUP2 ADD SWAP1 PUSH2 0x463 SWAP2 SWAP1 PUSH2 0x3FC7 JUMP JUMPDEST PUSH2 0x108E JUMP JUMPDEST STOP JUMPDEST PUSH2 0x484 PUSH1 0x4 DUP1 CALLDATASIZE SUB DUP2 ADD SWAP1 PUSH2 0x47F SWAP2 SWAP1 PUSH2 0x4390 JUMP JUMPDEST PUSH2 0x10AE JUMP JUMPDEST STOP JUMPDEST PUSH2 0x4A0 PUSH1 0x4 DUP1 CALLDATASIZE SUB DUP2 ADD SWAP1 PUSH2 0x49B SWAP2 SWAP1 PUSH2 0x421A JUMP JUMPDEST PUSH2 0x1134 JUMP JUMPDEST STOP JUMPDEST PUSH2 0x4BC PUSH1 0x4 DUP1 CALLDATASIZE SUB DUP2 ADD SWAP1 PUSH2 0x4B7 SWAP2 SWAP1 PUSH2 0x4390 JUMP JUMPDEST PUSH2 0x11F4 JUMP JUMPDEST PUSH1 0x40 MLOAD PUSH2 0x4C9 SWAP2 SWAP1 PUSH2 0x4FE4 JUMP JUMPDEST PUSH1 0x40 MLOAD DUP1 SWAP2 SUB SWAP1 RETURN JUMPDEST PUSH2 0x4EC PUSH1 0x4 DUP1 CALLDATASIZE SUB DUP2 ADD SWAP1 PUSH2 0x4E7 SWAP2 SWAP1 PUSH2 0x3F5A JUMP JUMPDEST PUSH2 0x1246 JUMP JUMPDEST PUSH1 0x40 MLOAD PUSH2 0x4F9 SWAP2 SWAP1 PUSH2 0x4B36 JUMP JUMPDEST PUSH1 0x40 MLOAD DUP1 SWAP2 SUB SWAP1 RETURN JUMPDEST PUSH2 0x51C PUSH1 0x4 DUP1 CALLDATASIZE SUB DUP2 ADD SWAP1 PUSH2 0x517 SWAP2 SWAP1 PUSH2 0x4390 JUMP JUMPDEST PUSH2 0x129C JUMP JUMPDEST PUSH1 0x40 MLOAD PUSH2 0x529 SWAP2 SWAP1 PUSH2 0x4A6F JUMP JUMPDEST PUSH1 0x40 MLOAD DUP1 SWAP2 SUB SWAP1 RETURN JUMPDEST PUSH2 0x54C PUSH1 0x4 DUP1 CALLDATASIZE SUB DUP2 ADD SWAP1 PUSH2 0x547 SWAP2 SWAP1 PUSH2 0x4310 JUMP JUMPDEST PUSH2 0x134E JUMP JUMPDEST PUSH1 0x40 MLOAD PUSH2 0x559 SWAP2 SWAP1 PUSH2 0x4FC9 JUMP JUMPDEST PUSH1 0x40 MLOAD DUP1 SWAP2 SUB SWAP1 RETURN JUMPDEST PUSH2 0x57C PUSH1 0x4 DUP1 CALLDATASIZE SUB DUP2 ADD SWAP1 PUSH2 0x577 SWAP2 SWAP1 PUSH2 0x3F5A JUMP JUMPDEST PUSH2 0x13A7 JUMP JUMPDEST PUSH1 0x40 MLOAD PUSH2 0x589 SWAP2 SWAP1 PUSH2 0x4FE4 JUMP JUMPDEST PUSH1 0x40 MLOAD DUP1 SWAP2 SUB SWAP1 RETURN JUMPDEST PUSH2 0x59A PUSH2 0x145F JUMP JUMPDEST STOP JUMPDEST PUSH2 0x5A4 PUSH2 0x14E7 JUMP JUMPDEST PUSH1 0x40 MLOAD PUSH2 0x5B1 SWAP2 SWAP1 PUSH2 0x4FC9 JUMP JUMPDEST PUSH1 0x40 MLOAD DUP1 SWAP2 SUB SWAP1 RETURN JUMPDEST PUSH2 0x5C2 PUSH2 0x14FB JUMP JUMPDEST PUSH1 0x40 MLOAD PUSH2 0x5CF SWAP2 SWAP1 PUSH2 0x4A6F JUMP JUMPDEST PUSH1 0x40 MLOAD DUP1 SWAP2 SUB SWAP1 RETURN JUMPDEST PUSH2 0x5E0 PUSH2 0x1524 JUMP JUMPDEST PUSH1 0x40 MLOAD PUSH2 0x5ED SWAP2 SWAP1 PUSH2 0x4B87 JUMP JUMPDEST PUSH1 0x40 MLOAD DUP1 SWAP2 SUB SWAP1 RETURN JUMPDEST PUSH2 0x610 PUSH1 0x4 DUP1 CALLDATASIZE SUB DUP2 ADD SWAP1 PUSH2 0x60B SWAP2 SWAP1 PUSH2 0x409D JUMP JUMPDEST PUSH2 0x15B6 JUMP JUMPDEST STOP JUMPDEST PUSH2 0x61A PUSH2 0x1737 JUMP JUMPDEST PUSH1 0x40 MLOAD PUSH2 0x627 SWAP2 SWAP1 PUSH2 0x4FE4 JUMP JUMPDEST PUSH1 0x40 MLOAD DUP1 SWAP2 SUB SWAP1 RETURN JUMPDEST PUSH2 0x638 PUSH2 0x173D JUMP JUMPDEST STOP JUMPDEST PUSH2 0x654 PUSH1 0x4 DUP1 CALLDATASIZE SUB DUP2 ADD SWAP1 PUSH2 0x64F SWAP2 SWAP1 PUSH2 0x401A JUMP JUMPDEST PUSH2 0x17D6 JUMP JUMPDEST STOP JUMPDEST PUSH2 0x670 PUSH1 0x4 DUP1 CALLDATASIZE SUB DUP2 ADD SWAP1 PUSH2 0x66B SWAP2 SWAP1 PUSH2 0x42BD JUMP JUMPDEST PUSH2 0x1838 JUMP JUMPDEST STOP JUMPDEST PUSH2 0x68C PUSH1 0x4 DUP1 CALLDATASIZE SUB DUP2 ADD SWAP1 PUSH2 0x687 SWAP2 SWAP1 PUSH2 0x4290 JUMP JUMPDEST PUSH2 0x21DB JUMP JUMPDEST STOP JUMPDEST PUSH2 0x6A8 PUSH1 0x4 DUP1 CALLDATASIZE SUB DUP2 ADD SWAP1 PUSH2 0x6A3 SWAP2 SWAP1 PUSH2 0x4390 JUMP JUMPDEST PUSH2 0x2265 JUMP JUMPDEST PUSH1 0x40 MLOAD PUSH2 0x6B5 SWAP2 SWAP1 PUSH2 0x4B87 JUMP JUMPDEST PUSH1 0x40 MLOAD DUP1 SWAP2 SUB SWAP1 RETURN JUMPDEST PUSH2 0x6D8 PUSH1 0x4 DUP1 CALLDATASIZE SUB DUP2 ADD SWAP1 PUSH2 0x6D3 SWAP2 SWAP1 PUSH2 0x4290 JUMP JUMPDEST PUSH2 0x230C JUMP JUMPDEST STOP JUMPDEST PUSH2 0x6E2 PUSH2 0x23FE JUMP JUMPDEST PUSH1 0x40 MLOAD PUSH2 0x6EF SWAP2 SWAP1 PUSH2 0x4B87 JUMP JUMPDEST PUSH1 0x40 MLOAD DUP1 SWAP2 SUB SWAP1 RETURN JUMPDEST PUSH2 0x700 PUSH2 0x2490 JUMP JUMPDEST PUSH1 0x40 MLOAD PUSH2 0x70D SWAP2 SWAP1 PUSH2 0x4FC9 JUMP JUMPDEST PUSH1 0x40 MLOAD DUP1 SWAP2 SUB SWAP1 RETURN JUMPDEST PUSH2 0x730 PUSH1 0x4 DUP1 CALLDATASIZE SUB DUP2 ADD SWAP1 PUSH2 0x72B SWAP2 SWAP1 PUSH2 0x3F5A JUMP JUMPDEST PUSH2 0x24C3 JUMP JUMPDEST STOP JUMPDEST PUSH2 0x74C PUSH1 0x4 DUP1 CALLDATASIZE SUB DUP2 ADD SWAP1 PUSH2 0x747 SWAP2 SWAP1 PUSH2 0x4350 JUMP JUMPDEST PUSH2 0x259A JUMP JUMPDEST STOP JUMPDEST PUSH2 0x768 PUSH1 0x4 DUP1 CALLDATASIZE SUB DUP2 ADD SWAP1 PUSH2 0x763 SWAP2 SWAP1 PUSH2 0x3F87 JUMP JUMPDEST PUSH2 0x2B44 JUMP JUMPDEST PUSH1 0x40 MLOAD PUSH2 0x775 SWAP2 SWAP1 PUSH2 0x4B36 JUMP JUMPDEST PUSH1 0x40 MLOAD DUP1 SWAP2 SUB SWAP1 RETURN JUMPDEST PUSH2 0x798 PUSH1 0x4 DUP1 CALLDATASIZE SUB DUP2 ADD SWAP1 PUSH2 0x793 SWAP2 SWAP1 PUSH2 0x40DD JUMP JUMPDEST PUSH2 0x2BD8 JUMP JUMPDEST STOP JUMPDEST PUSH2 0x7A2 PUSH2 0x2D08 JUMP JUMPDEST PUSH1 0x40 MLOAD PUSH2 0x7AF SWAP2 SWAP1 PUSH2 0x4FFF JUMP JUMPDEST PUSH1 0x40 MLOAD DUP1 SWAP2 SUB SWAP1 RETURN JUMPDEST PUSH2 0x7D2 PUSH1 0x4 DUP1 CALLDATASIZE SUB DUP2 ADD SWAP1 PUSH2 0x7CD SWAP2 SWAP1 PUSH2 0x3F87 JUMP JUMPDEST PUSH2 0x2D1B JUMP JUMPDEST PUSH1 0x40 MLOAD PUSH2 0x7DF SWAP2 SWAP1 PUSH2 0x4FFF JUMP JUMPDEST PUSH1 0x40 MLOAD DUP1 SWAP2 SUB SWAP1 RETURN JUMPDEST PUSH2 0x802 PUSH1 0x4 DUP1 CALLDATASIZE SUB DUP2 ADD SWAP1 PUSH2 0x7FD SWAP2 SWAP1 PUSH2 0x3F5A JUMP JUMPDEST PUSH2 0x2D4A JUMP JUMPDEST STOP JUMPDEST PUSH2 0x80C PUSH2 0x2E42 JUMP JUMPDEST PUSH1 0x40 MLOAD PUSH2 0x819 SWAP2 SWAP1 PUSH2 0x4B51 JUMP JUMPDEST PUSH1 0x40 MLOAD DUP1 SWAP2 SUB SWAP1 RETURN JUMPDEST PUSH2 0x82A PUSH2 0x2E68 JUMP JUMPDEST PUSH1 0x40 MLOAD PUSH2 0x837 SWAP2 SWAP1 PUSH2 0x4FE4 JUMP JUMPDEST PUSH1 0x40 MLOAD DUP1 SWAP2 SUB SWAP1 RETURN JUMPDEST PUSH1 0x0 PUSH32 0x80AC58CD00000000000000000000000000000000000000000000000000000000 PUSH28 0xFFFFFFFFFFFFFFFFFFFFFFFFFFFFFFFFFFFFFFFFFFFFFFFFFFFFFFFF NOT AND DUP3 PUSH28 0xFFFFFFFFFFFFFFFFFFFFFFFFFFFFFFFFFFFFFFFFFFFFFFFFFFFFFFFF NOT AND EQ DUP1 PUSH2 0x90B JUMPI POP PUSH32 0x5B5E139F00000000000000000000000000000000000000000000000000000000 PUSH28 0xFFFFFFFFFFFFFFFFFFFFFFFFFFFFFFFFFFFFFFFFFFFFFFFFFFFFFFFF NOT AND DUP3 PUSH28 0xFFFFFFFFFFFFFFFFFFFFFFFFFFFFFFFFFFFFFFFFFFFFFFFFFFFFFFFF NOT AND EQ JUMPDEST DUP1 PUSH2 0x91B JUMPI POP PUSH2 0x91A DUP3 PUSH2 0x2E6E JUMP JUMPDEST JUMPDEST SWAP1 POP SWAP2 SWAP1 POP JUMP JUMPDEST PUSH1 0x60 PUSH1 0x1 DUP1 SLOAD PUSH2 0x931 SWAP1 PUSH2 0x5401 JUMP JUMPDEST DUP1 PUSH1 0x1F ADD PUSH1 0x20 DUP1 SWAP2 DIV MUL PUSH1 0x20 ADD PUSH1 0x40 MLOAD SWAP1 DUP2 ADD PUSH1 0x40 MSTORE DUP1 SWAP3 SWAP2 SWAP1 DUP2 DUP2 MSTORE PUSH1 0x20 ADD DUP3 DUP1 SLOAD PUSH2 0x95D SWAP1 PUSH2 0x5401 JUMP JUMPDEST DUP1 ISZERO PUSH2 0x9AA JUMPI DUP1 PUSH1 0x1F LT PUSH2 0x97F JUMPI PUSH2 0x100 DUP1 DUP4 SLOAD DIV MUL DUP4 MSTORE SWAP2 PUSH1 0x20 ADD SWAP2 PUSH2 0x9AA JUMP JUMPDEST DUP3 ADD SWAP2 SWAP1 PUSH1 0x0 MSTORE PUSH1 0x20 PUSH1 0x0 KECCAK256 SWAP1 JUMPDEST DUP2 SLOAD DUP2 MSTORE SWAP1 PUSH1 0x1 ADD SWAP1 PUSH1 0x20 ADD DUP1 DUP4 GT PUSH2 0x98D JUMPI DUP3 SWAP1 SUB PUSH1 0x1F AND DUP3 ADD SWAP2 JUMPDEST POP POP POP POP POP SWAP1 POP SWAP1 JUMP JUMPDEST PUSH1 0x0 PUSH2 0x9BF DUP3 PUSH2 0x2ED8 JUMP JUMPDEST PUSH2 0x9FE JUMPI PUSH1 0x40 MLOAD PUSH32 0x8C379A000000000000000000000000000000000000000000000000000000000 DUP2 MSTORE PUSH1 0x4 ADD PUSH2 0x9F5 SWAP1 PUSH2 0x4E49 JUMP JUMPDEST PUSH1 0x40 MLOAD DUP1 SWAP2 SUB SWAP1 REVERT JUMPDEST PUSH1 0x5 PUSH1 0x0 DUP4 DUP2 MSTORE PUSH1 0x20 ADD SWAP1 DUP2 MSTORE PUSH1 0x20 ADD PUSH1 0x0 KECCAK256 PUSH1 0x0 SWAP1 SLOAD SWAP1 PUSH2 0x100 EXP SWAP1 DIV PUSH20 0xFFFFFFFFFFFFFFFFFFFFFFFFFFFFFFFFFFFFFFFF AND SWAP1 POP SWAP2 SWAP1 POP JUMP JUMPDEST PUSH1 0x0 PUSH2 0xA44 DUP3 PUSH2 0x129C JUMP JUMPDEST SWAP1 POP DUP1 PUSH20 0xFFFFFFFFFFFFFFFFFFFFFFFFFFFFFFFFFFFFFFFF AND DUP4 PUSH20 0xFFFFFFFFFFFFFFFFFFFFFFFFFFFFFFFFFFFFFFFF AND EQ ISZERO PUSH2 0xAB5 JUMPI PUSH1 0x40 MLOAD PUSH32 0x8C379A000000000000000000000000000000000000000000000000000000000 DUP2 MSTORE PUSH1 0x4 ADD PUSH2 0xAAC SWAP1 PUSH2 0x4EE9 JUMP JUMPDEST PUSH1 0x40 MLOAD DUP1 SWAP2 SUB SWAP1 REVERT JUMPDEST DUP1 PUSH20 0xFFFFFFFFFFFFFFFFFFFFFFFFFFFFFFFFFFFFFFFF AND PUSH2 0xAD4 PUSH2 0x2F44 JUMP JUMPDEST PUSH20 0xFFFFFFFFFFFFFFFFFFFFFFFFFFFFFFFFFFFFFFFF AND EQ DUP1 PUSH2 0xB03 JUMPI POP PUSH2 0xB02 DUP2 PUSH2 0xAFD PUSH2 0x2F44 JUMP JUMPDEST PUSH2 0x2B44 JUMP JUMPDEST JUMPDEST PUSH2 0xB42 JUMPI PUSH1 0x40 MLOAD PUSH32 0x8C379A000000000000000000000000000000000000000000000000000000000 DUP2 MSTORE PUSH1 0x4 ADD PUSH2 0xB39 SWAP1 PUSH2 0x4D29 JUMP JUMPDEST PUSH1 0x40 MLOAD DUP1 SWAP2 SUB SWAP1 REVERT JUMPDEST PUSH2 0xB4C DUP4 DUP4 PUSH2 0x2F4C JUMP JUMPDEST POP POP POP JUMP JUMPDEST PUSH2 0xB59 PUSH2 0x2F44 JUMP JUMPDEST PUSH20 0xFFFFFFFFFFFFFFFFFFFFFFFFFFFFFFFFFFFFFFFF AND PUSH2 0xB77 PUSH2 0x14FB JUMP JUMPDEST PUSH20 0xFFFFFFFFFFFFFFFFFFFFFFFFFFFFFFFFFFFFFFFF AND EQ PUSH2 0xBCD JUMPI PUSH1 0x40 MLOAD PUSH32 0x8C379A000000000000000000000000000000000000000000000000000000000 DUP2 MSTORE PUSH1 0x4 ADD PUSH2 0xBC4 SWAP1 PUSH2 0x4E69 JUMP JUMPDEST PUSH1 0x40 MLOAD DUP1 SWAP2 SUB SWAP1 REVERT JUMPDEST PUSH1 0x0 DUP2 PUSH1 0xFF AND GT PUSH2 0xC13 JUMPI PUSH1 0x40 MLOAD PUSH32 0x8C379A000000000000000000000000000000000000000000000000000000000 DUP2 MSTORE PUSH1 0x4 ADD PUSH2 0xC0A SWAP1 PUSH2 0x4BA9 JUMP JUMPDEST PUSH1 0x40 MLOAD DUP1 SWAP2 SUB SWAP1 REVERT JUMPDEST DUP1 PUSH1 0xA PUSH1 0x0 PUSH2 0x100 EXP DUP2 SLOAD DUP2 PUSH1 0xFF MUL NOT AND SWAP1 DUP4 PUSH1 0xFF AND MUL OR SWAP1 SSTORE POP POP JUMP JUMPDEST PUSH1 0x7 PUSH1 0x2 SWAP1 SLOAD SWAP1 PUSH2 0x100 EXP SWAP1 DIV PUSH2 0xFFFF AND DUP2 JUMP JUMPDEST PUSH2 0xC4D PUSH2 0x2F44 JUMP JUMPDEST PUSH20 0xFFFFFFFFFFFFFFFFFFFFFFFFFFFFFFFFFFFFFFFF AND PUSH2 0xC6B PUSH2 0x14FB JUMP JUMPDEST PUSH20 0xFFFFFFFFFFFFFFFFFFFFFFFFFFFFFFFFFFFFFFFF AND EQ PUSH2 0xCC1 JUMPI PUSH1 0x40 MLOAD PUSH32 0x8C379A000000000000000000000000000000000000000000000000000000000 DUP2 MSTORE PUSH1 0x4 ADD PUSH2 0xCB8 SWAP1 PUSH2 0x4E69 JUMP JUMPDEST PUSH1 0x40 MLOAD DUP1 SWAP2 SUB SWAP1 REVERT JUMPDEST DUP1 PUSH1 0x12 PUSH1 0x0 PUSH2 0x100 EXP DUP2 SLOAD DUP2 PUSH20 0xFFFFFFFFFFFFFFFFFFFFFFFFFFFFFFFFFFFFFFFF MUL NOT AND SWAP1 DUP4 PUSH20 0xFFFFFFFFFFFFFFFFFFFFFFFFFFFFFFFFFFFFFFFF AND MUL OR SWAP1 SSTORE POP POP JUMP JUMPDEST PUSH2 0xD0D PUSH2 0x2F44 JUMP JUMPDEST PUSH20 0xFFFFFFFFFFFFFFFFFFFFFFFFFFFFFFFFFFFFFFFF AND PUSH2 0xD2B PUSH2 0x14FB JUMP JUMPDEST PUSH20 0xFFFFFFFFFFFFFFFFFFFFFFFFFFFFFFFFFFFFFFFF AND EQ PUSH2 0xD81 JUMPI PUSH1 0x40 MLOAD PUSH32 0x8C379A000000000000000000000000000000000000000000000000000000000 DUP2 MSTORE PUSH1 0x4 ADD PUSH2 0xD78 SWAP1 PUSH2 0x4E69 JUMP JUMPDEST PUSH1 0x40 MLOAD DUP1 SWAP2 SUB SWAP1 REVERT JUMPDEST PUSH1 0x0 PUSH1 0x11 PUSH1 0x0 DUP4 PUSH20 0xFFFFFFFFFFFFFFFFFFFFFFFFFFFFFFFFFFFFFFFF AND PUSH20 0xFFFFFFFFFFFFFFFFFFFFFFFFFFFFFFFFFFFFFFFF AND DUP2 MSTORE PUSH1 0x20 ADD SWAP1 DUP2 MSTORE PUSH1 0x20 ADD PUSH1 0x0 KECCAK256 PUSH1 0x0 PUSH2 0x100 EXP DUP2 SLOAD DUP2 PUSH1 0xFF MUL NOT AND SWAP1 DUP4 ISZERO ISZERO MUL OR SWAP1 SSTORE POP POP JUMP JUMPDEST PUSH2 0xDED PUSH2 0xDE7 PUSH2 0x2F44 JUMP JUMPDEST DUP3 PUSH2 0x3005 JUMP JUMPDEST PUSH2 0xE2C JUMPI PUSH1 0x40 MLOAD PUSH32 0x8C379A000000000000000000000000000000000000000000000000000000000 DUP2 MSTORE PUSH1 0x4 ADD PUSH2 0xE23 SWAP1 PUSH2 0x4F29 JUMP JUMPDEST PUSH1 0x40 MLOAD DUP1 SWAP2 SUB SWAP1 REVERT JUMPDEST PUSH2 0xE37 DUP4 DUP4 DUP4 PUSH2 0x30E3 JUMP JUMPDEST POP POP POP JUMP JUMPDEST PUSH1 0x13 PUSH1 0x0 SWAP1 SLOAD SWAP1 PUSH2 0x100 EXP SWAP1 DIV PUSH20 0xFFFFFFFFFFFFFFFFFFFFFFFFFFFFFFFFFFFFFFFF AND DUP2 JUMP JUMPDEST PUSH1 0xE PUSH1 0x20 MSTORE DUP1 PUSH1 0x0 MSTORE PUSH1 0x40 PUSH1 0x0 KECCAK256 PUSH1 0x0 SWAP2 POP SLOAD SWAP1 PUSH2 0x100 EXP SWAP1 DIV PUSH2 0xFFFF AND DUP2 JUMP JUMPDEST PUSH2 0xE8B PUSH2 0x2F44 JUMP JUMPDEST PUSH20 0xFFFFFFFFFFFFFFFFFFFFFFFFFFFFFFFFFFFFFFFF AND PUSH2 0xEA9 PUSH2 0x14FB JUMP JUMPDEST PUSH20 0xFFFFFFFFFFFFFFFFFFFFFFFFFFFFFFFFFFFFFFFF AND EQ PUSH2 0xEFF JUMPI PUSH1 0x40 MLOAD PUSH32 0x8C379A000000000000000000000000000000000000000000000000000000000 DUP2 MSTORE PUSH1 0x4 ADD PUSH2 0xEF6 SWAP1 PUSH2 0x4E69 JUMP JUMPDEST PUSH1 0x40 MLOAD DUP1 SWAP2 SUB SWAP1 REVERT JUMPDEST PUSH1 0x0 ISZERO ISZERO PUSH1 0xD PUSH1 0x0 SWAP1 SLOAD SWAP1 PUSH2 0x100 EXP SWAP1 DIV PUSH1 0xFF AND ISZERO ISZERO EQ PUSH2 0xF55 JUMPI PUSH1 0x40 MLOAD PUSH32 0x8C379A000000000000000000000000000000000000000000000000000000000 DUP2 MSTORE PUSH1 0x4 ADD PUSH2 0xF4C SWAP1 PUSH2 0x4CE9 JUMP JUMPDEST PUSH1 0x40 MLOAD DUP1 SWAP2 SUB SWAP1 REVERT JUMPDEST DUP1 PUSH1 0xC SWAP1 DUP1 MLOAD SWAP1 PUSH1 0x20 ADD SWAP1 PUSH2 0xF6B SWAP3 SWAP2 SWAP1 PUSH2 0x3C67 JUMP JUMPDEST POP POP JUMP JUMPDEST PUSH2 0xF77 PUSH2 0x2F44 JUMP JUMPDEST PUSH20 0xFFFFFFFFFFFFFFFFFFFFFFFFFFFFFFFFFFFFFFFF AND PUSH2 0xF95 PUSH2 0x14FB JUMP JUMPDEST PUSH20 0xFFFFFFFFFFFFFFFFFFFFFFFFFFFFFFFFFFFFFFFF AND EQ PUSH2 0xFEB JUMPI PUSH1 0x40 MLOAD PUSH32 0x8C379A000000000000000000000000000000000000000000000000000000000 DUP2 MSTORE PUSH1 0x4 ADD PUSH2 0xFE2 SWAP1 PUSH2 0x4E69 JUMP JUMPDEST PUSH1 0x40 MLOAD DUP1 SWAP2 SUB SWAP1 REVERT JUMPDEST DUP1 PUSH1 0xD PUSH1 0x1 PUSH2 0x100 EXP DUP2 SLOAD DUP2 PUSH1 0xFF MUL NOT AND SWAP1 DUP4 ISZERO ISZERO MUL OR SWAP1 SSTORE POP POP JUMP JUMPDEST PUSH2 0x1010 PUSH2 0x2F44 JUMP JUMPDEST PUSH20 0xFFFFFFFFFFFFFFFFFFFFFFFFFFFFFFFFFFFFFFFF AND PUSH2 0x102E PUSH2 0x14FB JUMP JUMPDEST PUSH20 0xFFFFFFFFFFFFFFFFFFFFFFFFFFFFFFFFFFFFFFFF AND EQ PUSH2 0x1084 JUMPI PUSH1 0x40 MLOAD PUSH32 0x8C379A000000000000000000000000000000000000000000000000000000000 DUP2 MSTORE PUSH1 0x4 ADD PUSH2 0x107B SWAP1 PUSH2 0x4E69 JUMP JUMPDEST PUSH1 0x40 MLOAD DUP1 SWAP2 SUB SWAP1 REVERT JUMPDEST DUP1 PUSH1 0x9 DUP2 SWAP1 SSTORE POP POP JUMP JUMPDEST PUSH2 0x10A9 DUP4 DUP4 DUP4 PUSH1 0x40 MLOAD DUP1 PUSH1 0x20 ADD PUSH1 0x40 MSTORE DUP1 PUSH1 0x0 DUP2 MSTORE POP PUSH2 0x17D6 JUMP JUMPDEST POP POP POP JUMP JUMPDEST PUSH2 0x10B6 PUSH2 0x2F44 JUMP JUMPDEST PUSH20 0xFFFFFFFFFFFFFFFFFFFFFFFFFFFFFFFFFFFFFFFF AND PUSH2 0x10D4 PUSH2 0x14FB JUMP JUMPDEST PUSH20 0xFFFFFFFFFFFFFFFFFFFFFFFFFFFFFFFFFFFFFFFF AND EQ PUSH2 0x112A JUMPI PUSH1 0x40 MLOAD PUSH32 0x8C379A000000000000000000000000000000000000000000000000000000000 DUP2 MSTORE PUSH1 0x4 ADD PUSH2 0x1121 SWAP1 PUSH2 0x4E69 JUMP JUMPDEST PUSH1 0x40 MLOAD DUP1 SWAP2 SUB SWAP1 REVERT JUMPDEST DUP1 PUSH1 0xB DUP2 SWAP1 SSTORE POP POP JUMP JUMPDEST PUSH2 0x113C PUSH2 0x2F44 JUMP JUMPDEST PUSH20 0xFFFFFFFFFFFFFFFFFFFFFFFFFFFFFFFFFFFFFFFF AND PUSH2 0x115A PUSH2 0x14FB JUMP JUMPDEST PUSH20 0xFFFFFFFFFFFFFFFFFFFFFFFFFFFFFFFFFFFFFFFF AND EQ PUSH2 0x11B0 JUMPI PUSH1 0x40 MLOAD PUSH32 0x8C379A000000000000000000000000000000000000000000000000000000000 DUP2 MSTORE PUSH1 0x4 ADD PUSH2 0x11A7 SWAP1 PUSH2 0x4E69 JUMP JUMPDEST PUSH1 0x40 MLOAD DUP1 SWAP2 SUB SWAP1 REVERT JUMPDEST DUP1 PUSH1 0x13 PUSH1 0x0 PUSH2 0x100 EXP DUP2 SLOAD DUP2 PUSH20 0xFFFFFFFFFFFFFFFFFFFFFFFFFFFFFFFFFFFFFFFF MUL NOT AND SWAP1 DUP4 PUSH20 0xFFFFFFFFFFFFFFFFFFFFFFFFFFFFFFFFFFFFFFFF AND MUL OR SWAP1 SSTORE POP POP JUMP JUMPDEST PUSH1 0x0 PUSH2 0x11FF DUP3 PUSH2 0x2ED8 JUMP JUMPDEST PUSH2 0x123E JUMPI PUSH1 0x40 MLOAD PUSH32 0x8C379A000000000000000000000000000000000000000000000000000000000 DUP2 MSTORE PUSH1 0x4 ADD PUSH2 0x1235 SWAP1 PUSH2 0x4CC9 JUMP JUMPDEST PUSH1 0x40 MLOAD DUP1 SWAP2 SUB SWAP1 REVERT JUMPDEST DUP2 SWAP1 POP SWAP2 SWAP1 POP JUMP JUMPDEST PUSH1 0x0 PUSH1 0x11 PUSH1 0x0 DUP4 PUSH20 0xFFFFFFFFFFFFFFFFFFFFFFFFFFFFFFFFFFFFFFFF AND PUSH20 0xFFFFFFFFFFFFFFFFFFFFFFFFFFFFFFFFFFFFFFFF AND DUP2 MSTORE PUSH1 0x20 ADD SWAP1 DUP2 MSTORE PUSH1 0x20 ADD PUSH1 0x0 KECCAK256 PUSH1 0x0 SWAP1 SLOAD SWAP1 PUSH2 0x100 EXP SWAP1 DIV PUSH1 0xFF AND SWAP1 POP SWAP2 SWAP1 POP JUMP JUMPDEST PUSH1 0x0 DUP1 PUSH1 0x3 PUSH1 0x0 DUP5 DUP2 MSTORE PUSH1 0x20 ADD SWAP1 DUP2 MSTORE PUSH1 0x20 ADD PUSH1 0x0 KECCAK256 PUSH1 0x0 SWAP1 SLOAD SWAP1 PUSH2 0x100 EXP SWAP1 DIV PUSH20 0xFFFFFFFFFFFFFFFFFFFFFFFFFFFFFFFFFFFFFFFF AND SWAP1 POP PUSH1 0x0 PUSH20 0xFFFFFFFFFFFFFFFFFFFFFFFFFFFFFFFFFFFFFFFF AND DUP2 PUSH20 0xFFFFFFFFFFFFFFFFFFFFFFFFFFFFFFFFFFFFFFFF AND EQ ISZERO PUSH2 0x1345 JUMPI PUSH1 0x40 MLOAD PUSH32 0x8C379A000000000000000000000000000000000000000000000000000000000 DUP2 MSTORE PUSH1 0x4 ADD PUSH2 0x133C SWAP1 PUSH2 0x4D89 JUMP JUMPDEST PUSH1 0x40 MLOAD DUP1 SWAP2 SUB SWAP1 REVERT JUMPDEST DUP1 SWAP2 POP POP SWAP2 SWAP1 POP JUMP JUMPDEST PUSH1 0x0 DUP1 DUP3 PUSH1 0x1 NUMBER PUSH2 0x135F SWAP2 SWAP1 PUSH2 0x5286 JUMP JUMPDEST BLOCKHASH COINBASE DIFFICULTY CALLER PUSH1 0x40 MLOAD PUSH1 0x20 ADD PUSH2 0x1377 SWAP6 SWAP5 SWAP4 SWAP3 SWAP2 SWAP1 PUSH2 0x4A10 JUMP JUMPDEST PUSH1 0x40 MLOAD PUSH1 0x20 DUP2 DUP4 SUB SUB DUP2 MSTORE SWAP1 PUSH1 0x40 MSTORE DUP1 MLOAD SWAP1 PUSH1 0x20 ADD KECCAK256 PUSH1 0x0 SHR SWAP1 POP DUP4 DUP2 PUSH2 0x139E SWAP2 SWAP1 PUSH2 0x5534 JUMP JUMPDEST SWAP2 POP POP SWAP3 SWAP2 POP POP JUMP JUMPDEST PUSH1 0x0 DUP1 PUSH20 0xFFFFFFFFFFFFFFFFFFFFFFFFFFFFFFFFFFFFFFFF AND DUP3 PUSH20 0xFFFFFFFFFFFFFFFFFFFFFFFFFFFFFFFFFFFFFFFF AND EQ ISZERO PUSH2 0x1418 JUMPI PUSH1 0x40 MLOAD PUSH32 0x8C379A000000000000000000000000000000000000000000000000000000000 DUP2 MSTORE PUSH1 0x4 ADD PUSH2 0x140F SWAP1 PUSH2 0x4D69 JUMP JUMPDEST PUSH1 0x40 MLOAD DUP1 SWAP2 SUB SWAP1 REVERT JUMPDEST PUSH1 0x4 PUSH1 0x0 DUP4 PUSH20 0xFFFFFFFFFFFFFFFFFFFFFFFFFFFFFFFFFFFFFFFF AND PUSH20 0xFFFFFFFFFFFFFFFFFFFFFFFFFFFFFFFFFFFFFFFF AND DUP2 MSTORE PUSH1 0x20 ADD SWAP1 DUP2 MSTORE PUSH1 0x20 ADD PUSH1 0x0 KECCAK256 SLOAD SWAP1 POP SWAP2 SWAP1 POP JUMP JUMPDEST PUSH2 0x1467 PUSH2 0x2F44 JUMP JUMPDEST PUSH20 0xFFFFFFFFFFFFFFFFFFFFFFFFFFFFFFFFFFFFFFFF AND PUSH2 0x1485 PUSH2 0x14FB JUMP JUMPDEST PUSH20 0xFFFFFFFFFFFFFFFFFFFFFFFFFFFFFFFFFFFFFFFF AND EQ PUSH2 0x14DB JUMPI PUSH1 0x40 MLOAD PUSH32 0x8C379A000000000000000000000000000000000000000000000000000000000 DUP2 MSTORE PUSH1 0x4 ADD PUSH2 0x14D2 SWAP1 PUSH2 0x4E69 JUMP JUMPDEST PUSH1 0x40 MLOAD DUP1 SWAP2 SUB SWAP1 REVERT JUMPDEST PUSH2 0x14E5 PUSH1 0x0 PUSH2 0x333F JUMP JUMPDEST JUMP JUMPDEST PUSH1 0x7 PUSH1 0x0 SWAP1 SLOAD SWAP1 PUSH2 0x100 EXP SWAP1 DIV PUSH2 0xFFFF AND DUP2 JUMP JUMPDEST PUSH1 0x0 DUP1 PUSH1 0x0 SWAP1 SLOAD SWAP1 PUSH2 0x100 EXP SWAP1 DIV PUSH20 0xFFFFFFFFFFFFFFFFFFFFFFFFFFFFFFFFFFFFFFFF AND SWAP1 POP SWAP1 JUMP JUMPDEST PUSH1 0x60 PUSH1 0x2 DUP1 SLOAD PUSH2 0x1533 SWAP1 PUSH2 0x5401 JUMP JUMPDEST DUP1 PUSH1 0x1F ADD PUSH1 0x20 DUP1 SWAP2 DIV MUL PUSH1 0x20 ADD PUSH1 0x40 MLOAD SWAP1 DUP2 ADD PUSH1 0x40 MSTORE DUP1 SWAP3 SWAP2 SWAP1 DUP2 DUP2 MSTORE PUSH1 0x20 ADD DUP3 DUP1 SLOAD PUSH2 0x155F SWAP1 PUSH2 0x5401 JUMP JUMPDEST DUP1 ISZERO PUSH2 0x15AC JUMPI DUP1 PUSH1 0x1F LT PUSH2 0x1581 JUMPI PUSH2 0x100 DUP1 DUP4 SLOAD DIV MUL DUP4 MSTORE SWAP2 PUSH1 0x20 ADD SWAP2 PUSH2 0x15AC JUMP JUMPDEST DUP3 ADD SWAP2 SWAP1 PUSH1 0x0 MSTORE PUSH1 0x20 PUSH1 0x0 KECCAK256 SWAP1 JUMPDEST DUP2 SLOAD DUP2 MSTORE SWAP1 PUSH1 0x1 ADD SWAP1 PUSH1 0x20 ADD DUP1 DUP4 GT PUSH2 0x158F JUMPI DUP3 SWAP1 SUB PUSH1 0x1F AND DUP3 ADD SWAP2 JUMPDEST POP POP POP POP POP SWAP1 POP SWAP1 JUMP JUMPDEST PUSH2 0x15BE PUSH2 0x2F44 JUMP JUMPDEST PUSH20 0xFFFFFFFFFFFFFFFFFFFFFFFFFFFFFFFFFFFFFFFF AND DUP3 PUSH20 0xFFFFFFFFFFFFFFFFFFFFFFFFFFFFFFFFFFFFFFFF AND EQ ISZERO PUSH2 0x162C JUMPI PUSH1 0x40 MLOAD PUSH32 0x8C379A000000000000000000000000000000000000000000000000000000000 DUP2 MSTORE PUSH1 0x4 ADD PUSH2 0x1623 SWAP1 PUSH2 0x4CA9 JUMP JUMPDEST PUSH1 0x40 MLOAD DUP1 SWAP2 SUB SWAP1 REVERT JUMPDEST DUP1 PUSH1 0x6 PUSH1 0x0 PUSH2 0x1639 PUSH2 0x2F44 JUMP JUMPDEST PUSH20 0xFFFFFFFFFFFFFFFFFFFFFFFFFFFFFFFFFFFFFFFF AND PUSH20 0xFFFFFFFFFFFFFFFFFFFFFFFFFFFFFFFFFFFFFFFF AND DUP2 MSTORE PUSH1 0x20 ADD SWAP1 DUP2 MSTORE PUSH1 0x20 ADD PUSH1 0x0 KECCAK256 PUSH1 0x0 DUP5 PUSH20 0xFFFFFFFFFFFFFFFFFFFFFFFFFFFFFFFFFFFFFFFF AND PUSH20 0xFFFFFFFFFFFFFFFFFFFFFFFFFFFFFFFFFFFFFFFF AND DUP2 MSTORE PUSH1 0x20 ADD SWAP1 DUP2 MSTORE PUSH1 0x20 ADD PUSH1 0x0 KECCAK256 PUSH1 0x0 PUSH2 0x100 EXP DUP2 SLOAD DUP2 PUSH1 0xFF MUL NOT AND SWAP1 DUP4 ISZERO ISZERO MUL OR SWAP1 SSTORE POP DUP2 PUSH20 0xFFFFFFFFFFFFFFFFFFFFFFFFFFFFFFFFFFFFFFFF AND PUSH2 0x16E6 PUSH2 0x2F44 JUMP JUMPDEST PUSH20 0xFFFFFFFFFFFFFFFFFFFFFFFFFFFFFFFFFFFFFFFF AND PUSH32 0x17307EAB39AB6107E8899845AD3D59BD9653F200F220920489CA2B5937696C31 DUP4 PUSH1 0x40 MLOAD PUSH2 0x172B SWAP2 SWAP1 PUSH2 0x4B36 JUMP JUMPDEST PUSH1 0x40 MLOAD DUP1 SWAP2 SUB SWAP1 LOG3 POP POP JUMP JUMPDEST PUSH1 0x9 SLOAD DUP2 JUMP JUMPDEST PUSH2 0x1745 PUSH2 0x2F44 JUMP JUMPDEST PUSH20 0xFFFFFFFFFFFFFFFFFFFFFFFFFFFFFFFFFFFFFFFF AND PUSH2 0x1763 PUSH2 0x14FB JUMP JUMPDEST PUSH20 0xFFFFFFFFFFFFFFFFFFFFFFFFFFFFFFFFFFFFFFFF AND EQ PUSH2 0x17B9 JUMPI PUSH1 0x40 MLOAD PUSH32 0x8C379A000000000000000000000000000000000000000000000000000000000 DUP2 MSTORE PUSH1 0x4 ADD PUSH2 0x17B0 SWAP1 PUSH2 0x4E69 JUMP JUMPDEST PUSH1 0x40 MLOAD DUP1 SWAP2 SUB SWAP1 REVERT JUMPDEST PUSH1 0x1 PUSH1 0xD PUSH1 0x0 PUSH2 0x100 EXP DUP2 SLOAD DUP2 PUSH1 0xFF MUL NOT AND SWAP1 DUP4 ISZERO ISZERO MUL OR SWAP1 SSTORE POP JUMP JUMPDEST PUSH2 0x17E7 PUSH2 0x17E1 PUSH2 0x2F44 JUMP JUMPDEST DUP4 PUSH2 0x3005 JUMP JUMPDEST PUSH2 0x1826 JUMPI PUSH1 0x40 MLOAD PUSH32 0x8C379A000000000000000000000000000000000000000000000000000000000 DUP2 MSTORE PUSH1 0x4 ADD PUSH2 0x181D SWAP1 PUSH2 0x4F29 JUMP JUMPDEST PUSH1 0x40 MLOAD DUP1 SWAP2 SUB SWAP1 REVERT JUMPDEST PUSH2 0x1832 DUP5 DUP5 DUP5 DUP5 PUSH2 0x3403 JUMP JUMPDEST POP POP POP POP JUMP JUMPDEST CALLER PUSH20 0xFFFFFFFFFFFFFFFFFFFFFFFFFFFFFFFFFFFFFFFF AND ORIGIN PUSH20 0xFFFFFFFFFFFFFFFFFFFFFFFFFFFFFFFFFFFFFFFF AND EQ PUSH2 0x18A6 JUMPI PUSH1 0x40 MLOAD PUSH32 0x8C379A000000000000000000000000000000000000000000000000000000000 DUP2 MSTORE PUSH1 0x4 ADD PUSH2 0x189D SWAP1 PUSH2 0x4D09 JUMP JUMPDEST PUSH1 0x40 MLOAD DUP1 SWAP2 SUB SWAP1 REVERT JUMPDEST PUSH1 0x0 PUSH1 0xB SLOAD EQ ISZERO DUP1 ISZERO PUSH2 0x18BB JUMPI POP TIMESTAMP PUSH1 0xB SLOAD GT ISZERO JUMPDEST PUSH2 0x18FA JUMPI PUSH1 0x40 MLOAD PUSH32 0x8C379A000000000000000000000000000000000000000000000000000000000 DUP2 MSTORE PUSH1 0x4 ADD PUSH2 0x18F1 SWAP1 PUSH2 0x4DA9 JUMP JUMPDEST PUSH1 0x40 MLOAD DUP1 SWAP2 SUB SWAP1 REVERT JUMPDEST PUSH1 0x0 DUP4 PUSH2 0xFFFF AND GT PUSH2 0x1941 JUMPI PUSH1 0x40 MLOAD PUSH32 0x8C379A000000000000000000000000000000000000000000000000000000000 DUP2 MSTORE PUSH1 0x4 ADD PUSH2 0x1938 SWAP1 PUSH2 0x4F69 JUMP JUMPDEST PUSH1 0x40 MLOAD DUP1 SWAP2 SUB SWAP1 REVERT JUMPDEST PUSH1 0x7 PUSH1 0x0 SWAP1 SLOAD SWAP1 PUSH2 0x100 EXP SWAP1 DIV PUSH2 0xFFFF AND PUSH2 0xFFFF AND DUP4 PUSH2 0xFFFF AND LT PUSH2 0x199B JUMPI PUSH1 0x40 MLOAD PUSH32 0x8C379A000000000000000000000000000000000000000000000000000000000 DUP2 MSTORE PUSH1 0x4 ADD PUSH2 0x1992 SWAP1 PUSH2 0x4EC9 JUMP JUMPDEST PUSH1 0x40 MLOAD DUP1 SWAP2 SUB SWAP1 REVERT JUMPDEST PUSH1 0x0 DUP2 GT PUSH2 0x19DE JUMPI PUSH1 0x40 MLOAD PUSH32 0x8C379A000000000000000000000000000000000000000000000000000000000 DUP2 MSTORE PUSH1 0x4 ADD PUSH2 0x19D5 SWAP1 PUSH2 0x4C69 JUMP JUMPDEST PUSH1 0x40 MLOAD DUP1 SWAP2 SUB SWAP1 REVERT JUMPDEST PUSH1 0x0 PUSH1 0x9 SLOAD GT PUSH2 0x1A23 JUMPI PUSH1 0x40 MLOAD PUSH32 0x8C379A000000000000000000000000000000000000000000000000000000000 DUP2 MSTORE PUSH1 0x4 ADD PUSH2 0x1A1A SWAP1 PUSH2 0x4BC9 JUMP JUMPDEST PUSH1 0x40 MLOAD DUP1 SWAP2 SUB SWAP1 REVERT JUMPDEST PUSH1 0x0 PUSH2 0x1A2D PUSH2 0x2490 JUMP JUMPDEST SWAP1 POP PUSH1 0x0 DUP2 PUSH2 0xFFFF AND GT PUSH2 0x1A76 JUMPI PUSH1 0x40 MLOAD PUSH32 0x8C379A000000000000000000000000000000000000000000000000000000000 DUP2 MSTORE PUSH1 0x4 ADD PUSH2 0x1A6D SWAP1 PUSH2 0x4FA9 JUMP JUMPDEST PUSH1 0x40 MLOAD DUP1 SWAP2 SUB SWAP1 REVERT JUMPDEST PUSH1 0xD PUSH1 0x1 SWAP1 SLOAD SWAP1 PUSH2 0x100 EXP SWAP1 DIV PUSH1 0xFF AND ISZERO PUSH2 0x1AC6 JUMPI PUSH1 0x40 MLOAD PUSH32 0x8C379A000000000000000000000000000000000000000000000000000000000 DUP2 MSTORE PUSH1 0x4 ADD PUSH2 0x1ABD SWAP1 PUSH2 0x4D49 JUMP JUMPDEST PUSH1 0x40 MLOAD DUP1 SWAP2 SUB SWAP1 REVERT JUMPDEST DUP1 PUSH2 0xFFFF AND DUP5 PUSH2 0xFFFF AND GT ISZERO PUSH2 0x1ADD JUMPI DUP1 PUSH1 0xFF AND SWAP4 POP JUMPDEST PUSH1 0x0 PUSH2 0x1AF8 DUP6 PUSH2 0xFFFF AND PUSH1 0x9 SLOAD PUSH2 0x345F SWAP1 SWAP2 SWAP1 PUSH4 0xFFFFFFFF AND JUMP JUMPDEST SWAP1 POP DUP1 DUP4 LT ISZERO PUSH2 0x1B3D JUMPI PUSH1 0x40 MLOAD PUSH32 0x8C379A000000000000000000000000000000000000000000000000000000000 DUP2 MSTORE PUSH1 0x4 ADD PUSH2 0x1B34 SWAP1 PUSH2 0x4C49 JUMP JUMPDEST PUSH1 0x40 MLOAD DUP1 SWAP2 SUB SWAP1 REVERT JUMPDEST DUP1 DUP4 LT PUSH2 0x1BF7 JUMPI PUSH1 0x12 PUSH1 0x0 SWAP1 SLOAD SWAP1 PUSH2 0x100 EXP SWAP1 DIV PUSH20 0xFFFFFFFFFFFFFFFFFFFFFFFFFFFFFFFFFFFFFFFF AND PUSH20 0xFFFFFFFFFFFFFFFFFFFFFFFFFFFFFFFFFFFFFFFF AND PUSH4 0x23B872DD CALLER ADDRESS DUP5 PUSH1 0x40 MLOAD DUP5 PUSH4 0xFFFFFFFF AND PUSH1 0xE0 SHL DUP2 MSTORE PUSH1 0x4 ADD PUSH2 0x1BA3 SWAP4 SWAP3 SWAP2 SWAP1 PUSH2 0x4A8A JUMP JUMPDEST PUSH1 0x20 PUSH1 0x40 MLOAD DUP1 DUP4 SUB DUP2 PUSH1 0x0 DUP8 DUP1 EXTCODESIZE ISZERO DUP1 ISZERO PUSH2 0x1BBD JUMPI PUSH1 0x0 DUP1 REVERT JUMPDEST POP GAS CALL ISZERO DUP1 ISZERO PUSH2 0x1BD1 JUMPI RETURNDATASIZE PUSH1 0x0 DUP1 RETURNDATACOPY RETURNDATASIZE PUSH1 0x0 REVERT JUMPDEST POP POP POP POP PUSH1 0x40 MLOAD RETURNDATASIZE PUSH1 0x1F NOT PUSH1 0x1F DUP3 ADD AND DUP3 ADD DUP1 PUSH1 0x40 MSTORE POP DUP2 ADD SWAP1 PUSH2 0x1BF5 SWAP2 SWAP1 PUSH2 0x4193 JUMP JUMPDEST POP JUMPDEST PUSH1 0x0 DUP6 PUSH2 0xFFFF AND PUSH8 0xFFFFFFFFFFFFFFFF DUP2 GT ISZERO PUSH2 0x1C17 JUMPI PUSH2 0x1C16 PUSH2 0x5652 JUMP JUMPDEST JUMPDEST PUSH1 0x40 MLOAD SWAP1 DUP1 DUP3 MSTORE DUP1 PUSH1 0x20 MUL PUSH1 0x20 ADD DUP3 ADD PUSH1 0x40 MSTORE DUP1 ISZERO PUSH2 0x1C45 JUMPI DUP2 PUSH1 0x20 ADD PUSH1 0x20 DUP3 MUL DUP1 CALLDATASIZE DUP4 CALLDATACOPY DUP1 DUP3 ADD SWAP2 POP POP SWAP1 POP JUMPDEST POP SWAP1 POP PUSH1 0x0 PUSH1 0x7 PUSH1 0x2 SWAP1 SLOAD SWAP1 PUSH2 0x100 EXP SWAP1 DIV PUSH2 0xFFFF AND SWAP1 POP DUP7 PUSH1 0xE PUSH1 0x0 CALLER PUSH20 0xFFFFFFFFFFFFFFFFFFFFFFFFFFFFFFFFFFFFFFFF AND PUSH20 0xFFFFFFFFFFFFFFFFFFFFFFFFFFFFFFFFFFFFFFFF AND DUP2 MSTORE PUSH1 0x20 ADD SWAP1 DUP2 MSTORE PUSH1 0x20 ADD PUSH1 0x0 KECCAK256 PUSH1 0x0 DUP3 DUP3 DUP3 SWAP1 SLOAD SWAP1 PUSH2 0x100 EXP SWAP1 DIV PUSH2 0xFFFF AND PUSH2 0x1CB9 SWAP2 SWAP1 PUSH2 0x5139 JUMP JUMPDEST SWAP3 POP PUSH2 0x100 EXP DUP2 SLOAD DUP2 PUSH2 0xFFFF MUL NOT AND SWAP1 DUP4 PUSH2 0xFFFF AND MUL OR SWAP1 SSTORE POP DUP7 PUSH1 0x7 PUSH1 0x2 DUP3 DUP3 DUP3 SWAP1 SLOAD SWAP1 PUSH2 0x100 EXP SWAP1 DIV PUSH2 0xFFFF AND PUSH2 0x1CF2 SWAP2 SWAP1 PUSH2 0x5139 JUMP JUMPDEST SWAP3 POP PUSH2 0x100 EXP DUP2 SLOAD DUP2 PUSH2 0xFFFF MUL NOT AND SWAP1 DUP4 PUSH2 0xFFFF AND MUL OR SWAP1 SSTORE POP PUSH1 0x0 JUMPDEST DUP8 PUSH2 0xFFFF AND DUP2 LT ISZERO PUSH2 0x1D68 JUMPI PUSH2 0x1D24 DUP3 PUSH2 0x34DA JUMP JUMPDEST PUSH2 0xFFFF AND DUP4 DUP3 DUP2 MLOAD DUP2 LT PUSH2 0x1D3B JUMPI PUSH2 0x1D3A PUSH2 0x5623 JUMP JUMPDEST JUMPDEST PUSH1 0x20 MUL PUSH1 0x20 ADD ADD DUP2 DUP2 MSTORE POP POP DUP2 DUP1 PUSH2 0x1D52 SWAP1 PUSH2 0x5464 JUMP JUMPDEST SWAP3 POP POP DUP1 DUP1 PUSH2 0x1D60 SWAP1 PUSH2 0x548F JUMP JUMPDEST SWAP2 POP POP PUSH2 0x1D0F JUMP JUMPDEST POP DUP6 PUSH20 0xFFFFFFFFFFFFFFFFFFFFFFFFFFFFFFFFFFFFFFFF AND PUSH1 0x0 PUSH20 0xFFFFFFFFFFFFFFFFFFFFFFFFFFFFFFFFFFFFFFFF AND EQ ISZERO PUSH2 0x1DD9 JUMPI PUSH1 0x40 MLOAD PUSH32 0x8C379A000000000000000000000000000000000000000000000000000000000 DUP2 MSTORE PUSH1 0x4 ADD PUSH2 0x1DD0 SWAP1 PUSH2 0x4F09 JUMP JUMPDEST PUSH1 0x40 MLOAD DUP1 SWAP2 SUB SWAP1 REVERT JUMPDEST CALLER PUSH20 0xFFFFFFFFFFFFFFFFFFFFFFFFFFFFFFFFFFFFFFFF AND DUP7 PUSH20 0xFFFFFFFFFFFFFFFFFFFFFFFFFFFFFFFFFFFFFFFF AND EQ ISZERO PUSH2 0x1E48 JUMPI PUSH1 0x40 MLOAD PUSH32 0x8C379A000000000000000000000000000000000000000000000000000000000 DUP2 MSTORE PUSH1 0x4 ADD PUSH2 0x1E3F SWAP1 PUSH2 0x4DC9 JUMP JUMPDEST PUSH1 0x40 MLOAD DUP1 SWAP2 SUB SWAP1 REVERT JUMPDEST PUSH1 0x8 SLOAD PUSH1 0xE PUSH1 0x0 CALLER PUSH20 0xFFFFFFFFFFFFFFFFFFFFFFFFFFFFFFFFFFFFFFFF AND PUSH20 0xFFFFFFFFFFFFFFFFFFFFFFFFFFFFFFFFFFFFFFFF AND DUP2 MSTORE PUSH1 0x20 ADD SWAP1 DUP2 MSTORE PUSH1 0x20 ADD PUSH1 0x0 KECCAK256 PUSH1 0x0 SWAP1 SLOAD SWAP1 PUSH2 0x100 EXP SWAP1 DIV PUSH2 0xFFFF AND PUSH2 0xFFFF AND GT ISZERO PUSH2 0x1EDE JUMPI PUSH1 0x40 MLOAD PUSH32 0x8C379A000000000000000000000000000000000000000000000000000000000 DUP2 MSTORE PUSH1 0x4 ADD PUSH2 0x1ED5 SWAP1 PUSH2 0x4E09 JUMP JUMPDEST PUSH1 0x40 MLOAD DUP1 SWAP2 SUB SWAP1 REVERT JUMPDEST PUSH1 0x8 SLOAD PUSH1 0xE PUSH1 0x0 DUP9 PUSH20 0xFFFFFFFFFFFFFFFFFFFFFFFFFFFFFFFFFFFFFFFF AND PUSH20 0xFFFFFFFFFFFFFFFFFFFFFFFFFFFFFFFFFFFFFFFF AND DUP2 MSTORE PUSH1 0x20 ADD SWAP1 DUP2 MSTORE PUSH1 0x20 ADD PUSH1 0x0 KECCAK256 PUSH1 0x0 SWAP1 SLOAD SWAP1 PUSH2 0x100 EXP SWAP1 DIV PUSH2 0xFFFF AND PUSH2 0xFFFF AND LT PUSH2 0x2191 JUMPI PUSH1 0x1 PUSH1 0xE PUSH1 0x0 CALLER PUSH20 0xFFFFFFFFFFFFFFFFFFFFFFFFFFFFFFFFFFFFFFFF AND PUSH20 0xFFFFFFFFFFFFFFFFFFFFFFFFFFFFFFFFFFFFFFFF AND DUP2 MSTORE PUSH1 0x20 ADD SWAP1 DUP2 MSTORE PUSH1 0x20 ADD PUSH1 0x0 KECCAK256 PUSH1 0x0 SWAP1 SLOAD SWAP1 PUSH2 0x100 EXP SWAP1 DIV PUSH2 0xFFFF AND PUSH2 0xFFFF AND LT PUSH2 0x2190 JUMPI PUSH1 0x0 PUSH1 0x10 PUSH1 0x0 CALLER PUSH20 0xFFFFFFFFFFFFFFFFFFFFFFFFFFFFFFFFFFFFFFFF AND PUSH20 0xFFFFFFFFFFFFFFFFFFFFFFFFFFFFFFFFFFFFFFFF AND DUP2 MSTORE PUSH1 0x20 ADD SWAP1 DUP2 MSTORE PUSH1 0x20 ADD PUSH1 0x0 KECCAK256 PUSH1 0x0 DUP9 PUSH20 0xFFFFFFFFFFFFFFFFFFFFFFFFFFFFFFFFFFFFFFFF AND PUSH20 0xFFFFFFFFFFFFFFFFFFFFFFFFFFFFFFFFFFFFFFFF AND DUP2 MSTORE PUSH1 0x20 ADD SWAP1 DUP2 MSTORE PUSH1 0x20 ADD PUSH1 0x0 KECCAK256 PUSH1 0x0 SWAP1 SLOAD SWAP1 PUSH2 0x100 EXP SWAP1 DIV PUSH1 0xFF AND PUSH1 0xFF AND EQ ISZERO PUSH2 0x218F JUMPI PUSH1 0x13 PUSH1 0x0 SWAP1 SLOAD SWAP1 PUSH2 0x100 EXP SWAP1 DIV PUSH20 0xFFFFFFFFFFFFFFFFFFFFFFFFFFFFFFFFFFFFFFFF AND PUSH20 0xFFFFFFFFFFFFFFFFFFFFFFFFFFFFFFFFFFFFFFFF AND PUSH4 0x7BA2ACFC PUSH1 0xA PUSH1 0x0 SWAP1 SLOAD SWAP1 PUSH2 0x100 EXP SWAP1 DIV PUSH1 0xFF AND DUP9 PUSH1 0x40 MLOAD DUP4 PUSH4 0xFFFFFFFF AND PUSH1 0xE0 SHL DUP2 MSTORE PUSH1 0x4 ADD PUSH2 0x2092 SWAP3 SWAP2 SWAP1 PUSH2 0x501A JUMP JUMPDEST PUSH1 0x0 PUSH1 0x40 MLOAD DUP1 DUP4 SUB DUP2 PUSH1 0x0 DUP8 DUP1 EXTCODESIZE ISZERO DUP1 ISZERO PUSH2 0x20AC JUMPI PUSH1 0x0 DUP1 REVERT JUMPDEST POP GAS CALL ISZERO DUP1 ISZERO PUSH2 0x20C0 JUMPI RETURNDATASIZE PUSH1 0x0 DUP1 RETURNDATACOPY RETURNDATASIZE PUSH1 0x0 REVERT JUMPDEST POP POP POP POP PUSH1 0x40 MLOAD RETURNDATASIZE PUSH1 0x0 DUP3 RETURNDATACOPY RETURNDATASIZE PUSH1 0x1F NOT PUSH1 0x1F DUP3 ADD AND DUP3 ADD DUP1 PUSH1 0x40 MSTORE POP DUP2 ADD SWAP1 PUSH2 0x20E9 SWAP2 SWAP1 PUSH2 0x411D JUMP JUMPDEST POP PUSH1 0xA PUSH1 0x0 SWAP1 SLOAD SWAP1 PUSH2 0x100 EXP SWAP1 DIV PUSH1 0xFF AND PUSH1 0x10 PUSH1 0x0 CALLER PUSH20 0xFFFFFFFFFFFFFFFFFFFFFFFFFFFFFFFFFFFFFFFF AND PUSH20 0xFFFFFFFFFFFFFFFFFFFFFFFFFFFFFFFFFFFFFFFF AND DUP2 MSTORE PUSH1 0x20 ADD SWAP1 DUP2 MSTORE PUSH1 0x20 ADD PUSH1 0x0 KECCAK256 PUSH1 0x0 DUP9 PUSH20 0xFFFFFFFFFFFFFFFFFFFFFFFFFFFFFFFFFFFFFFFF AND PUSH20 0xFFFFFFFFFFFFFFFFFFFFFFFFFFFFFFFFFFFFFFFF AND DUP2 MSTORE PUSH1 0x20 ADD SWAP1 DUP2 MSTORE PUSH1 0x20 ADD PUSH1 0x0 KECCAK256 PUSH1 0x0 PUSH2 0x100 EXP DUP2 SLOAD DUP2 PUSH1 0xFF MUL NOT AND SWAP1 DUP4 PUSH1 0xFF AND MUL OR SWAP1 SSTORE POP JUMPDEST JUMPDEST JUMPDEST PUSH2 0x219B CALLER DUP4 PUSH2 0x366F JUMP JUMPDEST PUSH32 0x4A152E3A27E8B1C24DF3AE9208D29AA25FB4E2955A9B6820732D4E47B1969060 DUP7 PUSH1 0x40 MLOAD PUSH2 0x21CA SWAP2 SWAP1 PUSH2 0x4A6F JUMP JUMPDEST PUSH1 0x40 MLOAD DUP1 SWAP2 SUB SWAP1 LOG1 POP POP POP POP POP POP POP JUMP JUMPDEST PUSH2 0x21E3 PUSH2 0x2F44 JUMP JUMPDEST PUSH20 0xFFFFFFFFFFFFFFFFFFFFFFFFFFFFFFFFFFFFFFFF AND PUSH2 0x2201 PUSH2 0x14FB JUMP JUMPDEST PUSH20 0xFFFFFFFFFFFFFFFFFFFFFFFFFFFFFFFFFFFFFFFF AND EQ PUSH2 0x2257 JUMPI PUSH1 0x40 MLOAD PUSH32 0x8C379A000000000000000000000000000000000000000000000000000000000 DUP2 MSTORE PUSH1 0x4 ADD PUSH2 0x224E SWAP1 PUSH2 0x4E69 JUMP JUMPDEST PUSH1 0x40 MLOAD DUP1 SWAP2 SUB SWAP1 REVERT JUMPDEST DUP1 PUSH2 0xFFFF AND PUSH1 0x8 DUP2 SWAP1 SSTORE POP POP JUMP JUMPDEST PUSH1 0x60 PUSH2 0x2270 DUP3 PUSH2 0x2ED8 JUMP JUMPDEST PUSH2 0x22AF JUMPI PUSH1 0x40 MLOAD PUSH32 0x8C379A000000000000000000000000000000000000000000000000000000000 DUP2 MSTORE PUSH1 0x4 ADD PUSH2 0x22A6 SWAP1 PUSH2 0x4EA9 JUMP JUMPDEST PUSH1 0x40 MLOAD DUP1 SWAP2 SUB SWAP1 REVERT JUMPDEST PUSH1 0x0 PUSH2 0x22B9 PUSH2 0x38C5 JUMP JUMPDEST SWAP1 POP PUSH1 0x0 DUP2 MLOAD GT PUSH2 0x22D9 JUMPI PUSH1 0x40 MLOAD DUP1 PUSH1 0x20 ADD PUSH1 0x40 MSTORE DUP1 PUSH1 0x0 DUP2 MSTORE POP PUSH2 0x2304 JUMP JUMPDEST DUP1 PUSH2 0x22E3 DUP5 PUSH2 0x3957 JUMP JUMPDEST PUSH1 0x40 MLOAD PUSH1 0x20 ADD PUSH2 0x22F4 SWAP3 SWAP2 SWAP1 PUSH2 0x49EC JUMP JUMPDEST PUSH1 0x40 MLOAD PUSH1 0x20 DUP2 DUP4 SUB SUB DUP2 MSTORE SWAP1 PUSH1 0x40 MSTORE JUMPDEST SWAP2 POP POP SWAP2 SWAP1 POP JUMP JUMPDEST PUSH2 0x2314 PUSH2 0x2F44 JUMP JUMPDEST PUSH20 0xFFFFFFFFFFFFFFFFFFFFFFFFFFFFFFFFFFFFFFFF AND PUSH2 0x2332 PUSH2 0x14FB JUMP JUMPDEST PUSH20 0xFFFFFFFFFFFFFFFFFFFFFFFFFFFFFFFFFFFFFFFF AND EQ PUSH2 0x2388 JUMPI PUSH1 0x40 MLOAD PUSH32 0x8C379A000000000000000000000000000000000000000000000000000000000 DUP2 MSTORE PUSH1 0x4 ADD PUSH2 0x237F SWAP1 PUSH2 0x4E69 JUMP JUMPDEST PUSH1 0x40 MLOAD DUP1 SWAP2 SUB SWAP1 REVERT JUMPDEST PUSH1 0x0 ISZERO ISZERO PUSH1 0xD PUSH1 0x0 SWAP1 SLOAD SWAP1 PUSH2 0x100 EXP SWAP1 DIV PUSH1 0xFF AND ISZERO ISZERO EQ PUSH2 0x23DE JUMPI PUSH1 0x40 MLOAD PUSH32 0x8C379A000000000000000000000000000000000000000000000000000000000 DUP2 MSTORE PUSH1 0x4 ADD PUSH2 0x23D5 SWAP1 PUSH2 0x4CE9 JUMP JUMPDEST PUSH1 0x40 MLOAD DUP1 SWAP2 SUB SWAP1 REVERT JUMPDEST DUP1 PUSH1 0x7 PUSH1 0x0 PUSH2 0x100 EXP DUP2 SLOAD DUP2 PUSH2 0xFFFF MUL NOT AND SWAP1 DUP4 PUSH2 0xFFFF AND MUL OR SWAP1 SSTORE POP POP JUMP JUMPDEST PUSH1 0x60 PUSH1 0xC DUP1 SLOAD PUSH2 0x240D SWAP1 PUSH2 0x5401 JUMP JUMPDEST DUP1 PUSH1 0x1F ADD PUSH1 0x20 DUP1 SWAP2 DIV MUL PUSH1 0x20 ADD PUSH1 0x40 MLOAD SWAP1 DUP2 ADD PUSH1 0x40 MSTORE DUP1 SWAP3 SWAP2 SWAP1 DUP2 DUP2 MSTORE PUSH1 0x20 ADD DUP3 DUP1 SLOAD PUSH2 0x2439 SWAP1 PUSH2 0x5401 JUMP JUMPDEST DUP1 ISZERO PUSH2 0x2486 JUMPI DUP1 PUSH1 0x1F LT PUSH2 0x245B JUMPI PUSH2 0x100 DUP1 DUP4 SLOAD DIV MUL DUP4 MSTORE SWAP2 PUSH1 0x20 ADD SWAP2 PUSH2 0x2486 JUMP JUMPDEST DUP3 ADD SWAP2 SWAP1 PUSH1 0x0 MSTORE PUSH1 0x20 PUSH1 0x0 KECCAK256 SWAP1 JUMPDEST DUP2 SLOAD DUP2 MSTORE SWAP1 PUSH1 0x1 ADD SWAP1 PUSH1 0x20 ADD DUP1 DUP4 GT PUSH2 0x2469 JUMPI DUP3 SWAP1 SUB PUSH1 0x1F AND DUP3 ADD SWAP2 JUMPDEST POP POP POP POP POP SWAP1 POP SWAP1 JUMP JUMPDEST PUSH1 0x0 PUSH1 0x7 PUSH1 0x2 SWAP1 SLOAD SWAP1 PUSH2 0x100 EXP SWAP1 DIV PUSH2 0xFFFF AND PUSH1 0x7 PUSH1 0x0 SWAP1 SLOAD SWAP1 PUSH2 0x100 EXP SWAP1 DIV PUSH2 0xFFFF AND PUSH2 0x24BE SWAP2 SWAP1 PUSH2 0x5252 JUMP JUMPDEST SWAP1 POP SWAP1 JUMP JUMPDEST PUSH2 0x24CB PUSH2 0x2F44 JUMP JUMPDEST PUSH20 0xFFFFFFFFFFFFFFFFFFFFFFFFFFFFFFFFFFFFFFFF AND PUSH2 0x24E9 PUSH2 0x14FB JUMP JUMPDEST PUSH20 0xFFFFFFFFFFFFFFFFFFFFFFFFFFFFFFFFFFFFFFFF AND EQ PUSH2 0x253F JUMPI PUSH1 0x40 MLOAD PUSH32 0x8C379A000000000000000000000000000000000000000000000000000000000 DUP2 MSTORE PUSH1 0x4 ADD PUSH2 0x2536 SWAP1 PUSH2 0x4E69 JUMP JUMPDEST PUSH1 0x40 MLOAD DUP1 SWAP2 SUB SWAP1 REVERT JUMPDEST PUSH1 0x1 PUSH1 0x11 PUSH1 0x0 DUP4 PUSH20 0xFFFFFFFFFFFFFFFFFFFFFFFFFFFFFFFFFFFFFFFF AND PUSH20 0xFFFFFFFFFFFFFFFFFFFFFFFFFFFFFFFFFFFFFFFF AND DUP2 MSTORE PUSH1 0x20 ADD SWAP1 DUP2 MSTORE PUSH1 0x20 ADD PUSH1 0x0 KECCAK256 PUSH1 0x0 PUSH2 0x100 EXP DUP2 SLOAD DUP2 PUSH1 0xFF MUL NOT AND SWAP1 DUP4 ISZERO ISZERO MUL OR SWAP1 SSTORE POP POP JUMP JUMPDEST CALLER PUSH20 0xFFFFFFFFFFFFFFFFFFFFFFFFFFFFFFFFFFFFFFFF AND ORIGIN PUSH20 0xFFFFFFFFFFFFFFFFFFFFFFFFFFFFFFFFFFFFFFFF AND EQ PUSH2 0x2608 JUMPI PUSH1 0x40 MLOAD PUSH32 0x8C379A000000000000000000000000000000000000000000000000000000000 DUP2 MSTORE PUSH1 0x4 ADD PUSH2 0x25FF SWAP1 PUSH2 0x4D09 JUMP JUMPDEST PUSH1 0x40 MLOAD DUP1 SWAP2 SUB SWAP1 REVERT JUMPDEST PUSH1 0x0 PUSH1 0xB SLOAD EQ ISZERO DUP1 ISZERO PUSH2 0x261D JUMPI POP TIMESTAMP PUSH1 0xB SLOAD GT ISZERO JUMPDEST PUSH2 0x265C JUMPI PUSH1 0x40 MLOAD PUSH32 0x8C379A000000000000000000000000000000000000000000000000000000000 DUP2 MSTORE PUSH1 0x4 ADD PUSH2 0x2653 SWAP1 PUSH2 0x4DA9 JUMP JUMPDEST PUSH1 0x40 MLOAD DUP1 SWAP2 SUB SWAP1 REVERT JUMPDEST PUSH1 0x0 DUP3 PUSH2 0xFFFF AND GT PUSH2 0x26A3 JUMPI PUSH1 0x40 MLOAD PUSH32 0x8C379A000000000000000000000000000000000000000000000000000000000 DUP2 MSTORE PUSH1 0x4 ADD PUSH2 0x269A SWAP1 PUSH2 0x4F89 JUMP JUMPDEST PUSH1 0x40 MLOAD DUP1 SWAP2 SUB SWAP1 REVERT JUMPDEST PUSH1 0x7 PUSH1 0x0 SWAP1 SLOAD SWAP1 PUSH2 0x100 EXP SWAP1 DIV PUSH2 0xFFFF AND PUSH2 0xFFFF AND DUP3 PUSH2 0xFFFF AND LT PUSH2 0x26FD JUMPI PUSH1 0x40 MLOAD PUSH32 0x8C379A000000000000000000000000000000000000000000000000000000000 DUP2 MSTORE PUSH1 0x4 ADD PUSH2 0x26F4 SWAP1 PUSH2 0x4EC9 JUMP JUMPDEST PUSH1 0x40 MLOAD DUP1 SWAP2 SUB SWAP1 REVERT JUMPDEST PUSH1 0x0 PUSH2 0x2707 PUSH2 0x2490 JUMP JUMPDEST SWAP1 POP PUSH1 0x0 DUP2 PUSH2 0xFFFF AND GT PUSH2 0x2750 JUMPI PUSH1 0x40 MLOAD PUSH32 0x8C379A000000000000000000000000000000000000000000000000000000000 DUP2 MSTORE PUSH1 0x4 ADD PUSH2 0x2747 SWAP1 PUSH2 0x4FA9 JUMP JUMPDEST PUSH1 0x40 MLOAD DUP1 SWAP2 SUB SWAP1 REVERT JUMPDEST PUSH1 0xD PUSH1 0x1 SWAP1 SLOAD SWAP1 PUSH2 0x100 EXP SWAP1 DIV PUSH1 0xFF AND ISZERO PUSH2 0x27F2 JUMPI PUSH1 0x11 PUSH1 0x0 CALLER PUSH20 0xFFFFFFFFFFFFFFFFFFFFFFFFFFFFFFFFFFFFFFFF AND PUSH20 0xFFFFFFFFFFFFFFFFFFFFFFFFFFFFFFFFFFFFFFFF AND DUP2 MSTORE PUSH1 0x20 ADD SWAP1 DUP2 MSTORE PUSH1 0x20 ADD PUSH1 0x0 KECCAK256 PUSH1 0x0 SWAP1 SLOAD SWAP1 PUSH2 0x100 EXP SWAP1 DIV PUSH1 0xFF AND PUSH2 0x27F1 JUMPI PUSH1 0x40 MLOAD PUSH32 0x8C379A000000000000000000000000000000000000000000000000000000000 DUP2 MSTORE PUSH1 0x4 ADD PUSH2 0x27E8 SWAP1 PUSH2 0x4F49 JUMP JUMPDEST PUSH1 0x40 MLOAD DUP1 SWAP2 SUB SWAP1 REVERT JUMPDEST JUMPDEST DUP1 PUSH2 0xFFFF AND DUP4 PUSH2 0xFFFF AND GT ISZERO PUSH2 0x2806 JUMPI DUP1 SWAP3 POP JUMPDEST PUSH1 0x0 PUSH2 0x2821 DUP5 PUSH2 0xFFFF AND PUSH1 0x9 SLOAD PUSH2 0x345F SWAP1 SWAP2 SWAP1 PUSH4 0xFFFFFFFF AND JUMP JUMPDEST SWAP1 POP DUP1 DUP4 LT ISZERO PUSH2 0x2866 JUMPI PUSH1 0x40 MLOAD PUSH32 0x8C379A000000000000000000000000000000000000000000000000000000000 DUP2 MSTORE PUSH1 0x4 ADD PUSH2 0x285D SWAP1 PUSH2 0x4C49 JUMP JUMPDEST PUSH1 0x40 MLOAD DUP1 SWAP2 SUB SWAP1 REVERT JUMPDEST PUSH1 0x8 SLOAD DUP5 PUSH1 0xE PUSH1 0x0 CALLER PUSH20 0xFFFFFFFFFFFFFFFFFFFFFFFFFFFFFFFFFFFFFFFF AND PUSH20 0xFFFFFFFFFFFFFFFFFFFFFFFFFFFFFFFFFFFFFFFF AND DUP2 MSTORE PUSH1 0x20 ADD SWAP1 DUP2 MSTORE PUSH1 0x20 ADD PUSH1 0x0 KECCAK256 PUSH1 0x0 SWAP1 SLOAD SWAP1 PUSH2 0x100 EXP SWAP1 DIV PUSH2 0xFFFF AND PUSH2 0x28C2 SWAP2 SWAP1 PUSH2 0x5139 JUMP JUMPDEST PUSH2 0xFFFF AND GT ISZERO PUSH2 0x2907 JUMPI PUSH1 0x40 MLOAD PUSH32 0x8C379A000000000000000000000000000000000000000000000000000000000 DUP2 MSTORE PUSH1 0x4 ADD PUSH2 0x28FE SWAP1 PUSH2 0x4E09 JUMP JUMPDEST PUSH1 0x40 MLOAD DUP1 SWAP2 SUB SWAP1 REVERT JUMPDEST DUP1 DUP4 LT PUSH2 0x29C1 JUMPI PUSH1 0x12 PUSH1 0x0 SWAP1 SLOAD SWAP1 PUSH2 0x100 EXP SWAP1 DIV PUSH20 0xFFFFFFFFFFFFFFFFFFFFFFFFFFFFFFFFFFFFFFFF AND PUSH20 0xFFFFFFFFFFFFFFFFFFFFFFFFFFFFFFFFFFFFFFFF AND PUSH4 0x23B872DD CALLER ADDRESS DUP5 PUSH1 0x40 MLOAD DUP5 PUSH4 0xFFFFFFFF AND PUSH1 0xE0 SHL DUP2 MSTORE PUSH1 0x4 ADD PUSH2 0x296D SWAP4 SWAP3 SWAP2 SWAP1 PUSH2 0x4A8A JUMP JUMPDEST PUSH1 0x20 PUSH1 0x40 MLOAD DUP1 DUP4 SUB DUP2 PUSH1 0x0 DUP8 DUP1 EXTCODESIZE ISZERO DUP1 ISZERO PUSH2 0x2987 JUMPI PUSH1 0x0 DUP1 REVERT JUMPDEST POP GAS CALL ISZERO DUP1 ISZERO PUSH2 0x299B JUMPI RETURNDATASIZE PUSH1 0x0 DUP1 RETURNDATACOPY RETURNDATASIZE PUSH1 0x0 REVERT JUMPDEST POP POP POP POP PUSH1 0x40 MLOAD RETURNDATASIZE PUSH1 0x1F NOT PUSH1 0x1F DUP3 ADD AND DUP3 ADD DUP1 PUSH1 0x40 MSTORE POP DUP2 ADD SWAP1 PUSH2 0x29BF SWAP2 SWAP1 PUSH2 0x4193 JUMP JUMPDEST POP JUMPDEST PUSH1 0x0 DUP5 PUSH2 0xFFFF AND PUSH8 0xFFFFFFFFFFFFFFFF DUP2 GT ISZERO PUSH2 0x29E1 JUMPI PUSH2 0x29E0 PUSH2 0x5652 JUMP JUMPDEST JUMPDEST PUSH1 0x40 MLOAD SWAP1 DUP1 DUP3 MSTORE DUP1 PUSH1 0x20 MUL PUSH1 0x20 ADD DUP3 ADD PUSH1 0x40 MSTORE DUP1 ISZERO PUSH2 0x2A0F JUMPI DUP2 PUSH1 0x20 ADD PUSH1 0x20 DUP3 MUL DUP1 CALLDATASIZE DUP4 CALLDATACOPY DUP1 DUP3 ADD SWAP2 POP POP SWAP1 POP JUMPDEST POP SWAP1 POP PUSH1 0x0 PUSH1 0x7 PUSH1 0x2 SWAP1 SLOAD SWAP1 PUSH2 0x100 EXP SWAP1 DIV PUSH2 0xFFFF AND SWAP1 POP DUP6 PUSH1 0xE PUSH1 0x0 CALLER PUSH20 0xFFFFFFFFFFFFFFFFFFFFFFFFFFFFFFFFFFFFFFFF AND PUSH20 0xFFFFFFFFFFFFFFFFFFFFFFFFFFFFFFFFFFFFFFFF AND DUP2 MSTORE PUSH1 0x20 ADD SWAP1 DUP2 MSTORE PUSH1 0x20 ADD PUSH1 0x0 KECCAK256 PUSH1 0x0 DUP3 DUP3 DUP3 SWAP1 SLOAD SWAP1 PUSH2 0x100 EXP SWAP1 DIV PUSH2 0xFFFF AND PUSH2 0x2A83 SWAP2 SWAP1 PUSH2 0x5139 JUMP JUMPDEST SWAP3 POP PUSH2 0x100 EXP DUP2 SLOAD DUP2 PUSH2 0xFFFF MUL NOT AND SWAP1 DUP4 PUSH2 0xFFFF AND MUL OR SWAP1 SSTORE POP DUP6 PUSH1 0x7 PUSH1 0x2 SWAP1 SLOAD SWAP1 PUSH2 0x100 EXP SWAP1 DIV PUSH2 0xFFFF AND PUSH2 0x2AB9 SWAP2 SWAP1 PUSH2 0x5139 JUMP JUMPDEST PUSH1 0x7 PUSH1 0x2 PUSH2 0x100 EXP DUP2 SLOAD DUP2 PUSH2 0xFFFF MUL NOT AND SWAP1 DUP4 PUSH2 0xFFFF AND MUL OR SWAP1 SSTORE POP PUSH1 0x0 JUMPDEST DUP7 PUSH2 0xFFFF AND DUP2 LT ISZERO PUSH2 0x2B31 JUMPI PUSH2 0x2AED DUP3 PUSH2 0x34DA JUMP JUMPDEST PUSH2 0xFFFF AND DUP4 DUP3 DUP2 MLOAD DUP2 LT PUSH2 0x2B04 JUMPI PUSH2 0x2B03 PUSH2 0x5623 JUMP JUMPDEST JUMPDEST PUSH1 0x20 MUL PUSH1 0x20 ADD ADD DUP2 DUP2 MSTORE POP POP DUP2 DUP1 PUSH2 0x2B1B SWAP1 PUSH2 0x5464 JUMP JUMPDEST SWAP3 POP POP DUP1 DUP1 PUSH2 0x2B29 SWAP1 PUSH2 0x548F JUMP JUMPDEST SWAP2 POP POP PUSH2 0x2AD8 JUMP JUMPDEST POP PUSH2 0x2B3C CALLER DUP4 PUSH2 0x366F JUMP JUMPDEST POP POP POP POP POP POP JUMP JUMPDEST PUSH1 0x0 PUSH1 0x6 PUSH1 0x0 DUP5 PUSH20 0xFFFFFFFFFFFFFFFFFFFFFFFFFFFFFFFFFFFFFFFF AND PUSH20 0xFFFFFFFFFFFFFFFFFFFFFFFFFFFFFFFFFFFFFFFF AND DUP2 MSTORE PUSH1 0x20 ADD SWAP1 DUP2 MSTORE PUSH1 0x20 ADD PUSH1 0x0 KECCAK256 PUSH1 0x0 DUP4 PUSH20 0xFFFFFFFFFFFFFFFFFFFFFFFFFFFFFFFFFFFFFFFF AND PUSH20 0xFFFFFFFFFFFFFFFFFFFFFFFFFFFFFFFFFFFFFFFF AND DUP2 MSTORE PUSH1 0x20 ADD SWAP1 DUP2 MSTORE PUSH1 0x20 ADD PUSH1 0x0 KECCAK256 PUSH1 0x0 SWAP1 SLOAD SWAP1 PUSH2 0x100 EXP SWAP1 DIV PUSH1 0xFF AND SWAP1 POP SWAP3 SWAP2 POP POP JUMP JUMPDEST PUSH2 0x2BE0 PUSH2 0x2F44 JUMP JUMPDEST PUSH20 0xFFFFFFFFFFFFFFFFFFFFFFFFFFFFFFFFFFFFFFFF AND PUSH2 0x2BFE PUSH2 0x14FB JUMP JUMPDEST PUSH20 0xFFFFFFFFFFFFFFFFFFFFFFFFFFFFFFFFFFFFFFFF AND EQ PUSH2 0x2C54 JUMPI PUSH1 0x40 MLOAD PUSH32 0x8C379A000000000000000000000000000000000000000000000000000000000 DUP2 MSTORE PUSH1 0x4 ADD PUSH2 0x2C4B SWAP1 PUSH2 0x4E69 JUMP JUMPDEST PUSH1 0x40 MLOAD DUP1 SWAP2 SUB SWAP1 REVERT JUMPDEST PUSH1 0x12 PUSH1 0x0 SWAP1 SLOAD SWAP1 PUSH2 0x100 EXP SWAP1 DIV PUSH20 0xFFFFFFFFFFFFFFFFFFFFFFFFFFFFFFFFFFFFFFFF AND PUSH20 0xFFFFFFFFFFFFFFFFFFFFFFFFFFFFFFFFFFFFFFFF AND PUSH4 0xA9059CBB DUP4 DUP4 PUSH1 0x40 MLOAD DUP4 PUSH4 0xFFFFFFFF AND PUSH1 0xE0 SHL DUP2 MSTORE PUSH1 0x4 ADD PUSH2 0x2CB1 SWAP3 SWAP2 SWAP1 PUSH2 0x4B0D JUMP JUMPDEST PUSH1 0x20 PUSH1 0x40 MLOAD DUP1 DUP4 SUB DUP2 PUSH1 0x0 DUP8 DUP1 EXTCODESIZE ISZERO DUP1 ISZERO PUSH2 0x2CCB JUMPI PUSH1 0x0 DUP1 REVERT JUMPDEST POP GAS CALL ISZERO DUP1 ISZERO PUSH2 0x2CDF JUMPI RETURNDATASIZE PUSH1 0x0 DUP1 RETURNDATACOPY RETURNDATASIZE PUSH1 0x0 REVERT JUMPDEST POP POP POP POP PUSH1 0x40 MLOAD RETURNDATASIZE PUSH1 0x1F NOT PUSH1 0x1F DUP3 ADD AND DUP3 ADD DUP1 PUSH1 0x40 MSTORE POP DUP2 ADD SWAP1 PUSH2 0x2D03 SWAP2 SWAP1 PUSH2 0x4193 JUMP JUMPDEST POP POP POP JUMP JUMPDEST PUSH1 0xA PUSH1 0x0 SWAP1 SLOAD SWAP1 PUSH2 0x100 EXP SWAP1 DIV PUSH1 0xFF AND DUP2 JUMP JUMPDEST PUSH1 0x10 PUSH1 0x20 MSTORE DUP2 PUSH1 0x0 MSTORE PUSH1 0x40 PUSH1 0x0 KECCAK256 PUSH1 0x20 MSTORE DUP1 PUSH1 0x0 MSTORE PUSH1 0x40 PUSH1 0x0 KECCAK256 PUSH1 0x0 SWAP2 POP SWAP2 POP SWAP1 SLOAD SWAP1 PUSH2 0x100 EXP SWAP1 DIV PUSH1 0xFF AND DUP2 JUMP JUMPDEST PUSH2 0x2D52 PUSH2 0x2F44 JUMP JUMPDEST PUSH20 0xFFFFFFFFFFFFFFFFFFFFFFFFFFFFFFFFFFFFFFFF AND PUSH2 0x2D70 PUSH2 0x14FB JUMP JUMPDEST PUSH20 0xFFFFFFFFFFFFFFFFFFFFFFFFFFFFFFFFFFFFFFFF AND EQ PUSH2 0x2DC6 JUMPI PUSH1 0x40 MLOAD PUSH32 0x8C379A000000000000000000000000000000000000000000000000000000000 DUP2 MSTORE PUSH1 0x4 ADD PUSH2 0x2DBD SWAP1 PUSH2 0x4E69 JUMP JUMPDEST PUSH1 0x40 MLOAD DUP1 SWAP2 SUB SWAP1 REVERT JUMPDEST PUSH1 0x0 PUSH20 0xFFFFFFFFFFFFFFFFFFFFFFFFFFFFFFFFFFFFFFFF AND DUP2 PUSH20 0xFFFFFFFFFFFFFFFFFFFFFFFFFFFFFFFFFFFFFFFF AND EQ ISZERO PUSH2 0x2E36 JUMPI PUSH1 0x40 MLOAD PUSH32 0x8C379A000000000000000000000000000000000000000000000000000000000 DUP2 MSTORE PUSH1 0x4 ADD PUSH2 0x2E2D SWAP1 PUSH2 0x4C09 JUMP JUMPDEST PUSH1 0x40 MLOAD DUP1 SWAP2 SUB SWAP1 REVERT JUMPDEST PUSH2 0x2E3F DUP2 PUSH2 0x333F JUMP JUMPDEST POP JUMP JUMPDEST PUSH1 0x12 PUSH1 0x0 SWAP1 SLOAD SWAP1 PUSH2 0x100 EXP SWAP1 DIV PUSH20 0xFFFFFFFFFFFFFFFFFFFFFFFFFFFFFFFFFFFFFFFF AND DUP2 JUMP JUMPDEST PUSH1 0x8 SLOAD DUP2 JUMP JUMPDEST PUSH1 0x0 PUSH32 0x1FFC9A700000000000000000000000000000000000000000000000000000000 PUSH28 0xFFFFFFFFFFFFFFFFFFFFFFFFFFFFFFFFFFFFFFFFFFFFFFFFFFFFFFFF NOT AND DUP3 PUSH28 0xFFFFFFFFFFFFFFFFFFFFFFFFFFFFFFFFFFFFFFFFFFFFFFFFFFFFFFFF NOT AND EQ SWAP1 POP SWAP2 SWAP1 POP JUMP JUMPDEST PUSH1 0x0 DUP1 PUSH20 0xFFFFFFFFFFFFFFFFFFFFFFFFFFFFFFFFFFFFFFFF AND PUSH1 0x3 PUSH1 0x0 DUP5 DUP2 MSTORE PUSH1 0x20 ADD SWAP1 DUP2 MSTORE PUSH1 0x20 ADD PUSH1 0x0 KECCAK256 PUSH1 0x0 SWAP1 SLOAD SWAP1 PUSH2 0x100 EXP SWAP1 DIV PUSH20 0xFFFFFFFFFFFFFFFFFFFFFFFFFFFFFFFFFFFFFFFF AND PUSH20 0xFFFFFFFFFFFFFFFFFFFFFFFFFFFFFFFFFFFFFFFF AND EQ ISZERO SWAP1 POP SWAP2 SWAP1 POP JUMP JUMPDEST PUSH1 0x0 CALLER SWAP1 POP SWAP1 JUMP JUMPDEST DUP2 PUSH1 0x5 PUSH1 0x0 DUP4 DUP2 MSTORE PUSH1 0x20 ADD SWAP1 DUP2 MSTORE PUSH1 0x20 ADD PUSH1 0x0 KECCAK256 PUSH1 0x0 PUSH2 0x100 EXP DUP2 SLOAD DUP2 PUSH20 0xFFFFFFFFFFFFFFFFFFFFFFFFFFFFFFFFFFFFFFFF MUL NOT AND SWAP1 DUP4 PUSH20 0xFFFFFFFFFFFFFFFFFFFFFFFFFFFFFFFFFFFFFFFF AND MUL OR SWAP1 SSTORE POP DUP1 DUP3 PUSH20 0xFFFFFFFFFFFFFFFFFFFFFFFFFFFFFFFFFFFFFFFF AND PUSH2 0x2FBF DUP4 PUSH2 0x129C JUMP JUMPDEST PUSH20 0xFFFFFFFFFFFFFFFFFFFFFFFFFFFFFFFFFFFFFFFF AND PUSH32 0x8C5BE1E5EBEC7D5BD14F71427D1E84F3DD0314C0F7B2291E5B200AC8C7C3B925 PUSH1 0x40 MLOAD PUSH1 0x40 MLOAD DUP1 SWAP2 SUB SWAP1 LOG4 POP POP JUMP JUMPDEST PUSH1 0x0 PUSH2 0x3010 DUP3 PUSH2 0x2ED8 JUMP JUMPDEST PUSH2 0x304F JUMPI PUSH1 0x40 MLOAD PUSH32 0x8C379A000000000000000000000000000000000000000000000000000000000 DUP2 MSTORE PUSH1 0x4 ADD PUSH2 0x3046 SWAP1 PUSH2 0x4CC9 JUMP JUMPDEST PUSH1 0x40 MLOAD DUP1 SWAP2 SUB SWAP1 REVERT JUMPDEST PUSH1 0x0 PUSH2 0x305A DUP4 PUSH2 0x129C JUMP JUMPDEST SWAP1 POP DUP1 PUSH20 0xFFFFFFFFFFFFFFFFFFFFFFFFFFFFFFFFFFFFFFFF AND DUP5 PUSH20 0xFFFFFFFFFFFFFFFFFFFFFFFFFFFFFFFFFFFFFFFF AND EQ DUP1 PUSH2 0x30C9 JUMPI POP DUP4 PUSH20 0xFFFFFFFFFFFFFFFFFFFFFFFFFFFFFFFFFFFFFFFF AND PUSH2 0x30B1 DUP5 PUSH2 0x9B4 JUMP JUMPDEST PUSH20 0xFFFFFFFFFFFFFFFFFFFFFFFFFFFFFFFFFFFFFFFF AND EQ JUMPDEST DUP1 PUSH2 0x30DA JUMPI POP PUSH2 0x30D9 DUP2 DUP6 PUSH2 0x2B44 JUMP JUMPDEST JUMPDEST SWAP2 POP POP SWAP3 SWAP2 POP POP JUMP JUMPDEST DUP3 PUSH20 0xFFFFFFFFFFFFFFFFFFFFFFFFFFFFFFFFFFFFFFFF AND PUSH2 0x3103 DUP3 PUSH2 0x129C JUMP JUMPDEST PUSH20 0xFFFFFFFFFFFFFFFFFFFFFFFFFFFFFFFFFFFFFFFF AND EQ PUSH2 0x3159 JUMPI PUSH1 0x40 MLOAD PUSH32 0x8C379A000000000000000000000000000000000000000000000000000000000 DUP2 MSTORE PUSH1 0x4 ADD PUSH2 0x3150 SWAP1 PUSH2 0x4E89 JUMP JUMPDEST PUSH1 0x40 MLOAD DUP1 SWAP2 SUB SWAP1 REVERT JUMPDEST PUSH1 0x0 PUSH20 0xFFFFFFFFFFFFFFFFFFFFFFFFFFFFFFFFFFFFFFFF AND DUP3 PUSH20 0xFFFFFFFFFFFFFFFFFFFFFFFFFFFFFFFFFFFFFFFF AND EQ ISZERO PUSH2 0x31C9 JUMPI PUSH1 0x40 MLOAD PUSH32 0x8C379A000000000000000000000000000000000000000000000000000000000 DUP2 MSTORE PUSH1 0x4 ADD PUSH2 0x31C0 SWAP1 PUSH2 0x4C89 JUMP JUMPDEST PUSH1 0x40 MLOAD DUP1 SWAP2 SUB SWAP1 REVERT JUMPDEST PUSH2 0x31D4 DUP4 DUP4 DUP4 PUSH2 0x3AB8 JUMP JUMPDEST PUSH2 0x31DF PUSH1 0x0 DUP3 PUSH2 0x2F4C JUMP JUMPDEST PUSH1 0x1 PUSH1 0x4 PUSH1 0x0 DUP6 PUSH20 0xFFFFFFFFFFFFFFFFFFFFFFFFFFFFFFFFFFFFFFFF AND PUSH20 0xFFFFFFFFFFFFFFFFFFFFFFFFFFFFFFFFFFFFFFFF AND DUP2 MSTORE PUSH1 0x20 ADD SWAP1 DUP2 MSTORE PUSH1 0x20 ADD PUSH1 0x0 KECCAK256 PUSH1 0x0 DUP3 DUP3 SLOAD PUSH2 0x322F SWAP2 SWAP1 PUSH2 0x5286 JUMP JUMPDEST SWAP3 POP POP DUP2 SWAP1 SSTORE POP PUSH1 0x1 PUSH1 0x4 PUSH1 0x0 DUP5 PUSH20 0xFFFFFFFFFFFFFFFFFFFFFFFFFFFFFFFFFFFFFFFF AND PUSH20 0xFFFFFFFFFFFFFFFFFFFFFFFFFFFFFFFFFFFFFFFF AND DUP2 MSTORE PUSH1 0x20 ADD SWAP1 DUP2 MSTORE PUSH1 0x20 ADD PUSH1 0x0 KECCAK256 PUSH1 0x0 DUP3 DUP3 SLOAD PUSH2 0x3286 SWAP2 SWAP1 PUSH2 0x5171 JUMP JUMPDEST SWAP3 POP POP DUP2 SWAP1 SSTORE POP DUP2 PUSH1 0x3 PUSH1 0x0 DUP4 DUP2 MSTORE PUSH1 0x20 ADD SWAP1 DUP2 MSTORE PUSH1 0x20 ADD PUSH1 0x0 KECCAK256 PUSH1 0x0 PUSH2 0x100 EXP DUP2 SLOAD DUP2 PUSH20 0xFFFFFFFFFFFFFFFFFFFFFFFFFFFFFFFFFFFFFFFF MUL NOT AND SWAP1 DUP4 PUSH20 0xFFFFFFFFFFFFFFFFFFFFFFFFFFFFFFFFFFFFFFFF AND MUL OR SWAP1 SSTORE POP DUP1 DUP3 PUSH20 0xFFFFFFFFFFFFFFFFFFFFFFFFFFFFFFFFFFFFFFFF AND DUP5 PUSH20 0xFFFFFFFFFFFFFFFFFFFFFFFFFFFFFFFFFFFFFFFF AND PUSH32 0xDDF252AD1BE2C89B69C2B068FC378DAA952BA7F163C4A11628F55A4DF523B3EF PUSH1 0x40 MLOAD PUSH1 0x40 MLOAD DUP1 SWAP2 SUB SWAP1 LOG4 POP POP POP JUMP JUMPDEST PUSH1 0x0 DUP1 PUSH1 0x0 SWAP1 SLOAD SWAP1 PUSH2 0x100 EXP SWAP1 DIV PUSH20 0xFFFFFFFFFFFFFFFFFFFFFFFFFFFFFFFFFFFFFFFF AND SWAP1 POP DUP2 PUSH1 0x0 DUP1 PUSH2 0x100 EXP DUP2 SLOAD DUP2 PUSH20 0xFFFFFFFFFFFFFFFFFFFFFFFFFFFFFFFFFFFFFFFF MUL NOT AND SWAP1 DUP4 PUSH20 0xFFFFFFFFFFFFFFFFFFFFFFFFFFFFFFFFFFFFFFFF AND MUL OR SWAP1 SSTORE POP DUP2 PUSH20 0xFFFFFFFFFFFFFFFFFFFFFFFFFFFFFFFFFFFFFFFF AND DUP2 PUSH20 0xFFFFFFFFFFFFFFFFFFFFFFFFFFFFFFFFFFFFFFFF AND PUSH32 0x8BE0079C531659141344CD1FD0A4F28419497F9722A3DAAFE3B4186F6B6457E0 PUSH1 0x40 MLOAD PUSH1 0x40 MLOAD DUP1 SWAP2 SUB SWAP1 LOG3 POP POP JUMP JUMPDEST PUSH2 0x340E DUP5 DUP5 DUP5 PUSH2 0x30E3 JUMP JUMPDEST PUSH2 0x341A DUP5 DUP5 DUP5 DUP5 PUSH2 0x3ABD JUMP JUMPDEST PUSH2 0x3459 JUMPI PUSH1 0x40 MLOAD PUSH32 0x8C379A000000000000000000000000000000000000000000000000000000000 DUP2 MSTORE PUSH1 0x4 ADD PUSH2 0x3450 SWAP1 PUSH2 0x4BE9 JUMP JUMPDEST PUSH1 0x40 MLOAD DUP1 SWAP2 SUB SWAP1 REVERT JUMPDEST POP POP POP POP JUMP JUMPDEST PUSH1 0x0 DUP1 DUP4 EQ ISZERO PUSH2 0x3472 JUMPI PUSH1 0x0 SWAP1 POP PUSH2 0x34D4 JUMP JUMPDEST PUSH1 0x0 DUP3 DUP5 PUSH2 0x3480 SWAP2 SWAP1 PUSH2 0x51F8 JUMP JUMPDEST SWAP1 POP DUP3 DUP5 DUP3 PUSH2 0x348F SWAP2 SWAP1 PUSH2 0x51C7 JUMP JUMPDEST EQ PUSH2 0x34CF JUMPI PUSH1 0x40 MLOAD PUSH32 0x8C379A000000000000000000000000000000000000000000000000000000000 DUP2 MSTORE PUSH1 0x4 ADD PUSH2 0x34C6 SWAP1 PUSH2 0x4E29 JUMP JUMPDEST PUSH1 0x40 MLOAD DUP1 SWAP2 SUB SWAP1 REVERT JUMPDEST DUP1 SWAP2 POP POP JUMPDEST SWAP3 SWAP2 POP POP JUMP JUMPDEST PUSH1 0x0 DUP1 DUP3 PUSH1 0x7 PUSH1 0x0 SWAP1 SLOAD SWAP1 PUSH2 0x100 EXP SWAP1 DIV PUSH2 0xFFFF AND PUSH2 0x34F9 SWAP2 SWAP1 PUSH2 0x5252 JUMP JUMPDEST SWAP1 POP PUSH1 0x0 PUSH2 0x3507 DUP3 DUP6 PUSH2 0x134E JUMP JUMPDEST SWAP1 POP PUSH1 0x0 PUSH1 0xF PUSH1 0x0 DUP4 PUSH2 0xFFFF AND PUSH2 0xFFFF AND DUP2 MSTORE PUSH1 0x20 ADD SWAP1 DUP2 MSTORE PUSH1 0x20 ADD PUSH1 0x0 KECCAK256 PUSH1 0x0 SWAP1 SLOAD SWAP1 PUSH2 0x100 EXP SWAP1 DIV PUSH2 0xFFFF AND SWAP1 POP PUSH1 0x0 PUSH1 0xF PUSH1 0x0 DUP5 PUSH2 0xFFFF AND PUSH2 0xFFFF AND DUP2 MSTORE PUSH1 0x20 ADD SWAP1 DUP2 MSTORE PUSH1 0x20 ADD PUSH1 0x0 KECCAK256 PUSH1 0x0 SWAP1 SLOAD SWAP1 PUSH2 0x100 EXP SWAP1 DIV PUSH2 0xFFFF AND PUSH2 0xFFFF AND EQ ISZERO PUSH2 0x3571 JUMPI DUP2 SWAP1 POP JUMPDEST PUSH1 0x0 PUSH1 0xF PUSH1 0x0 PUSH1 0x1 DUP7 PUSH2 0x3584 SWAP2 SWAP1 PUSH2 0x5252 JUMP JUMPDEST PUSH2 0xFFFF AND PUSH2 0xFFFF AND DUP2 MSTORE PUSH1 0x20 ADD SWAP1 DUP2 MSTORE PUSH1 0x20 ADD PUSH1 0x0 KECCAK256 PUSH1 0x0 SWAP1 SLOAD SWAP1 PUSH2 0x100 EXP SWAP1 DIV PUSH2 0xFFFF AND PUSH2 0xFFFF AND EQ PUSH2 0x3621 JUMPI PUSH1 0xF PUSH1 0x0 PUSH1 0x1 DUP6 PUSH2 0x35C3 SWAP2 SWAP1 PUSH2 0x5252 JUMP JUMPDEST PUSH2 0xFFFF AND PUSH2 0xFFFF AND DUP2 MSTORE PUSH1 0x20 ADD SWAP1 DUP2 MSTORE PUSH1 0x20 ADD PUSH1 0x0 KECCAK256 PUSH1 0x0 SWAP1 SLOAD SWAP1 PUSH2 0x100 EXP SWAP1 DIV PUSH2 0xFFFF AND PUSH1 0xF PUSH1 0x0 DUP5 PUSH2 0xFFFF AND PUSH2 0xFFFF AND DUP2 MSTORE PUSH1 0x20 ADD SWAP1 DUP2 MSTORE PUSH1 0x20 ADD PUSH1 0x0 KECCAK256 PUSH1 0x0 PUSH2 0x100 EXP DUP2 SLOAD DUP2 PUSH2 0xFFFF MUL NOT AND SWAP1 DUP4 PUSH2 0xFFFF AND MUL OR SWAP1 SSTORE PUSH2 0x3663 JUMP JUMPDEST PUSH1 0x1 DUP4 PUSH2 0x362E SWAP2 SWAP1 PUSH2 0x5252 JUMP JUMPDEST PUSH1 0xF PUSH1 0x0 DUP5 PUSH2 0xFFFF AND PUSH2 0xFFFF AND DUP2 MSTORE PUSH1 0x20 ADD SWAP1 DUP2 MSTORE PUSH1 0x20 ADD PUSH1 0x0 KECCAK256 PUSH1 0x0 PUSH2 0x100 EXP DUP2 SLOAD DUP2 PUSH2 0xFFFF MUL NOT AND SWAP1 DUP4 PUSH2 0xFFFF AND MUL OR SWAP1 SSTORE JUMPDEST POP DUP1 SWAP4 POP POP POP POP SWAP2 SWAP1 POP JUMP JUMPDEST PUSH1 0x0 PUSH20 0xFFFFFFFFFFFFFFFFFFFFFFFFFFFFFFFFFFFFFFFF AND DUP3 PUSH20 0xFFFFFFFFFFFFFFFFFFFFFFFFFFFFFFFFFFFFFFFF AND EQ ISZERO PUSH2 0x36DF JUMPI PUSH1 0x40 MLOAD PUSH32 0x8C379A000000000000000000000000000000000000000000000000000000000 DUP2 MSTORE PUSH1 0x4 ADD PUSH2 0x36D6 SWAP1 PUSH2 0x4DE9 JUMP JUMPDEST PUSH1 0x40 MLOAD DUP1 SWAP2 SUB SWAP1 REVERT JUMPDEST DUP1 MLOAD PUSH1 0x4 PUSH1 0x0 DUP5 PUSH20 0xFFFFFFFFFFFFFFFFFFFFFFFFFFFFFFFFFFFFFFFF AND PUSH20 0xFFFFFFFFFFFFFFFFFFFFFFFFFFFFFFFFFFFFFFFF AND DUP2 MSTORE PUSH1 0x20 ADD SWAP1 DUP2 MSTORE PUSH1 0x20 ADD PUSH1 0x0 KECCAK256 PUSH1 0x0 DUP3 DUP3 SLOAD PUSH2 0x372F SWAP2 SWAP1 PUSH2 0x5171 JUMP JUMPDEST SWAP3 POP POP DUP2 SWAP1 SSTORE POP PUSH1 0x0 JUMPDEST DUP2 MLOAD DUP2 LT ISZERO PUSH2 0x38C0 JUMPI PUSH2 0x3765 DUP3 DUP3 DUP2 MLOAD DUP2 LT PUSH2 0x3758 JUMPI PUSH2 0x3757 PUSH2 0x5623 JUMP JUMPDEST JUMPDEST PUSH1 0x20 MUL PUSH1 0x20 ADD ADD MLOAD PUSH2 0x2ED8 JUMP JUMPDEST ISZERO PUSH2 0x37A5 JUMPI PUSH1 0x40 MLOAD PUSH32 0x8C379A000000000000000000000000000000000000000000000000000000000 DUP2 MSTORE PUSH1 0x4 ADD PUSH2 0x379C SWAP1 PUSH2 0x4C29 JUMP JUMPDEST PUSH1 0x40 MLOAD DUP1 SWAP2 SUB SWAP1 REVERT JUMPDEST PUSH2 0x37CB PUSH1 0x0 DUP5 DUP5 DUP5 DUP2 MLOAD DUP2 LT PUSH2 0x37BE JUMPI PUSH2 0x37BD PUSH2 0x5623 JUMP JUMPDEST JUMPDEST PUSH1 0x20 MUL PUSH1 0x20 ADD ADD MLOAD PUSH2 0x3AB8 JUMP JUMPDEST DUP3 PUSH1 0x3 PUSH1 0x0 DUP5 DUP5 DUP2 MLOAD DUP2 LT PUSH2 0x37E3 JUMPI PUSH2 0x37E2 PUSH2 0x5623 JUMP JUMPDEST JUMPDEST PUSH1 0x20 MUL PUSH1 0x20 ADD ADD MLOAD DUP2 MSTORE PUSH1 0x20 ADD SWAP1 DUP2 MSTORE PUSH1 0x20 ADD PUSH1 0x0 KECCAK256 PUSH1 0x0 PUSH2 0x100 EXP DUP2 SLOAD DUP2 PUSH20 0xFFFFFFFFFFFFFFFFFFFFFFFFFFFFFFFFFFFFFFFF MUL NOT AND SWAP1 DUP4 PUSH20 0xFFFFFFFFFFFFFFFFFFFFFFFFFFFFFFFFFFFFFFFF AND MUL OR SWAP1 SSTORE POP DUP2 DUP2 DUP2 MLOAD DUP2 LT PUSH2 0x384A JUMPI PUSH2 0x3849 PUSH2 0x5623 JUMP JUMPDEST JUMPDEST PUSH1 0x20 MUL PUSH1 0x20 ADD ADD MLOAD DUP4 PUSH20 0xFFFFFFFFFFFFFFFFFFFFFFFFFFFFFFFFFFFFFFFF AND PUSH1 0x0 PUSH20 0xFFFFFFFFFFFFFFFFFFFFFFFFFFFFFFFFFFFFFFFF AND PUSH32 0xDDF252AD1BE2C89B69C2B068FC378DAA952BA7F163C4A11628F55A4DF523B3EF PUSH1 0x40 MLOAD PUSH1 0x40 MLOAD DUP1 SWAP2 SUB SWAP1 LOG4 DUP1 DUP1 PUSH2 0x38B8 SWAP1 PUSH2 0x548F JUMP JUMPDEST SWAP2 POP POP PUSH2 0x3739 JUMP JUMPDEST POP POP POP JUMP JUMPDEST PUSH1 0x60 PUSH1 0xC DUP1 SLOAD PUSH2 0x38D4 SWAP1 PUSH2 0x5401 JUMP JUMPDEST DUP1 PUSH1 0x1F ADD PUSH1 0x20 DUP1 SWAP2 DIV MUL PUSH1 0x20 ADD PUSH1 0x40 MLOAD SWAP1 DUP2 ADD PUSH1 0x40 MSTORE DUP1 SWAP3 SWAP2 SWAP1 DUP2 DUP2 MSTORE PUSH1 0x20 ADD DUP3 DUP1 SLOAD PUSH2 0x3900 SWAP1 PUSH2 0x5401 JUMP JUMPDEST DUP1 ISZERO PUSH2 0x394D JUMPI DUP1 PUSH1 0x1F LT PUSH2 0x3922 JUMPI PUSH2 0x100 DUP1 DUP4 SLOAD DIV MUL DUP4 MSTORE SWAP2 PUSH1 0x20 ADD SWAP2 PUSH2 0x394D JUMP JUMPDEST DUP3 ADD SWAP2 SWAP1 PUSH1 0x0 MSTORE PUSH1 0x20 PUSH1 0x0 KECCAK256 SWAP1 JUMPDEST DUP2 SLOAD DUP2 MSTORE SWAP1 PUSH1 0x1 ADD SWAP1 PUSH1 0x20 ADD DUP1 DUP4 GT PUSH2 0x3930 JUMPI DUP3 SWAP1 SUB PUSH1 0x1F AND DUP3 ADD SWAP2 JUMPDEST POP POP POP POP POP SWAP1 POP SWAP1 JUMP JUMPDEST PUSH1 0x60 PUSH1 0x0 DUP3 EQ ISZERO PUSH2 0x399F JUMPI PUSH1 0x40 MLOAD DUP1 PUSH1 0x40 ADD PUSH1 0x40 MSTORE DUP1 PUSH1 0x1 DUP2 MSTORE PUSH1 0x20 ADD PUSH32 0x3000000000000000000000000000000000000000000000000000000000000000 DUP2 MSTORE POP SWAP1 POP PUSH2 0x3AB3 JUMP JUMPDEST PUSH1 0x0 DUP3 SWAP1 POP PUSH1 0x0 JUMPDEST PUSH1 0x0 DUP3 EQ PUSH2 0x39D1 JUMPI DUP1 DUP1 PUSH2 0x39BA SWAP1 PUSH2 0x548F JUMP JUMPDEST SWAP2 POP POP PUSH1 0xA DUP3 PUSH2 0x39CA SWAP2 SWAP1 PUSH2 0x51C7 JUMP JUMPDEST SWAP2 POP PUSH2 0x39A7 JUMP JUMPDEST PUSH1 0x0 DUP2 PUSH8 0xFFFFFFFFFFFFFFFF DUP2 GT ISZERO PUSH2 0x39ED JUMPI PUSH2 0x39EC PUSH2 0x5652 JUMP JUMPDEST JUMPDEST PUSH1 0x40 MLOAD SWAP1 DUP1 DUP3 MSTORE DUP1 PUSH1 0x1F ADD PUSH1 0x1F NOT AND PUSH1 0x20 ADD DUP3 ADD PUSH1 0x40 MSTORE DUP1 ISZERO PUSH2 0x3A1F JUMPI DUP2 PUSH1 0x20 ADD PUSH1 0x1 DUP3 MUL DUP1 CALLDATASIZE DUP4 CALLDATACOPY DUP1 DUP3 ADD SWAP2 POP POP SWAP1 POP JUMPDEST POP SWAP1 POP JUMPDEST PUSH1 0x0 DUP6 EQ PUSH2 0x3AAC JUMPI PUSH1 0x1 DUP3 PUSH2 0x3A38 SWAP2 SWAP1 PUSH2 0x5286 JUMP JUMPDEST SWAP2 POP PUSH1 0xA DUP6 PUSH2 0x3A47 SWAP2 SWAP1 PUSH2 0x5565 JUMP JUMPDEST PUSH1 0x30 PUSH2 0x3A53 SWAP2 SWAP1 PUSH2 0x5171 JUMP JUMPDEST PUSH1 0xF8 SHL DUP2 DUP4 DUP2 MLOAD DUP2 LT PUSH2 0x3A69 JUMPI PUSH2 0x3A68 PUSH2 0x5623 JUMP JUMPDEST JUMPDEST PUSH1 0x20 ADD ADD SWAP1 PUSH31 0xFFFFFFFFFFFFFFFFFFFFFFFFFFFFFFFFFFFFFFFFFFFFFFFFFFFFFFFFFFFFFF NOT AND SWAP1 DUP2 PUSH1 0x0 BYTE SWAP1 MSTORE8 POP PUSH1 0xA DUP6 PUSH2 0x3AA5 SWAP2 SWAP1 PUSH2 0x51C7 JUMP JUMPDEST SWAP5 POP PUSH2 0x3A23 JUMP JUMPDEST DUP1 SWAP4 POP POP POP POP JUMPDEST SWAP2 SWAP1 POP JUMP JUMPDEST POP POP POP JUMP JUMPDEST PUSH1 0x0 PUSH2 0x3ADE DUP5 PUSH20 0xFFFFFFFFFFFFFFFFFFFFFFFFFFFFFFFFFFFFFFFF AND PUSH2 0x3C54 JUMP JUMPDEST ISZERO PUSH2 0x3C47 JUMPI DUP4 PUSH20 0xFFFFFFFFFFFFFFFFFFFFFFFFFFFFFFFFFFFFFFFF AND PUSH4 0x150B7A02 PUSH2 0x3B07 PUSH2 0x2F44 JUMP JUMPDEST DUP8 DUP7 DUP7 PUSH1 0x40 MLOAD DUP6 PUSH4 0xFFFFFFFF AND PUSH1 0xE0 SHL DUP2 MSTORE PUSH1 0x4 ADD PUSH2 0x3B29 SWAP5 SWAP4 SWAP3 SWAP2 SWAP1 PUSH2 0x4AC1 JUMP JUMPDEST PUSH1 0x20 PUSH1 0x40 MLOAD DUP1 DUP4 SUB DUP2 PUSH1 0x0 DUP8 DUP1 EXTCODESIZE ISZERO DUP1 ISZERO PUSH2 0x3B43 JUMPI PUSH1 0x0 DUP1 REVERT JUMPDEST POP GAS CALL SWAP3 POP POP POP DUP1 ISZERO PUSH2 0x3B74 JUMPI POP PUSH1 0x40 MLOAD RETURNDATASIZE PUSH1 0x1F NOT PUSH1 0x1F DUP3 ADD AND DUP3 ADD DUP1 PUSH1 0x40 MSTORE POP DUP2 ADD SWAP1 PUSH2 0x3B71 SWAP2 SWAP1 PUSH2 0x41ED JUMP JUMPDEST PUSH1 0x1 JUMPDEST PUSH2 0x3BF7 JUMPI RETURNDATASIZE DUP1 PUSH1 0x0 DUP2 EQ PUSH2 0x3BA4 JUMPI PUSH1 0x40 MLOAD SWAP2 POP PUSH1 0x1F NOT PUSH1 0x3F RETURNDATASIZE ADD AND DUP3 ADD PUSH1 0x40 MSTORE RETURNDATASIZE DUP3 MSTORE RETURNDATASIZE PUSH1 0x0 PUSH1 0x20 DUP5 ADD RETURNDATACOPY PUSH2 0x3BA9 JUMP JUMPDEST PUSH1 0x60 SWAP2 POP JUMPDEST POP PUSH1 0x0 DUP2 MLOAD EQ ISZERO PUSH2 0x3BEF JUMPI PUSH1 0x40 MLOAD PUSH32 0x8C379A000000000000000000000000000000000000000000000000000000000 DUP2 MSTORE PUSH1 0x4 ADD PUSH2 0x3BE6 SWAP1 PUSH2 0x4BE9 JUMP JUMPDEST PUSH1 0x40 MLOAD DUP1 SWAP2 SUB SWAP1 REVERT JUMPDEST DUP1 MLOAD DUP2 PUSH1 0x20 ADD REVERT JUMPDEST PUSH4 0x150B7A02 PUSH1 0xE0 SHL PUSH28 0xFFFFFFFFFFFFFFFFFFFFFFFFFFFFFFFFFFFFFFFFFFFFFFFFFFFFFFFF NOT AND DUP2 PUSH28 0xFFFFFFFFFFFFFFFFFFFFFFFFFFFFFFFFFFFFFFFFFFFFFFFFFFFFFFFF NOT AND EQ SWAP2 POP POP PUSH2 0x3C4C JUMP JUMPDEST PUSH1 0x1 SWAP1 POP JUMPDEST SWAP5 SWAP4 POP POP POP POP JUMP JUMPDEST PUSH1 0x0 DUP1 DUP3 EXTCODESIZE SWAP1 POP PUSH1 0x0 DUP2 GT SWAP2 POP POP SWAP2 SWAP1 POP JUMP JUMPDEST DUP3 DUP1 SLOAD PUSH2 0x3C73 SWAP1 PUSH2 0x5401 JUMP JUMPDEST SWAP1 PUSH1 0x0 MSTORE PUSH1 0x20 PUSH1 0x0 KECCAK256 SWAP1 PUSH1 0x1F ADD PUSH1 0x20 SWAP1 DIV DUP2 ADD SWAP3 DUP3 PUSH2 0x3C95 JUMPI PUSH1 0x0 DUP6 SSTORE PUSH2 0x3CDC JUMP JUMPDEST DUP3 PUSH1 0x1F LT PUSH2 0x3CAE JUMPI DUP1 MLOAD PUSH1 0xFF NOT AND DUP4 DUP1 ADD OR DUP6 SSTORE PUSH2 0x3CDC JUMP JUMPDEST DUP3 DUP1 ADD PUSH1 0x1 ADD DUP6 SSTORE DUP3 ISZERO PUSH2 0x3CDC JUMPI SWAP2 DUP3 ADD JUMPDEST DUP3 DUP2 GT ISZERO PUSH2 0x3CDB JUMPI DUP3 MLOAD DUP3 SSTORE SWAP2 PUSH1 0x20 ADD SWAP2 SWAP1 PUSH1 0x1 ADD SWAP1 PUSH2 0x3CC0 JUMP JUMPDEST JUMPDEST POP SWAP1 POP PUSH2 0x3CE9 SWAP2 SWAP1 PUSH2 0x3CED JUMP JUMPDEST POP SWAP1 JUMP JUMPDEST JUMPDEST DUP1 DUP3 GT ISZERO PUSH2 0x3D06 JUMPI PUSH1 0x0 DUP2 PUSH1 0x0 SWAP1 SSTORE POP PUSH1 0x1 ADD PUSH2 0x3CEE JUMP JUMPDEST POP SWAP1 JUMP JUMPDEST PUSH1 0x0 PUSH2 0x3D1D PUSH2 0x3D18 DUP5 PUSH2 0x5068 JUMP JUMPDEST PUSH2 0x5043 JUMP JUMPDEST SWAP1 POP DUP1 DUP4 DUP3 MSTORE PUSH1 0x20 DUP3 ADD SWAP1 POP DUP3 DUP6 PUSH1 0x20 DUP7 MUL DUP3 ADD GT ISZERO PUSH2 0x3D40 JUMPI PUSH2 0x3D3F PUSH2 0x5686 JUMP JUMPDEST JUMPDEST PUSH1 0x0 JUMPDEST DUP6 DUP2 LT ISZERO PUSH2 0x3D70 JUMPI DUP2 PUSH2 0x3D56 DUP9 DUP3 PUSH2 0x3F30 JUMP JUMPDEST DUP5 MSTORE PUSH1 0x20 DUP5 ADD SWAP4 POP PUSH1 0x20 DUP4 ADD SWAP3 POP POP PUSH1 0x1 DUP2 ADD SWAP1 POP PUSH2 0x3D43 JUMP JUMPDEST POP POP POP SWAP4 SWAP3 POP POP POP JUMP JUMPDEST PUSH1 0x0 PUSH2 0x3D8D PUSH2 0x3D88 DUP5 PUSH2 0x5094 JUMP JUMPDEST PUSH2 0x5043 JUMP JUMPDEST SWAP1 POP DUP3 DUP2 MSTORE PUSH1 0x20 DUP2 ADD DUP5 DUP5 DUP5 ADD GT ISZERO PUSH2 0x3DA9 JUMPI PUSH2 0x3DA8 PUSH2 0x568B JUMP JUMPDEST JUMPDEST PUSH2 0x3DB4 DUP5 DUP3 DUP6 PUSH2 0x53BF JUMP JUMPDEST POP SWAP4 SWAP3 POP POP POP JUMP JUMPDEST PUSH1 0x0 PUSH2 0x3DCF PUSH2 0x3DCA DUP5 PUSH2 0x50C5 JUMP JUMPDEST PUSH2 0x5043 JUMP JUMPDEST SWAP1 POP DUP3 DUP2 MSTORE PUSH1 0x20 DUP2 ADD DUP5 DUP5 DUP5 ADD GT ISZERO PUSH2 0x3DEB JUMPI PUSH2 0x3DEA PUSH2 0x568B JUMP JUMPDEST JUMPDEST PUSH2 0x3DF6 DUP5 DUP3 DUP6 PUSH2 0x53BF JUMP JUMPDEST POP SWAP4 SWAP3 POP POP POP JUMP JUMPDEST PUSH1 0x0 DUP2 CALLDATALOAD SWAP1 POP PUSH2 0x3E0D DUP2 PUSH2 0x5EBA JUMP JUMPDEST SWAP3 SWAP2 POP POP JUMP JUMPDEST PUSH1 0x0 DUP3 PUSH1 0x1F DUP4 ADD SLT PUSH2 0x3E28 JUMPI PUSH2 0x3E27 PUSH2 0x5681 JUMP JUMPDEST JUMPDEST DUP2 MLOAD PUSH2 0x3E38 DUP5 DUP3 PUSH1 0x20 DUP7 ADD PUSH2 0x3D0A JUMP JUMPDEST SWAP2 POP POP SWAP3 SWAP2 POP POP JUMP JUMPDEST PUSH1 0x0 DUP2 CALLDATALOAD SWAP1 POP PUSH2 0x3E50 DUP2 PUSH2 0x5ED1 JUMP JUMPDEST SWAP3 SWAP2 POP POP JUMP JUMPDEST PUSH1 0x0 DUP2 MLOAD SWAP1 POP PUSH2 0x3E65 DUP2 PUSH2 0x5ED1 JUMP JUMPDEST SWAP3 SWAP2 POP POP JUMP JUMPDEST PUSH1 0x0 DUP2 CALLDATALOAD SWAP1 POP PUSH2 0x3E7A DUP2 PUSH2 0x5EE8 JUMP JUMPDEST SWAP3 SWAP2 POP POP JUMP JUMPDEST PUSH1 0x0 DUP2 MLOAD SWAP1 POP PUSH2 0x3E8F DUP2 PUSH2 0x5EE8 JUMP JUMPDEST SWAP3 SWAP2 POP POP JUMP JUMPDEST PUSH1 0x0 DUP3 PUSH1 0x1F DUP4 ADD SLT PUSH2 0x3EAA JUMPI PUSH2 0x3EA9 PUSH2 0x5681 JUMP JUMPDEST JUMPDEST DUP2 CALLDATALOAD PUSH2 0x3EBA DUP5 DUP3 PUSH1 0x20 DUP7 ADD PUSH2 0x3D7A JUMP JUMPDEST SWAP2 POP POP SWAP3 SWAP2 POP POP JUMP JUMPDEST PUSH1 0x0 DUP2 CALLDATALOAD SWAP1 POP PUSH2 0x3ED2 DUP2 PUSH2 0x5EFF JUMP JUMPDEST SWAP3 SWAP2 POP POP JUMP JUMPDEST PUSH1 0x0 DUP3 PUSH1 0x1F DUP4 ADD SLT PUSH2 0x3EED JUMPI PUSH2 0x3EEC PUSH2 0x5681 JUMP JUMPDEST JUMPDEST DUP2 CALLDATALOAD PUSH2 0x3EFD DUP5 DUP3 PUSH1 0x20 DUP7 ADD PUSH2 0x3DBC JUMP JUMPDEST SWAP2 POP POP SWAP3 SWAP2 POP POP JUMP JUMPDEST PUSH1 0x0 DUP2 CALLDATALOAD SWAP1 POP PUSH2 0x3F15 DUP2 PUSH2 0x5F16 JUMP JUMPDEST SWAP3 SWAP2 POP POP JUMP JUMPDEST PUSH1 0x0 DUP2 CALLDATALOAD SWAP1 POP PUSH2 0x3F2A DUP2 PUSH2 0x5F2D JUMP JUMPDEST SWAP3 SWAP2 POP POP JUMP JUMPDEST PUSH1 0x0 DUP2 MLOAD SWAP1 POP PUSH2 0x3F3F DUP2 PUSH2 0x5F2D JUMP JUMPDEST SWAP3 SWAP2 POP POP JUMP JUMPDEST PUSH1 0x0 DUP2 CALLDATALOAD SWAP1 POP PUSH2 0x3F54 DUP2 PUSH2 0x5F44 JUMP JUMPDEST SWAP3 SWAP2 POP POP JUMP JUMPDEST PUSH1 0x0 PUSH1 0x20 DUP3 DUP5 SUB SLT ISZERO PUSH2 0x3F70 JUMPI PUSH2 0x3F6F PUSH2 0x5695 JUMP JUMPDEST JUMPDEST PUSH1 0x0 PUSH2 0x3F7E DUP5 DUP3 DUP6 ADD PUSH2 0x3DFE JUMP JUMPDEST SWAP2 POP POP SWAP3 SWAP2 POP POP JUMP JUMPDEST PUSH1 0x0 DUP1 PUSH1 0x40 DUP4 DUP6 SUB SLT ISZERO PUSH2 0x3F9E JUMPI PUSH2 0x3F9D PUSH2 0x5695 JUMP JUMPDEST JUMPDEST PUSH1 0x0 PUSH2 0x3FAC DUP6 DUP3 DUP7 ADD PUSH2 0x3DFE JUMP JUMPDEST SWAP3 POP POP PUSH1 0x20 PUSH2 0x3FBD DUP6 DUP3 DUP7 ADD PUSH2 0x3DFE JUMP JUMPDEST SWAP2 POP POP SWAP3 POP SWAP3 SWAP1 POP JUMP JUMPDEST PUSH1 0x0 DUP1 PUSH1 0x0 PUSH1 0x60 DUP5 DUP7 SUB SLT ISZERO PUSH2 0x3FE0 JUMPI PUSH2 0x3FDF PUSH2 0x5695 JUMP JUMPDEST JUMPDEST PUSH1 0x0 PUSH2 0x3FEE DUP7 DUP3 DUP8 ADD PUSH2 0x3DFE JUMP JUMPDEST SWAP4 POP POP PUSH1 0x20 PUSH2 0x3FFF DUP7 DUP3 DUP8 ADD PUSH2 0x3DFE JUMP JUMPDEST SWAP3 POP POP PUSH1 0x40 PUSH2 0x4010 DUP7 DUP3 DUP8 ADD PUSH2 0x3F1B JUMP JUMPDEST SWAP2 POP POP SWAP3 POP SWAP3 POP SWAP3 JUMP JUMPDEST PUSH1 0x0 DUP1 PUSH1 0x0 DUP1 PUSH1 0x80 DUP6 DUP8 SUB SLT ISZERO PUSH2 0x4034 JUMPI PUSH2 0x4033 PUSH2 0x5695 JUMP JUMPDEST JUMPDEST PUSH1 0x0 PUSH2 0x4042 DUP8 DUP3 DUP9 ADD PUSH2 0x3DFE JUMP JUMPDEST SWAP5 POP POP PUSH1 0x20 PUSH2 0x4053 DUP8 DUP3 DUP9 ADD PUSH2 0x3DFE JUMP JUMPDEST SWAP4 POP POP PUSH1 0x40 PUSH2 0x4064 DUP8 DUP3 DUP9 ADD PUSH2 0x3F1B JUMP JUMPDEST SWAP3 POP POP PUSH1 0x60 DUP6 ADD CALLDATALOAD PUSH8 0xFFFFFFFFFFFFFFFF DUP2 GT ISZERO PUSH2 0x4085 JUMPI PUSH2 0x4084 PUSH2 0x5690 JUMP JUMPDEST JUMPDEST PUSH2 0x4091 DUP8 DUP3 DUP9 ADD PUSH2 0x3E95 JUMP JUMPDEST SWAP2 POP POP SWAP3 SWAP6 SWAP2 SWAP5 POP SWAP3 POP JUMP JUMPDEST PUSH1 0x0 DUP1 PUSH1 0x40 DUP4 DUP6 SUB SLT ISZERO PUSH2 0x40B4 JUMPI PUSH2 0x40B3 PUSH2 0x5695 JUMP JUMPDEST JUMPDEST PUSH1 0x0 PUSH2 0x40C2 DUP6 DUP3 DUP7 ADD PUSH2 0x3DFE JUMP JUMPDEST SWAP3 POP POP PUSH1 0x20 PUSH2 0x40D3 DUP6 DUP3 DUP7 ADD PUSH2 0x3E41 JUMP JUMPDEST SWAP2 POP POP SWAP3 POP SWAP3 SWAP1 POP JUMP JUMPDEST PUSH1 0x0 DUP1 PUSH1 0x40 DUP4 DUP6 SUB SLT ISZERO PUSH2 0x40F4 JUMPI PUSH2 0x40F3 PUSH2 0x5695 JUMP JUMPDEST JUMPDEST PUSH1 0x0 PUSH2 0x4102 DUP6 DUP3 DUP7 ADD PUSH2 0x3DFE JUMP JUMPDEST SWAP3 POP POP PUSH1 0x20 PUSH2 0x4113 DUP6 DUP3 DUP7 ADD PUSH2 0x3F1B JUMP JUMPDEST SWAP2 POP POP SWAP3 POP SWAP3 SWAP1 POP JUMP JUMPDEST PUSH1 0x0 PUSH1 0x20 DUP3 DUP5 SUB SLT ISZERO PUSH2 0x4133 JUMPI PUSH2 0x4132 PUSH2 0x5695 JUMP JUMPDEST JUMPDEST PUSH1 0x0 DUP3 ADD MLOAD PUSH8 0xFFFFFFFFFFFFFFFF DUP2 GT ISZERO PUSH2 0x4151 JUMPI PUSH2 0x4150 PUSH2 0x5690 JUMP JUMPDEST JUMPDEST PUSH2 0x415D DUP5 DUP3 DUP6 ADD PUSH2 0x3E13 JUMP JUMPDEST SWAP2 POP POP SWAP3 SWAP2 POP POP JUMP JUMPDEST PUSH1 0x0 PUSH1 0x20 DUP3 DUP5 SUB SLT ISZERO PUSH2 0x417C JUMPI PUSH2 0x417B PUSH2 0x5695 JUMP JUMPDEST JUMPDEST PUSH1 0x0 PUSH2 0x418A DUP5 DUP3 DUP6 ADD PUSH2 0x3E41 JUMP JUMPDEST SWAP2 POP POP SWAP3 SWAP2 POP POP JUMP JUMPDEST PUSH1 0x0 PUSH1 0x20 DUP3 DUP5 SUB SLT ISZERO PUSH2 0x41A9 JUMPI PUSH2 0x41A8 PUSH2 0x5695 JUMP JUMPDEST JUMPDEST PUSH1 0x0 PUSH2 0x41B7 DUP5 DUP3 DUP6 ADD PUSH2 0x3E56 JUMP JUMPDEST SWAP2 POP POP SWAP3 SWAP2 POP POP JUMP JUMPDEST PUSH1 0x0 PUSH1 0x20 DUP3 DUP5 SUB SLT ISZERO PUSH2 0x41D6 JUMPI PUSH2 0x41D5 PUSH2 0x5695 JUMP JUMPDEST JUMPDEST PUSH1 0x0 PUSH2 0x41E4 DUP5 DUP3 DUP6 ADD PUSH2 0x3E6B JUMP JUMPDEST SWAP2 POP POP SWAP3 SWAP2 POP POP JUMP JUMPDEST PUSH1 0x0 PUSH1 0x20 DUP3 DUP5 SUB SLT ISZERO PUSH2 0x4203 JUMPI PUSH2 0x4202 PUSH2 0x5695 JUMP JUMPDEST JUMPDEST PUSH1 0x0 PUSH2 0x4211 DUP5 DUP3 DUP6 ADD PUSH2 0x3E80 JUMP JUMPDEST SWAP2 POP POP SWAP3 SWAP2 POP POP JUMP JUMPDEST PUSH1 0x0 PUSH1 0x20 DUP3 DUP5 SUB SLT ISZERO PUSH2 0x4230 JUMPI PUSH2 0x422F PUSH2 0x5695 JUMP JUMPDEST JUMPDEST PUSH1 0x0 PUSH2 0x423E DUP5 DUP3 DUP6 ADD PUSH2 0x3EC3 JUMP JUMPDEST SWAP2 POP POP SWAP3 SWAP2 POP POP JUMP JUMPDEST PUSH1 0x0 PUSH1 0x20 DUP3 DUP5 SUB SLT ISZERO PUSH2 0x425D JUMPI PUSH2 0x425C PUSH2 0x5695 JUMP JUMPDEST JUMPDEST PUSH1 0x0 DUP3 ADD CALLDATALOAD PUSH8 0xFFFFFFFFFFFFFFFF DUP2 GT ISZERO PUSH2 0x427B JUMPI PUSH2 0x427A PUSH2 0x5690 JUMP JUMPDEST JUMPDEST PUSH2 0x4287 DUP5 DUP3 DUP6 ADD PUSH2 0x3ED8 JUMP JUMPDEST SWAP2 POP POP SWAP3 SWAP2 POP POP JUMP JUMPDEST PUSH1 0x0 PUSH1 0x20 DUP3 DUP5 SUB SLT ISZERO PUSH2 0x42A6 JUMPI PUSH2 0x42A5 PUSH2 0x5695 JUMP JUMPDEST JUMPDEST PUSH1 0x0 PUSH2 0x42B4 DUP5 DUP3 DUP6 ADD PUSH2 0x3F06 JUMP JUMPDEST SWAP2 POP POP SWAP3 SWAP2 POP POP JUMP JUMPDEST PUSH1 0x0 DUP1 PUSH1 0x0 PUSH1 0x60 DUP5 DUP7 SUB SLT ISZERO PUSH2 0x42D6 JUMPI PUSH2 0x42D5 PUSH2 0x5695 JUMP JUMPDEST JUMPDEST PUSH1 0x0 PUSH2 0x42E4 DUP7 DUP3 DUP8 ADD PUSH2 0x3F06 JUMP JUMPDEST SWAP4 POP POP PUSH1 0x20 PUSH2 0x42F5 DUP7 DUP3 DUP8 ADD PUSH2 0x3DFE JUMP JUMPDEST SWAP3 POP POP PUSH1 0x40 PUSH2 0x4306 DUP7 DUP3 DUP8 ADD PUSH2 0x3F1B JUMP JUMPDEST SWAP2 POP POP SWAP3 POP SWAP3 POP SWAP3 JUMP JUMPDEST PUSH1 0x0 DUP1 PUSH1 0x40 DUP4 DUP6 SUB SLT ISZERO PUSH2 0x4327 JUMPI PUSH2 0x4326 PUSH2 0x5695 JUMP JUMPDEST JUMPDEST PUSH1 0x0 PUSH2 0x4335 DUP6 DUP3 DUP7 ADD PUSH2 0x3F06 JUMP JUMPDEST SWAP3 POP POP PUSH1 0x20 PUSH2 0x4346 DUP6 DUP3 DUP7 ADD PUSH2 0x3F06 JUMP JUMPDEST SWAP2 POP POP SWAP3 POP SWAP3 SWAP1 POP JUMP JUMPDEST PUSH1 0x0 DUP1 PUSH1 0x40 DUP4 DUP6 SUB SLT ISZERO PUSH2 0x4367 JUMPI PUSH2 0x4366 PUSH2 0x5695 JUMP JUMPDEST JUMPDEST PUSH1 0x0 PUSH2 0x4375 DUP6 DUP3 DUP7 ADD PUSH2 0x3F06 JUMP JUMPDEST SWAP3 POP POP PUSH1 0x20 PUSH2 0x4386 DUP6 DUP3 DUP7 ADD PUSH2 0x3F1B JUMP JUMPDEST SWAP2 POP POP SWAP3 POP SWAP3 SWAP1 POP JUMP JUMPDEST PUSH1 0x0 PUSH1 0x20 DUP3 DUP5 SUB SLT ISZERO PUSH2 0x43A6 JUMPI PUSH2 0x43A5 PUSH2 0x5695 JUMP JUMPDEST JUMPDEST PUSH1 0x0 PUSH2 0x43B4 DUP5 DUP3 DUP6 ADD PUSH2 0x3F1B JUMP JUMPDEST SWAP2 POP POP SWAP3 SWAP2 POP POP JUMP JUMPDEST PUSH1 0x0 PUSH1 0x20 DUP3 DUP5 SUB SLT ISZERO PUSH2 0x43D3 JUMPI PUSH2 0x43D2 PUSH2 0x5695 JUMP JUMPDEST JUMPDEST PUSH1 0x0 PUSH2 0x43E1 DUP5 DUP3 DUP6 ADD PUSH2 0x3F45 JUMP JUMPDEST SWAP2 POP POP SWAP3 SWAP2 POP POP JUMP JUMPDEST PUSH2 0x43FB PUSH2 0x43F6 DUP3 PUSH2 0x52CC JUMP JUMPDEST PUSH2 0x54EA JUMP JUMPDEST DUP3 MSTORE POP POP JUMP JUMPDEST PUSH2 0x440A DUP2 PUSH2 0x52BA JUMP JUMPDEST DUP3 MSTORE POP POP JUMP JUMPDEST PUSH2 0x4421 PUSH2 0x441C DUP3 PUSH2 0x52BA JUMP JUMPDEST PUSH2 0x54D8 JUMP JUMPDEST DUP3 MSTORE POP POP JUMP JUMPDEST PUSH2 0x4430 DUP2 PUSH2 0x52DE JUMP JUMPDEST DUP3 MSTORE POP POP JUMP JUMPDEST PUSH2 0x4447 PUSH2 0x4442 DUP3 PUSH2 0x52EA JUMP JUMPDEST PUSH2 0x54FC JUMP JUMPDEST DUP3 MSTORE POP POP JUMP JUMPDEST PUSH1 0x0 PUSH2 0x4458 DUP3 PUSH2 0x50F6 JUMP JUMPDEST PUSH2 0x4462 DUP2 DUP6 PUSH2 0x510C JUMP JUMPDEST SWAP4 POP PUSH2 0x4472 DUP2 DUP6 PUSH1 0x20 DUP7 ADD PUSH2 0x53CE JUMP JUMPDEST PUSH2 0x447B DUP2 PUSH2 0x569A JUMP JUMPDEST DUP5 ADD SWAP2 POP POP SWAP3 SWAP2 POP POP JUMP JUMPDEST PUSH2 0x448F DUP2 PUSH2 0x5377 JUMP JUMPDEST DUP3 MSTORE POP POP JUMP JUMPDEST PUSH2 0x449E DUP2 PUSH2 0x5389 JUMP JUMPDEST DUP3 MSTORE POP POP JUMP JUMPDEST PUSH1 0x0 PUSH2 0x44AF DUP3 PUSH2 0x5101 JUMP JUMPDEST PUSH2 0x44B9 DUP2 DUP6 PUSH2 0x511D JUMP JUMPDEST SWAP4 POP PUSH2 0x44C9 DUP2 DUP6 PUSH1 0x20 DUP7 ADD PUSH2 0x53CE JUMP JUMPDEST PUSH2 0x44D2 DUP2 PUSH2 0x569A JUMP JUMPDEST DUP5 ADD SWAP2 POP POP SWAP3 SWAP2 POP POP JUMP JUMPDEST PUSH1 0x0 PUSH2 0x44E8 DUP3 PUSH2 0x5101 JUMP JUMPDEST PUSH2 0x44F2 DUP2 DUP6 PUSH2 0x512E JUMP JUMPDEST SWAP4 POP PUSH2 0x4502 DUP2 DUP6 PUSH1 0x20 DUP7 ADD PUSH2 0x53CE JUMP JUMPDEST DUP1 DUP5 ADD SWAP2 POP POP SWAP3 SWAP2 POP POP JUMP JUMPDEST PUSH1 0x0 PUSH2 0x451B PUSH1 0xF DUP4 PUSH2 0x511D JUMP JUMPDEST SWAP2 POP PUSH2 0x4526 DUP3 PUSH2 0x56C5 JUMP JUMPDEST PUSH1 0x20 DUP3 ADD SWAP1 POP SWAP2 SWAP1 POP JUMP JUMPDEST PUSH1 0x0 PUSH2 0x453E PUSH1 0x20 DUP4 PUSH2 0x511D JUMP JUMPDEST SWAP2 POP PUSH2 0x4549 DUP3 PUSH2 0x56EE JUMP JUMPDEST PUSH1 0x20 DUP3 ADD SWAP1 POP SWAP2 SWAP1 POP JUMP JUMPDEST PUSH1 0x0 PUSH2 0x4561 PUSH1 0x32 DUP4 PUSH2 0x511D JUMP JUMPDEST SWAP2 POP PUSH2 0x456C DUP3 PUSH2 0x5717 JUMP JUMPDEST PUSH1 0x40 DUP3 ADD SWAP1 POP SWAP2 SWAP1 POP JUMP JUMPDEST PUSH1 0x0 PUSH2 0x4584 PUSH1 0x26 DUP4 PUSH2 0x511D JUMP JUMPDEST SWAP2 POP PUSH2 0x458F DUP3 PUSH2 0x5766 JUMP JUMPDEST PUSH1 0x40 DUP3 ADD SWAP1 POP SWAP2 SWAP1 POP JUMP JUMPDEST PUSH1 0x0 PUSH2 0x45A7 PUSH1 0x1C DUP4 PUSH2 0x511D JUMP JUMPDEST SWAP2 POP PUSH2 0x45B2 DUP3 PUSH2 0x57B5 JUMP JUMPDEST PUSH1 0x20 DUP3 ADD SWAP1 POP SWAP2 SWAP1 POP JUMP JUMPDEST PUSH1 0x0 PUSH2 0x45CA PUSH1 0x21 DUP4 PUSH2 0x511D JUMP JUMPDEST SWAP2 POP PUSH2 0x45D5 DUP3 PUSH2 0x57DE JUMP JUMPDEST PUSH1 0x40 DUP3 ADD SWAP1 POP SWAP2 SWAP1 POP JUMP JUMPDEST PUSH1 0x0 PUSH2 0x45ED PUSH1 0x12 DUP4 PUSH2 0x511D JUMP JUMPDEST SWAP2 POP PUSH2 0x45F8 DUP3 PUSH2 0x582D JUMP JUMPDEST PUSH1 0x20 DUP3 ADD SWAP1 POP SWAP2 SWAP1 POP JUMP JUMPDEST PUSH1 0x0 PUSH2 0x4610 PUSH1 0x24 DUP4 PUSH2 0x511D JUMP JUMPDEST SWAP2 POP PUSH2 0x461B DUP3 PUSH2 0x5856 JUMP JUMPDEST PUSH1 0x40 DUP3 ADD SWAP1 POP SWAP2 SWAP1 POP JUMP JUMPDEST PUSH1 0x0 PUSH2 0x4633 PUSH1 0x19 DUP4 PUSH2 0x511D JUMP JUMPDEST SWAP2 POP PUSH2 0x463E DUP3 PUSH2 0x58A5 JUMP JUMPDEST PUSH1 0x20 DUP3 ADD SWAP1 POP SWAP2 SWAP1 POP JUMP JUMPDEST PUSH1 0x0 PUSH2 0x4656 PUSH1 0x2C DUP4 PUSH2 0x511D JUMP JUMPDEST SWAP2 POP PUSH2 0x4661 DUP3 PUSH2 0x58CE JUMP JUMPDEST PUSH1 0x40 DUP3 ADD SWAP1 POP SWAP2 SWAP1 POP JUMP JUMPDEST PUSH1 0x0 PUSH2 0x4679 PUSH1 0x27 DUP4 PUSH2 0x511D JUMP JUMPDEST SWAP2 POP PUSH2 0x4684 DUP3 PUSH2 0x591D JUMP JUMPDEST PUSH1 0x40 DUP3 ADD SWAP1 POP SWAP2 SWAP1 POP JUMP JUMPDEST PUSH1 0x0 PUSH2 0x469C PUSH1 0x1E DUP4 PUSH2 0x511D JUMP JUMPDEST SWAP2 POP PUSH2 0x46A7 DUP3 PUSH2 0x596C JUMP JUMPDEST PUSH1 0x20 DUP3 ADD SWAP1 POP SWAP2 SWAP1 POP JUMP JUMPDEST PUSH1 0x0 PUSH2 0x46BF PUSH1 0x38 DUP4 PUSH2 0x511D JUMP JUMPDEST SWAP2 POP PUSH2 0x46CA DUP3 PUSH2 0x5995 JUMP JUMPDEST PUSH1 0x40 DUP3 ADD SWAP1 POP SWAP2 SWAP1 POP JUMP JUMPDEST PUSH1 0x0 PUSH2 0x46E2 PUSH1 0x20 DUP4 PUSH2 0x511D JUMP JUMPDEST SWAP2 POP PUSH2 0x46ED DUP3 PUSH2 0x59E4 JUMP JUMPDEST PUSH1 0x20 DUP3 ADD SWAP1 POP SWAP2 SWAP1 POP JUMP JUMPDEST PUSH1 0x0 PUSH2 0x4705 PUSH1 0x2A DUP4 PUSH2 0x511D JUMP JUMPDEST SWAP2 POP PUSH2 0x4710 DUP3 PUSH2 0x5A0D JUMP JUMPDEST PUSH1 0x40 DUP3 ADD SWAP1 POP SWAP2 SWAP1 POP JUMP JUMPDEST PUSH1 0x0 PUSH2 0x4728 PUSH1 0x29 DUP4 PUSH2 0x511D JUMP JUMPDEST SWAP2 POP PUSH2 0x4733 DUP3 PUSH2 0x5A5C JUMP JUMPDEST PUSH1 0x40 DUP3 ADD SWAP1 POP SWAP2 SWAP1 POP JUMP JUMPDEST PUSH1 0x0 PUSH2 0x474B PUSH1 0x5 DUP4 PUSH2 0x511D JUMP JUMPDEST SWAP2 POP PUSH2 0x4756 DUP3 PUSH2 0x5AAB JUMP JUMPDEST PUSH1 0x20 DUP3 ADD SWAP1 POP SWAP2 SWAP1 POP JUMP JUMPDEST PUSH1 0x0 PUSH2 0x476E PUSH1 0x1D DUP4 PUSH2 0x511D JUMP JUMPDEST SWAP2 POP PUSH2 0x4779 DUP3 PUSH2 0x5AD4 JUMP JUMPDEST PUSH1 0x20 DUP3 ADD SWAP1 POP SWAP2 SWAP1 POP JUMP JUMPDEST PUSH1 0x0 PUSH2 0x4791 PUSH1 0x20 DUP4 PUSH2 0x511D JUMP JUMPDEST SWAP2 POP PUSH2 0x479C DUP3 PUSH2 0x5AFD JUMP JUMPDEST PUSH1 0x20 DUP3 ADD SWAP1 POP SWAP2 SWAP1 POP JUMP JUMPDEST PUSH1 0x0 PUSH2 0x47B4 PUSH1 0x1C DUP4 PUSH2 0x511D JUMP JUMPDEST SWAP2 POP PUSH2 0x47BF DUP3 PUSH2 0x5B26 JUMP JUMPDEST PUSH1 0x20 DUP3 ADD SWAP1 POP SWAP2 SWAP1 POP JUMP JUMPDEST PUSH1 0x0 PUSH2 0x47D7 PUSH1 0x21 DUP4 PUSH2 0x511D JUMP JUMPDEST SWAP2 POP PUSH2 0x47E2 DUP3 PUSH2 0x5B4F JUMP JUMPDEST PUSH1 0x40 DUP3 ADD SWAP1 POP SWAP2 SWAP1 POP JUMP JUMPDEST PUSH1 0x0 PUSH2 0x47FA PUSH1 0x2C DUP4 PUSH2 0x511D JUMP JUMPDEST SWAP2 POP PUSH2 0x4805 DUP3 PUSH2 0x5B9E JUMP JUMPDEST PUSH1 0x40 DUP3 ADD SWAP1 POP SWAP2 SWAP1 POP JUMP JUMPDEST PUSH1 0x0 PUSH2 0x481D PUSH1 0x20 DUP4 PUSH2 0x511D JUMP JUMPDEST SWAP2 POP PUSH2 0x4828 DUP3 PUSH2 0x5BED JUMP JUMPDEST PUSH1 0x20 DUP3 ADD SWAP1 POP SWAP2 SWAP1 POP JUMP JUMPDEST PUSH1 0x0 PUSH2 0x4840 PUSH1 0x29 DUP4 PUSH2 0x511D JUMP JUMPDEST SWAP2 POP PUSH2 0x484B DUP3 PUSH2 0x5C16 JUMP JUMPDEST PUSH1 0x40 DUP3 ADD SWAP1 POP SWAP2 SWAP1 POP JUMP JUMPDEST PUSH1 0x0 PUSH2 0x4863 PUSH1 0x2F DUP4 PUSH2 0x511D JUMP JUMPDEST SWAP2 POP PUSH2 0x486E DUP3 PUSH2 0x5C65 JUMP JUMPDEST PUSH1 0x40 DUP3 ADD SWAP1 POP SWAP2 SWAP1 POP JUMP JUMPDEST PUSH1 0x0 PUSH2 0x4886 PUSH1 0x21 DUP4 PUSH2 0x511D JUMP JUMPDEST SWAP2 POP PUSH2 0x4891 DUP3 PUSH2 0x5CB4 JUMP JUMPDEST PUSH1 0x40 DUP3 ADD SWAP1 POP SWAP2 SWAP1 POP JUMP JUMPDEST PUSH1 0x0 PUSH2 0x48A9 PUSH1 0x21 DUP4 PUSH2 0x511D JUMP JUMPDEST SWAP2 POP PUSH2 0x48B4 DUP3 PUSH2 0x5D03 JUMP JUMPDEST PUSH1 0x40 DUP3 ADD SWAP1 POP SWAP2 SWAP1 POP JUMP JUMPDEST PUSH1 0x0 PUSH2 0x48CC PUSH1 0x23 DUP4 PUSH2 0x511D JUMP JUMPDEST SWAP2 POP PUSH2 0x48D7 DUP3 PUSH2 0x5D52 JUMP JUMPDEST PUSH1 0x40 DUP3 ADD SWAP1 POP SWAP2 SWAP1 POP JUMP JUMPDEST PUSH1 0x0 PUSH2 0x48EF PUSH1 0x31 DUP4 PUSH2 0x511D JUMP JUMPDEST SWAP2 POP PUSH2 0x48FA DUP3 PUSH2 0x5DA1 JUMP JUMPDEST PUSH1 0x40 DUP3 ADD SWAP1 POP SWAP2 SWAP1 POP JUMP JUMPDEST PUSH1 0x0 PUSH2 0x4912 PUSH1 0x10 DUP4 PUSH2 0x511D JUMP JUMPDEST SWAP2 POP PUSH2 0x491D DUP3 PUSH2 0x5DF0 JUMP JUMPDEST PUSH1 0x20 DUP3 ADD SWAP1 POP SWAP2 SWAP1 POP JUMP JUMPDEST PUSH1 0x0 PUSH2 0x4935 PUSH1 0x23 DUP4 PUSH2 0x511D JUMP JUMPDEST SWAP2 POP PUSH2 0x4940 DUP3 PUSH2 0x5E19 JUMP JUMPDEST PUSH1 0x40 DUP3 ADD SWAP1 POP SWAP2 SWAP1 POP JUMP JUMPDEST PUSH1 0x0 PUSH2 0x4958 PUSH1 0x14 DUP4 PUSH2 0x511D JUMP JUMPDEST SWAP2 POP PUSH2 0x4963 DUP3 PUSH2 0x5E68 JUMP JUMPDEST PUSH1 0x20 DUP3 ADD SWAP1 POP SWAP2 SWAP1 POP JUMP JUMPDEST PUSH1 0x0 PUSH2 0x497B PUSH1 0x1B DUP4 PUSH2 0x511D JUMP JUMPDEST SWAP2 POP PUSH2 0x4986 DUP3 PUSH2 0x5E91 JUMP JUMPDEST PUSH1 0x20 DUP3 ADD SWAP1 POP SWAP2 SWAP1 POP JUMP JUMPDEST PUSH2 0x499A DUP2 PUSH2 0x5332 JUMP JUMPDEST DUP3 MSTORE POP POP JUMP JUMPDEST PUSH2 0x49B1 PUSH2 0x49AC DUP3 PUSH2 0x5332 JUMP JUMPDEST PUSH2 0x5506 JUMP JUMPDEST DUP3 MSTORE POP POP JUMP JUMPDEST PUSH2 0x49C0 DUP2 PUSH2 0x5360 JUMP JUMPDEST DUP3 MSTORE POP POP JUMP JUMPDEST PUSH2 0x49D7 PUSH2 0x49D2 DUP3 PUSH2 0x5360 JUMP JUMPDEST PUSH2 0x552A JUMP JUMPDEST DUP3 MSTORE POP POP JUMP JUMPDEST PUSH2 0x49E6 DUP2 PUSH2 0x536A JUMP JUMPDEST DUP3 MSTORE POP POP JUMP JUMPDEST PUSH1 0x0 PUSH2 0x49F8 DUP3 DUP6 PUSH2 0x44DD JUMP JUMPDEST SWAP2 POP PUSH2 0x4A04 DUP3 DUP5 PUSH2 0x44DD JUMP JUMPDEST SWAP2 POP DUP2 SWAP1 POP SWAP4 SWAP3 POP POP POP JUMP JUMPDEST PUSH1 0x0 PUSH2 0x4A1C DUP3 DUP9 PUSH2 0x49A0 JUMP JUMPDEST PUSH1 0x2 DUP3 ADD SWAP2 POP PUSH2 0x4A2C DUP3 DUP8 PUSH2 0x4436 JUMP JUMPDEST PUSH1 0x20 DUP3 ADD SWAP2 POP PUSH2 0x4A3C DUP3 DUP7 PUSH2 0x43EA JUMP JUMPDEST PUSH1 0x14 DUP3 ADD SWAP2 POP PUSH2 0x4A4C DUP3 DUP6 PUSH2 0x49C6 JUMP JUMPDEST PUSH1 0x20 DUP3 ADD SWAP2 POP PUSH2 0x4A5C DUP3 DUP5 PUSH2 0x4410 JUMP JUMPDEST PUSH1 0x14 DUP3 ADD SWAP2 POP DUP2 SWAP1 POP SWAP7 SWAP6 POP POP POP POP POP POP JUMP JUMPDEST PUSH1 0x0 PUSH1 0x20 DUP3 ADD SWAP1 POP PUSH2 0x4A84 PUSH1 0x0 DUP4 ADD DUP5 PUSH2 0x4401 JUMP JUMPDEST SWAP3 SWAP2 POP POP JUMP JUMPDEST PUSH1 0x0 PUSH1 0x60 DUP3 ADD SWAP1 POP PUSH2 0x4A9F PUSH1 0x0 DUP4 ADD DUP7 PUSH2 0x4401 JUMP JUMPDEST PUSH2 0x4AAC PUSH1 0x20 DUP4 ADD DUP6 PUSH2 0x4401 JUMP JUMPDEST PUSH2 0x4AB9 PUSH1 0x40 DUP4 ADD DUP5 PUSH2 0x49B7 JUMP JUMPDEST SWAP5 SWAP4 POP POP POP POP JUMP JUMPDEST PUSH1 0x0 PUSH1 0x80 DUP3 ADD SWAP1 POP PUSH2 0x4AD6 PUSH1 0x0 DUP4 ADD DUP8 PUSH2 0x4401 JUMP JUMPDEST PUSH2 0x4AE3 PUSH1 0x20 DUP4 ADD DUP7 PUSH2 0x4401 JUMP JUMPDEST PUSH2 0x4AF0 PUSH1 0x40 DUP4 ADD DUP6 PUSH2 0x49B7 JUMP JUMPDEST DUP2 DUP2 SUB PUSH1 0x60 DUP4 ADD MSTORE PUSH2 0x4B02 DUP2 DUP5 PUSH2 0x444D JUMP JUMPDEST SWAP1 POP SWAP6 SWAP5 POP POP POP POP POP JUMP JUMPDEST PUSH1 0x0 PUSH1 0x40 DUP3 ADD SWAP1 POP PUSH2 0x4B22 PUSH1 0x0 DUP4 ADD DUP6 PUSH2 0x4401 JUMP JUMPDEST PUSH2 0x4B2F PUSH1 0x20 DUP4 ADD DUP5 PUSH2 0x49B7 JUMP JUMPDEST SWAP4 SWAP3 POP POP POP JUMP JUMPDEST PUSH1 0x0 PUSH1 0x20 DUP3 ADD SWAP1 POP PUSH2 0x4B4B PUSH1 0x0 DUP4 ADD DUP5 PUSH2 0x4427 JUMP JUMPDEST SWAP3 SWAP2 POP POP JUMP JUMPDEST PUSH1 0x0 PUSH1 0x20 DUP3 ADD SWAP1 POP PUSH2 0x4B66 PUSH1 0x0 DUP4 ADD DUP5 PUSH2 0x4486 JUMP JUMPDEST SWAP3 SWAP2 POP POP JUMP JUMPDEST PUSH1 0x0 PUSH1 0x20 DUP3 ADD SWAP1 POP PUSH2 0x4B81 PUSH1 0x0 DUP4 ADD DUP5 PUSH2 0x4495 JUMP JUMPDEST SWAP3 SWAP2 POP POP JUMP JUMPDEST PUSH1 0x0 PUSH1 0x20 DUP3 ADD SWAP1 POP DUP2 DUP2 SUB PUSH1 0x0 DUP4 ADD MSTORE PUSH2 0x4BA1 DUP2 DUP5 PUSH2 0x44A4 JUMP JUMPDEST SWAP1 POP SWAP3 SWAP2 POP POP JUMP JUMPDEST PUSH1 0x0 PUSH1 0x20 DUP3 ADD SWAP1 POP DUP2 DUP2 SUB PUSH1 0x0 DUP4 ADD MSTORE PUSH2 0x4BC2 DUP2 PUSH2 0x450E JUMP JUMPDEST SWAP1 POP SWAP2 SWAP1 POP JUMP JUMPDEST PUSH1 0x0 PUSH1 0x20 DUP3 ADD SWAP1 POP DUP2 DUP2 SUB PUSH1 0x0 DUP4 ADD MSTORE PUSH2 0x4BE2 DUP2 PUSH2 0x4531 JUMP JUMPDEST SWAP1 POP SWAP2 SWAP1 POP JUMP JUMPDEST PUSH1 0x0 PUSH1 0x20 DUP3 ADD SWAP1 POP DUP2 DUP2 SUB PUSH1 0x0 DUP4 ADD MSTORE PUSH2 0x4C02 DUP2 PUSH2 0x4554 JUMP JUMPDEST SWAP1 POP SWAP2 SWAP1 POP JUMP JUMPDEST PUSH1 0x0 PUSH1 0x20 DUP3 ADD SWAP1 POP DUP2 DUP2 SUB PUSH1 0x0 DUP4 ADD MSTORE PUSH2 0x4C22 DUP2 PUSH2 0x4577 JUMP JUMPDEST SWAP1 POP SWAP2 SWAP1 POP JUMP JUMPDEST PUSH1 0x0 PUSH1 0x20 DUP3 ADD SWAP1 POP DUP2 DUP2 SUB PUSH1 0x0 DUP4 ADD MSTORE PUSH2 0x4C42 DUP2 PUSH2 0x459A JUMP JUMPDEST SWAP1 POP SWAP2 SWAP1 POP JUMP JUMPDEST PUSH1 0x0 PUSH1 0x20 DUP3 ADD SWAP1 POP DUP2 DUP2 SUB PUSH1 0x0 DUP4 ADD MSTORE PUSH2 0x4C62 DUP2 PUSH2 0x45BD JUMP JUMPDEST SWAP1 POP SWAP2 SWAP1 POP JUMP JUMPDEST PUSH1 0x0 PUSH1 0x20 DUP3 ADD SWAP1 POP DUP2 DUP2 SUB PUSH1 0x0 DUP4 ADD MSTORE PUSH2 0x4C82 DUP2 PUSH2 0x45E0 JUMP JUMPDEST SWAP1 POP SWAP2 SWAP1 POP JUMP JUMPDEST PUSH1 0x0 PUSH1 0x20 DUP3 ADD SWAP1 POP DUP2 DUP2 SUB PUSH1 0x0 DUP4 ADD MSTORE PUSH2 0x4CA2 DUP2 PUSH2 0x4603 JUMP JUMPDEST SWAP1 POP SWAP2 SWAP1 POP JUMP JUMPDEST PUSH1 0x0 PUSH1 0x20 DUP3 ADD SWAP1 POP DUP2 DUP2 SUB PUSH1 0x0 DUP4 ADD MSTORE PUSH2 0x4CC2 DUP2 PUSH2 0x4626 JUMP JUMPDEST SWAP1 POP SWAP2 SWAP1 POP JUMP JUMPDEST PUSH1 0x0 PUSH1 0x20 DUP3 ADD SWAP1 POP DUP2 DUP2 SUB PUSH1 0x0 DUP4 ADD MSTORE PUSH2 0x4CE2 DUP2 PUSH2 0x4649 JUMP JUMPDEST SWAP1 POP SWAP2 SWAP1 POP JUMP JUMPDEST PUSH1 0x0 PUSH1 0x20 DUP3 ADD SWAP1 POP DUP2 DUP2 SUB PUSH1 0x0 DUP4 ADD MSTORE PUSH2 0x4D02 DUP2 PUSH2 0x466C JUMP JUMPDEST SWAP1 POP SWAP2 SWAP1 POP JUMP JUMPDEST PUSH1 0x0 PUSH1 0x20 DUP3 ADD SWAP1 POP DUP2 DUP2 SUB PUSH1 0x0 DUP4 ADD MSTORE PUSH2 0x4D22 DUP2 PUSH2 0x468F JUMP JUMPDEST SWAP1 POP SWAP2 SWAP1 POP JUMP JUMPDEST PUSH1 0x0 PUSH1 0x20 DUP3 ADD SWAP1 POP DUP2 DUP2 SUB PUSH1 0x0 DUP4 ADD MSTORE PUSH2 0x4D42 DUP2 PUSH2 0x46B2 JUMP JUMPDEST SWAP1 POP SWAP2 SWAP1 POP JUMP JUMPDEST PUSH1 0x0 PUSH1 0x20 DUP3 ADD SWAP1 POP DUP2 DUP2 SUB PUSH1 0x0 DUP4 ADD MSTORE PUSH2 0x4D62 DUP2 PUSH2 0x46D5 JUMP JUMPDEST SWAP1 POP SWAP2 SWAP1 POP JUMP JUMPDEST PUSH1 0x0 PUSH1 0x20 DUP3 ADD SWAP1 POP DUP2 DUP2 SUB PUSH1 0x0 DUP4 ADD MSTORE PUSH2 0x4D82 DUP2 PUSH2 0x46F8 JUMP JUMPDEST SWAP1 POP SWAP2 SWAP1 POP JUMP JUMPDEST PUSH1 0x0 PUSH1 0x20 DUP3 ADD SWAP1 POP DUP2 DUP2 SUB PUSH1 0x0 DUP4 ADD MSTORE PUSH2 0x4DA2 DUP2 PUSH2 0x471B JUMP JUMPDEST SWAP1 POP SWAP2 SWAP1 POP JUMP JUMPDEST PUSH1 0x0 PUSH1 0x20 DUP3 ADD SWAP1 POP DUP2 DUP2 SUB PUSH1 0x0 DUP4 ADD MSTORE PUSH2 0x4DC2 DUP2 PUSH2 0x473E JUMP JUMPDEST SWAP1 POP SWAP2 SWAP1 POP JUMP JUMPDEST PUSH1 0x0 PUSH1 0x20 DUP3 ADD SWAP1 POP DUP2 DUP2 SUB PUSH1 0x0 DUP4 ADD MSTORE PUSH2 0x4DE2 DUP2 PUSH2 0x4761 JUMP JUMPDEST SWAP1 POP SWAP2 SWAP1 POP JUMP JUMPDEST PUSH1 0x0 PUSH1 0x20 DUP3 ADD SWAP1 POP DUP2 DUP2 SUB PUSH1 0x0 DUP4 ADD MSTORE PUSH2 0x4E02 DUP2 PUSH2 0x4784 JUMP JUMPDEST SWAP1 POP SWAP2 SWAP1 POP JUMP JUMPDEST PUSH1 0x0 PUSH1 0x20 DUP3 ADD SWAP1 POP DUP2 DUP2 SUB PUSH1 0x0 DUP4 ADD MSTORE PUSH2 0x4E22 DUP2 PUSH2 0x47A7 JUMP JUMPDEST SWAP1 POP SWAP2 SWAP1 POP JUMP JUMPDEST PUSH1 0x0 PUSH1 0x20 DUP3 ADD SWAP1 POP DUP2 DUP2 SUB PUSH1 0x0 DUP4 ADD MSTORE PUSH2 0x4E42 DUP2 PUSH2 0x47CA JUMP JUMPDEST SWAP1 POP SWAP2 SWAP1 POP JUMP JUMPDEST PUSH1 0x0 PUSH1 0x20 DUP3 ADD SWAP1 POP DUP2 DUP2 SUB PUSH1 0x0 DUP4 ADD MSTORE PUSH2 0x4E62 DUP2 PUSH2 0x47ED JUMP JUMPDEST SWAP1 POP SWAP2 SWAP1 POP JUMP JUMPDEST PUSH1 0x0 PUSH1 0x20 DUP3 ADD SWAP1 POP DUP2 DUP2 SUB PUSH1 0x0 DUP4 ADD MSTORE PUSH2 0x4E82 DUP2 PUSH2 0x4810 JUMP JUMPDEST SWAP1 POP SWAP2 SWAP1 POP JUMP JUMPDEST PUSH1 0x0 PUSH1 0x20 DUP3 ADD SWAP1 POP DUP2 DUP2 SUB PUSH1 0x0 DUP4 ADD MSTORE PUSH2 0x4EA2 DUP2 PUSH2 0x4833 JUMP JUMPDEST SWAP1 POP SWAP2 SWAP1 POP JUMP JUMPDEST PUSH1 0x0 PUSH1 0x20 DUP3 ADD SWAP1 POP DUP2 DUP2 SUB PUSH1 0x0 DUP4 ADD MSTORE PUSH2 0x4EC2 DUP2 PUSH2 0x4856 JUMP JUMPDEST SWAP1 POP SWAP2 SWAP1 POP JUMP JUMPDEST PUSH1 0x0 PUSH1 0x20 DUP3 ADD SWAP1 POP DUP2 DUP2 SUB PUSH1 0x0 DUP4 ADD MSTORE PUSH2 0x4EE2 DUP2 PUSH2 0x4879 JUMP JUMPDEST SWAP1 POP SWAP2 SWAP1 POP JUMP JUMPDEST PUSH1 0x0 PUSH1 0x20 DUP3 ADD SWAP1 POP DUP2 DUP2 SUB PUSH1 0x0 DUP4 ADD MSTORE PUSH2 0x4F02 DUP2 PUSH2 0x489C JUMP JUMPDEST SWAP1 POP SWAP2 SWAP1 POP JUMP JUMPDEST PUSH1 0x0 PUSH1 0x20 DUP3 ADD SWAP1 POP DUP2 DUP2 SUB PUSH1 0x0 DUP4 ADD MSTORE PUSH2 0x4F22 DUP2 PUSH2 0x48BF JUMP JUMPDEST SWAP1 POP SWAP2 SWAP1 POP JUMP JUMPDEST PUSH1 0x0 PUSH1 0x20 DUP3 ADD SWAP1 POP DUP2 DUP2 SUB PUSH1 0x0 DUP4 ADD MSTORE PUSH2 0x4F42 DUP2 PUSH2 0x48E2 JUMP JUMPDEST SWAP1 POP SWAP2 SWAP1 POP JUMP JUMPDEST PUSH1 0x0 PUSH1 0x20 DUP3 ADD SWAP1 POP DUP2 DUP2 SUB PUSH1 0x0 DUP4 ADD MSTORE PUSH2 0x4F62 DUP2 PUSH2 0x4905 JUMP JUMPDEST SWAP1 POP SWAP2 SWAP1 POP JUMP JUMPDEST PUSH1 0x0 PUSH1 0x20 DUP3 ADD SWAP1 POP DUP2 DUP2 SUB PUSH1 0x0 DUP4 ADD MSTORE PUSH2 0x4F82 DUP2 PUSH2 0x4928 JUMP JUMPDEST SWAP1 POP SWAP2 SWAP1 POP JUMP JUMPDEST PUSH1 0x0 PUSH1 0x20 DUP3 ADD SWAP1 POP DUP2 DUP2 SUB PUSH1 0x0 DUP4 ADD MSTORE PUSH2 0x4FA2 DUP2 PUSH2 0x494B JUMP JUMPDEST SWAP1 POP SWAP2 SWAP1 POP JUMP JUMPDEST PUSH1 0x0 PUSH1 0x20 DUP3 ADD SWAP1 POP DUP2 DUP2 SUB PUSH1 0x0 DUP4 ADD MSTORE PUSH2 0x4FC2 DUP2 PUSH2 0x496E JUMP JUMPDEST SWAP1 POP SWAP2 SWAP1 POP JUMP JUMPDEST PUSH1 0x0 PUSH1 0x20 DUP3 ADD SWAP1 POP PUSH2 0x4FDE PUSH1 0x0 DUP4 ADD DUP5 PUSH2 0x4991 JUMP JUMPDEST SWAP3 SWAP2 POP POP JUMP JUMPDEST PUSH1 0x0 PUSH1 0x20 DUP3 ADD SWAP1 POP PUSH2 0x4FF9 PUSH1 0x0 DUP4 ADD DUP5 PUSH2 0x49B7 JUMP JUMPDEST SWAP3 SWAP2 POP POP JUMP JUMPDEST PUSH1 0x0 PUSH1 0x20 DUP3 ADD SWAP1 POP PUSH2 0x5014 PUSH1 0x0 DUP4 ADD DUP5 PUSH2 0x49DD JUMP JUMPDEST SWAP3 SWAP2 POP POP JUMP JUMPDEST PUSH1 0x0 PUSH1 0x40 DUP3 ADD SWAP1 POP PUSH2 0x502F PUSH1 0x0 DUP4 ADD DUP6 PUSH2 0x49DD JUMP JUMPDEST PUSH2 0x503C PUSH1 0x20 DUP4 ADD DUP5 PUSH2 0x4401 JUMP JUMPDEST SWAP4 SWAP3 POP POP POP JUMP JUMPDEST PUSH1 0x0 PUSH2 0x504D PUSH2 0x505E JUMP JUMPDEST SWAP1 POP PUSH2 0x5059 DUP3 DUP3 PUSH2 0x5433 JUMP JUMPDEST SWAP2 SWAP1 POP JUMP JUMPDEST PUSH1 0x0 PUSH1 0x40 MLOAD SWAP1 POP SWAP1 JUMP JUMPDEST PUSH1 0x0 PUSH8 0xFFFFFFFFFFFFFFFF DUP3 GT ISZERO PUSH2 0x5083 JUMPI PUSH2 0x5082 PUSH2 0x5652 JUMP JUMPDEST JUMPDEST PUSH1 0x20 DUP3 MUL SWAP1 POP PUSH1 0x20 DUP2 ADD SWAP1 POP SWAP2 SWAP1 POP JUMP JUMPDEST PUSH1 0x0 PUSH8 0xFFFFFFFFFFFFFFFF DUP3 GT ISZERO PUSH2 0x50AF JUMPI PUSH2 0x50AE PUSH2 0x5652 JUMP JUMPDEST JUMPDEST PUSH2 0x50B8 DUP3 PUSH2 0x569A JUMP JUMPDEST SWAP1 POP PUSH1 0x20 DUP2 ADD SWAP1 POP SWAP2 SWAP1 POP JUMP JUMPDEST PUSH1 0x0 PUSH8 0xFFFFFFFFFFFFFFFF DUP3 GT ISZERO PUSH2 0x50E0 JUMPI PUSH2 0x50DF PUSH2 0x5652 JUMP JUMPDEST JUMPDEST PUSH2 0x50E9 DUP3 PUSH2 0x569A JUMP JUMPDEST SWAP1 POP PUSH1 0x20 DUP2 ADD SWAP1 POP SWAP2 SWAP1 POP JUMP JUMPDEST PUSH1 0x0 DUP2 MLOAD SWAP1 POP SWAP2 SWAP1 POP JUMP JUMPDEST PUSH1 0x0 DUP2 MLOAD SWAP1 POP SWAP2 SWAP1 POP JUMP JUMPDEST PUSH1 0x0 DUP3 DUP3 MSTORE PUSH1 0x20 DUP3 ADD SWAP1 POP SWAP3 SWAP2 POP POP JUMP JUMPDEST PUSH1 0x0 DUP3 DUP3 MSTORE PUSH1 0x20 DUP3 ADD SWAP1 POP SWAP3 SWAP2 POP POP JUMP JUMPDEST PUSH1 0x0 DUP2 SWAP1 POP SWAP3 SWAP2 POP POP JUMP JUMPDEST PUSH1 0x0 PUSH2 0x5144 DUP3 PUSH2 0x5332 JUMP JUMPDEST SWAP2 POP PUSH2 0x514F DUP4 PUSH2 0x5332 JUMP JUMPDEST SWAP3 POP DUP3 PUSH2 0xFFFF SUB DUP3 GT ISZERO PUSH2 0x5166 JUMPI PUSH2 0x5165 PUSH2 0x5596 JUMP JUMPDEST JUMPDEST DUP3 DUP3 ADD SWAP1 POP SWAP3 SWAP2 POP POP JUMP JUMPDEST PUSH1 0x0 PUSH2 0x517C DUP3 PUSH2 0x5360 JUMP JUMPDEST SWAP2 POP PUSH2 0x5187 DUP4 PUSH2 0x5360 JUMP JUMPDEST SWAP3 POP DUP3 PUSH32 0xFFFFFFFFFFFFFFFFFFFFFFFFFFFFFFFFFFFFFFFFFFFFFFFFFFFFFFFFFFFFFFFF SUB DUP3 GT ISZERO PUSH2 0x51BC JUMPI PUSH2 0x51BB PUSH2 0x5596 JUMP JUMPDEST JUMPDEST DUP3 DUP3 ADD SWAP1 POP SWAP3 SWAP2 POP POP JUMP JUMPDEST PUSH1 0x0 PUSH2 0x51D2 DUP3 PUSH2 0x5360 JUMP JUMPDEST SWAP2 POP PUSH2 0x51DD DUP4 PUSH2 0x5360 JUMP JUMPDEST SWAP3 POP DUP3 PUSH2 0x51ED JUMPI PUSH2 0x51EC PUSH2 0x55C5 JUMP JUMPDEST JUMPDEST DUP3 DUP3 DIV SWAP1 POP SWAP3 SWAP2 POP POP JUMP JUMPDEST PUSH1 0x0 PUSH2 0x5203 DUP3 PUSH2 0x5360 JUMP JUMPDEST SWAP2 POP PUSH2 0x520E DUP4 PUSH2 0x5360 JUMP JUMPDEST SWAP3 POP DUP2 PUSH32 0xFFFFFFFFFFFFFFFFFFFFFFFFFFFFFFFFFFFFFFFFFFFFFFFFFFFFFFFFFFFFFFFF DIV DUP4 GT DUP3 ISZERO ISZERO AND ISZERO PUSH2 0x5247 JUMPI PUSH2 0x5246 PUSH2 0x5596 JUMP JUMPDEST JUMPDEST DUP3 DUP3 MUL SWAP1 POP SWAP3 SWAP2 POP POP JUMP JUMPDEST PUSH1 0x0 PUSH2 0x525D DUP3 PUSH2 0x5332 JUMP JUMPDEST SWAP2 POP PUSH2 0x5268 DUP4 PUSH2 0x5332 JUMP JUMPDEST SWAP3 POP DUP3 DUP3 LT ISZERO PUSH2 0x527B JUMPI PUSH2 0x527A PUSH2 0x5596 JUMP JUMPDEST JUMPDEST DUP3 DUP3 SUB SWAP1 POP SWAP3 SWAP2 POP POP JUMP JUMPDEST PUSH1 0x0 PUSH2 0x5291 DUP3 PUSH2 0x5360 JUMP JUMPDEST SWAP2 POP PUSH2 0x529C DUP4 PUSH2 0x5360 JUMP JUMPDEST SWAP3 POP DUP3 DUP3 LT ISZERO PUSH2 0x52AF JUMPI PUSH2 0x52AE PUSH2 0x5596 JUMP JUMPDEST JUMPDEST DUP3 DUP3 SUB SWAP1 POP SWAP3 SWAP2 POP POP JUMP JUMPDEST PUSH1 0x0 PUSH2 0x52C5 DUP3 PUSH2 0x5340 JUMP JUMPDEST SWAP1 POP SWAP2 SWAP1 POP JUMP JUMPDEST PUSH1 0x0 PUSH2 0x52D7 DUP3 PUSH2 0x5340 JUMP JUMPDEST SWAP1 POP SWAP2 SWAP1 POP JUMP JUMPDEST PUSH1 0x0 DUP2 ISZERO ISZERO SWAP1 POP SWAP2 SWAP1 POP JUMP JUMPDEST PUSH1 0x0 DUP2 SWAP1 POP SWAP2 SWAP1 POP JUMP JUMPDEST PUSH1 0x0 PUSH32 0xFFFFFFFF00000000000000000000000000000000000000000000000000000000 DUP3 AND SWAP1 POP SWAP2 SWAP1 POP JUMP JUMPDEST PUSH1 0x0 PUSH2 0x532B DUP3 PUSH2 0x52BA JUMP JUMPDEST SWAP1 POP SWAP2 SWAP1 POP JUMP JUMPDEST PUSH1 0x0 PUSH2 0xFFFF DUP3 AND SWAP1 POP SWAP2 SWAP1 POP JUMP JUMPDEST PUSH1 0x0 PUSH20 0xFFFFFFFFFFFFFFFFFFFFFFFFFFFFFFFFFFFFFFFF DUP3 AND SWAP1 POP SWAP2 SWAP1 POP JUMP JUMPDEST PUSH1 0x0 DUP2 SWAP1 POP SWAP2 SWAP1 POP JUMP JUMPDEST PUSH1 0x0 PUSH1 0xFF DUP3 AND SWAP1 POP SWAP2 SWAP1 POP JUMP JUMPDEST PUSH1 0x0 PUSH2 0x5382 DUP3 PUSH2 0x539B JUMP JUMPDEST SWAP1 POP SWAP2 SWAP1 POP JUMP JUMPDEST PUSH1 0x0 PUSH2 0x5394 DUP3 PUSH2 0x539B JUMP JUMPDEST SWAP1 POP SWAP2 SWAP1 POP JUMP JUMPDEST PUSH1 0x0 PUSH2 0x53A6 DUP3 PUSH2 0x53AD JUMP JUMPDEST SWAP1 POP SWAP2 SWAP1 POP JUMP JUMPDEST PUSH1 0x0 PUSH2 0x53B8 DUP3 PUSH2 0x5340 JUMP JUMPDEST SWAP1 POP SWAP2 SWAP1 POP JUMP JUMPDEST DUP3 DUP2 DUP4 CALLDATACOPY PUSH1 0x0 DUP4 DUP4 ADD MSTORE POP POP POP JUMP JUMPDEST PUSH1 0x0 JUMPDEST DUP4 DUP2 LT ISZERO PUSH2 0x53EC JUMPI DUP1 DUP3 ADD MLOAD DUP2 DUP5 ADD MSTORE PUSH1 0x20 DUP2 ADD SWAP1 POP PUSH2 0x53D1 JUMP JUMPDEST DUP4 DUP2 GT ISZERO PUSH2 0x53FB JUMPI PUSH1 0x0 DUP5 DUP5 ADD MSTORE JUMPDEST POP POP POP POP JUMP JUMPDEST PUSH1 0x0 PUSH1 0x2 DUP3 DIV SWAP1 POP PUSH1 0x1 DUP3 AND DUP1 PUSH2 0x5419 JUMPI PUSH1 0x7F DUP3 AND SWAP2 POP JUMPDEST PUSH1 0x20 DUP3 LT DUP2 EQ ISZERO PUSH2 0x542D JUMPI PUSH2 0x542C PUSH2 0x55F4 JUMP JUMPDEST JUMPDEST POP SWAP2 SWAP1 POP JUMP JUMPDEST PUSH2 0x543C DUP3 PUSH2 0x569A JUMP JUMPDEST DUP2 ADD DUP2 DUP2 LT PUSH8 0xFFFFFFFFFFFFFFFF DUP3 GT OR ISZERO PUSH2 0x545B JUMPI PUSH2 0x545A PUSH2 0x5652 JUMP JUMPDEST JUMPDEST DUP1 PUSH1 0x40 MSTORE POP POP POP JUMP JUMPDEST PUSH1 0x0 PUSH2 0x546F DUP3 PUSH2 0x5332 JUMP JUMPDEST SWAP2 POP PUSH2 0xFFFF DUP3 EQ ISZERO PUSH2 0x5484 JUMPI PUSH2 0x5483 PUSH2 0x5596 JUMP JUMPDEST JUMPDEST PUSH1 0x1 DUP3 ADD SWAP1 POP SWAP2 SWAP1 POP JUMP JUMPDEST PUSH1 0x0 PUSH2 0x549A DUP3 PUSH2 0x5360 JUMP JUMPDEST SWAP2 POP PUSH32 0xFFFFFFFFFFFFFFFFFFFFFFFFFFFFFFFFFFFFFFFFFFFFFFFFFFFFFFFFFFFFFFFF DUP3 EQ ISZERO PUSH2 0x54CD JUMPI PUSH2 0x54CC PUSH2 0x5596 JUMP JUMPDEST JUMPDEST PUSH1 0x1 DUP3 ADD SWAP1 POP SWAP2 SWAP1 POP JUMP JUMPDEST PUSH1 0x0 PUSH2 0x54E3 DUP3 PUSH2 0x5518 JUMP JUMPDEST SWAP1 POP SWAP2 SWAP1 POP JUMP JUMPDEST PUSH1 0x0 PUSH2 0x54F5 DUP3 PUSH2 0x5518 JUMP JUMPDEST SWAP1 POP SWAP2 SWAP1 POP JUMP JUMPDEST PUSH1 0x0 DUP2 SWAP1 POP SWAP2 SWAP1 POP JUMP JUMPDEST PUSH1 0x0 PUSH2 0x5511 DUP3 PUSH2 0x56AB JUMP JUMPDEST SWAP1 POP SWAP2 SWAP1 POP JUMP JUMPDEST PUSH1 0x0 PUSH2 0x5523 DUP3 PUSH2 0x56B8 JUMP JUMPDEST SWAP1 POP SWAP2 SWAP1 POP JUMP JUMPDEST PUSH1 0x0 DUP2 SWAP1 POP SWAP2 SWAP1 POP JUMP JUMPDEST PUSH1 0x0 PUSH2 0x553F DUP3 PUSH2 0x5332 JUMP JUMPDEST SWAP2 POP PUSH2 0x554A DUP4 PUSH2 0x5332 JUMP JUMPDEST SWAP3 POP DUP3 PUSH2 0x555A JUMPI PUSH2 0x5559 PUSH2 0x55C5 JUMP JUMPDEST JUMPDEST DUP3 DUP3 MOD SWAP1 POP SWAP3 SWAP2 POP POP JUMP JUMPDEST PUSH1 0x0 PUSH2 0x5570 DUP3 PUSH2 0x5360 JUMP JUMPDEST SWAP2 POP PUSH2 0x557B DUP4 PUSH2 0x5360 JUMP JUMPDEST SWAP3 POP DUP3 PUSH2 0x558B JUMPI PUSH2 0x558A PUSH2 0x55C5 JUMP JUMPDEST JUMPDEST DUP3 DUP3 MOD SWAP1 POP SWAP3 SWAP2 POP POP JUMP JUMPDEST PUSH32 0x4E487B7100000000000000000000000000000000000000000000000000000000 PUSH1 0x0 MSTORE PUSH1 0x11 PUSH1 0x4 MSTORE PUSH1 0x24 PUSH1 0x0 REVERT JUMPDEST PUSH32 0x4E487B7100000000000000000000000000000000000000000000000000000000 PUSH1 0x0 MSTORE PUSH1 0x12 PUSH1 0x4 MSTORE PUSH1 0x24 PUSH1 0x0 REVERT JUMPDEST PUSH32 0x4E487B7100000000000000000000000000000000000000000000000000000000 PUSH1 0x0 MSTORE PUSH1 0x22 PUSH1 0x4 MSTORE PUSH1 0x24 PUSH1 0x0 REVERT JUMPDEST PUSH32 0x4E487B7100000000000000000000000000000000000000000000000000000000 PUSH1 0x0 MSTORE PUSH1 0x32 PUSH1 0x4 MSTORE PUSH1 0x24 PUSH1 0x0 REVERT JUMPDEST PUSH32 0x4E487B7100000000000000000000000000000000000000000000000000000000 PUSH1 0x0 MSTORE PUSH1 0x41 PUSH1 0x4 MSTORE PUSH1 0x24 PUSH1 0x0 REVERT JUMPDEST PUSH1 0x0 DUP1 REVERT JUMPDEST PUSH1 0x0 DUP1 REVERT JUMPDEST PUSH1 0x0 DUP1 REVERT JUMPDEST PUSH1 0x0 DUP1 REVERT JUMPDEST PUSH1 0x0 DUP1 REVERT JUMPDEST PUSH1 0x0 PUSH1 0x1F NOT PUSH1 0x1F DUP4 ADD AND SWAP1 POP SWAP2 SWAP1 POP JUMP JUMPDEST PUSH1 0x0 DUP2 PUSH1 0xF0 SHL SWAP1 POP SWAP2 SWAP1 POP JUMP JUMPDEST PUSH1 0x0 DUP2 PUSH1 0x60 SHL SWAP1 POP SWAP2 SWAP1 POP JUMP JUMPDEST PUSH32 0x6769667420636F756E74207A65726F0000000000000000000000000000000000 PUSH1 0x0 DUP3 ADD MSTORE POP JUMP JUMPDEST PUSH32 0x4174206C6561737420444149207072696365206C6172676572207468616E2030 PUSH1 0x0 DUP3 ADD MSTORE POP JUMP JUMPDEST PUSH32 0x4552433732313A207472616E7366657220746F206E6F6E204552433732315265 PUSH1 0x0 DUP3 ADD MSTORE PUSH32 0x63656976657220696D706C656D656E7465720000000000000000000000000000 PUSH1 0x20 DUP3 ADD MSTORE POP JUMP JUMPDEST PUSH32 0x4F776E61626C653A206E6577206F776E657220697320746865207A65726F2061 PUSH1 0x0 DUP3 ADD MSTORE PUSH32 0x6464726573730000000000000000000000000000000000000000000000000000 PUSH1 0x20 DUP3 ADD MSTORE POP JUMP JUMPDEST PUSH32 0x4552433732313A20746F6B656E20616C7265616479206D696E74656400000000 PUSH1 0x0 DUP3 ADD MSTORE POP JUMP JUMPDEST PUSH32 0x4E6F7420656E6F7567682044414920746F206D696E742074686520746F6B656E PUSH1 0x0 DUP3 ADD MSTORE PUSH32 0x7300000000000000000000000000000000000000000000000000000000000000 PUSH1 0x20 DUP3 ADD MSTORE POP JUMP JUMPDEST PUSH32 0x204174206C656173742048617665204441490000000000000000000000000000 PUSH1 0x0 DUP3 ADD MSTORE POP JUMP JUMPDEST PUSH32 0x4552433732313A207472616E7366657220746F20746865207A65726F20616464 PUSH1 0x0 DUP3 ADD MSTORE PUSH32 0x7265737300000000000000000000000000000000000000000000000000000000 PUSH1 0x20 DUP3 ADD MSTORE POP JUMP JUMPDEST PUSH32 0x4552433732313A20617070726F766520746F2063616C6C657200000000000000 PUSH1 0x0 DUP3 ADD MSTORE POP JUMP JUMPDEST PUSH32 0x4552433732313A206F70657261746F7220717565727920666F72206E6F6E6578 PUSH1 0x0 DUP3 ADD MSTORE PUSH32 0x697374656E7420746F6B656E0000000000000000000000000000000000000000 PUSH1 0x20 DUP3 ADD MSTORE POP JUMP JUMPDEST PUSH32 0x546869732066756E6374696F6E2063616E206E6F742062652063616C6C656420 PUSH1 0x0 DUP3 ADD MSTORE PUSH32 0x616E796D6F726500000000000000000000000000000000000000000000000000 PUSH1 0x20 DUP3 ADD MSTORE POP JUMP JUMPDEST PUSH32 0x5468652063616C6C657220697320616E6F7468657220636F6E74726163740000 PUSH1 0x0 DUP3 ADD MSTORE POP JUMP JUMPDEST PUSH32 0x4552433732313A20617070726F76652063616C6C6572206973206E6F74206F77 PUSH1 0x0 DUP3 ADD MSTORE PUSH32 0x6E6572206E6F7220617070726F76656420666F7220616C6C0000000000000000 PUSH1 0x20 DUP3 ADD MSTORE POP JUMP JUMPDEST PUSH32 0x63616E206E6F7420776F726B20696E20656E61626C652077686974656C697374 PUSH1 0x0 DUP3 ADD MSTORE POP JUMP JUMPDEST PUSH32 0x4552433732313A2062616C616E636520717565727920666F7220746865207A65 PUSH1 0x0 DUP3 ADD MSTORE PUSH32 0x726F206164647265737300000000000000000000000000000000000000000000 PUSH1 0x20 DUP3 ADD MSTORE POP JUMP JUMPDEST PUSH32 0x4552433732313A206F776E657220717565727920666F72206E6F6E6578697374 PUSH1 0x0 DUP3 ADD MSTORE PUSH32 0x656E7420746F6B656E0000000000000000000000000000000000000000000000 PUSH1 0x20 DUP3 ADD MSTORE POP JUMP JUMPDEST PUSH32 0x6561726C79000000000000000000000000000000000000000000000000000000 PUSH1 0x0 DUP3 ADD MSTORE POP JUMP JUMPDEST PUSH32 0x54686520696E76697465722063616E277420626520796F757273656C66000000 PUSH1 0x0 DUP3 ADD MSTORE POP JUMP JUMPDEST PUSH32 0x4552433732313A206D696E7420746F20746865207A65726F2061646472657373 PUSH1 0x0 DUP3 ADD MSTORE POP JUMP JUMPDEST PUSH32 0x596F752063616E206E6F74206D696E74206D6F726520746F6B656E7300000000 PUSH1 0x0 DUP3 ADD MSTORE POP JUMP JUMPDEST PUSH32 0x536166654D6174683A206D756C7469706C69636174696F6E206F766572666C6F PUSH1 0x0 DUP3 ADD MSTORE PUSH32 0x7700000000000000000000000000000000000000000000000000000000000000 PUSH1 0x20 DUP3 ADD MSTORE POP JUMP JUMPDEST PUSH32 0x4552433732313A20617070726F76656420717565727920666F72206E6F6E6578 PUSH1 0x0 DUP3 ADD MSTORE PUSH32 0x697374656E7420746F6B656E0000000000000000000000000000000000000000 PUSH1 0x20 DUP3 ADD MSTORE POP JUMP JUMPDEST PUSH32 0x4F776E61626C653A2063616C6C6572206973206E6F7420746865206F776E6572 PUSH1 0x0 DUP3 ADD MSTORE POP JUMP JUMPDEST PUSH32 0x4552433732313A207472616E73666572206F6620746F6B656E20746861742069 PUSH1 0x0 DUP3 ADD MSTORE PUSH32 0x73206E6F74206F776E0000000000000000000000000000000000000000000000 PUSH1 0x20 DUP3 ADD MSTORE POP JUMP JUMPDEST PUSH32 0x4552433732314D657461646174613A2055524920717565727920666F72206E6F PUSH1 0x0 DUP3 ADD MSTORE PUSH32 0x6E6578697374656E7420746F6B656E0000000000000000000000000000000000 PUSH1 0x20 DUP3 ADD MSTORE POP JUMP JUMPDEST PUSH32 0x43616E2774206D696E74206D6F7265207468616E20746F74616C20746F6B656E PUSH1 0x0 DUP3 ADD MSTORE PUSH32 0x7300000000000000000000000000000000000000000000000000000000000000 PUSH1 0x20 DUP3 ADD MSTORE POP JUMP JUMPDEST PUSH32 0x4552433732313A20617070726F76616C20746F2063757272656E74206F776E65 PUSH1 0x0 DUP3 ADD MSTORE PUSH32 0x7200000000000000000000000000000000000000000000000000000000000000 PUSH1 0x20 DUP3 ADD MSTORE POP JUMP JUMPDEST PUSH32 0x54686520696E766974657220616464726573732063616E206E6F74206265207A PUSH1 0x0 DUP3 ADD MSTORE PUSH32 0x65726F0000000000000000000000000000000000000000000000000000000000 PUSH1 0x20 DUP3 ADD MSTORE POP JUMP JUMPDEST PUSH32 0x4552433732313A207472616E736665722063616C6C6572206973206E6F74206F PUSH1 0x0 DUP3 ADD MSTORE PUSH32 0x776E6572206E6F7220617070726F766564000000000000000000000000000000 PUSH1 0x20 DUP3 ADD MSTORE POP JUMP JUMPDEST PUSH32 0x6E6F7420696E2077686974656C69737400000000000000000000000000000000 PUSH1 0x0 DUP3 ADD MSTORE POP JUMP JUMPDEST PUSH32 0x4174206C65617374206F6E6520746F6B656E2073686F756C64206265206D696E PUSH1 0x0 DUP3 ADD MSTORE PUSH32 0x7465640000000000000000000000000000000000000000000000000000000000 PUSH1 0x20 DUP3 ADD MSTORE POP JUMP JUMPDEST PUSH32 0x6F6E652073686F756C64206265206D696E746564000000000000000000000000 PUSH1 0x0 DUP3 ADD MSTORE POP JUMP JUMPDEST PUSH32 0x4E6F20746F6B656E73206C65667420746F206265206D696E7465640000000000 PUSH1 0x0 DUP3 ADD MSTORE POP JUMP JUMPDEST PUSH2 0x5EC3 DUP2 PUSH2 0x52BA JUMP JUMPDEST DUP2 EQ PUSH2 0x5ECE JUMPI PUSH1 0x0 DUP1 REVERT JUMPDEST POP JUMP JUMPDEST PUSH2 0x5EDA DUP2 PUSH2 0x52DE JUMP JUMPDEST DUP2 EQ PUSH2 0x5EE5 JUMPI PUSH1 0x0 DUP1 REVERT JUMPDEST POP JUMP JUMPDEST PUSH2 0x5EF1 DUP2 PUSH2 0x52F4 JUMP JUMPDEST DUP2 EQ PUSH2 0x5EFC JUMPI PUSH1 0x0 DUP1 REVERT JUMPDEST POP JUMP JUMPDEST PUSH2 0x5F08 DUP2 PUSH2 0x5320 JUMP JUMPDEST DUP2 EQ PUSH2 0x5F13 JUMPI PUSH1 0x0 DUP1 REVERT JUMPDEST POP JUMP JUMPDEST PUSH2 0x5F1F DUP2 PUSH2 0x5332 JUMP JUMPDEST DUP2 EQ PUSH2 0x5F2A JUMPI PUSH1 0x0 DUP1 REVERT JUMPDEST POP JUMP JUMPDEST PUSH2 0x5F36 DUP2 PUSH2 0x5360 JUMP JUMPDEST DUP2 EQ PUSH2 0x5F41 JUMPI PUSH1 0x0 DUP1 REVERT JUMPDEST POP JUMP JUMPDEST PUSH2 0x5F4D DUP2 PUSH2 0x536A JUMP JUMPDEST DUP2 EQ PUSH2 0x5F58 JUMPI PUSH1 0x0 DUP1 REVERT JUMPDEST POP JUMP INVALID LOG2 PUSH5 0x6970667358 0x22 SLT KECCAK256 0x4C PUSH15 0x7CCBBF530ACBA90036CA5787894886 PUSH6 0x8CA027B532A SSTORE 0x1F 0xEA BASEFEE 0xB8 0xC3 PUSH4 0x4864736F PUSH13 0x6343000807003368747470733A 0x2F 0x2F PUSH10 0x7066732E696F2F697066 PUSH20 0x2F516D594A5370397443734469574D6350436556 PUSH24 0x5355583447646F5870314E6159754B374D617547454C527A PUSH4 0x313F6669 PUSH13 0x656E616D653D6B697474796F68 PUSH14 0x7072697661746573616C656E6674 0x2E PUSH11 0x736F6E0000000000000000 "
		},
		"gasEstimates": {
			"creation": {
				"codeDepositCost": "4893000",
				"executionCost": "infinite",
				"totalCost": "infinite"
			},
			"external": {
				"_getRandomNumber(uint16,uint16)": "infinite",
				"addWhiteList(address)": "27163",
				"approve(address,uint256)": "infinite",
				"balanceOf(address)": "3034",
				"baseTokenURI()": "infinite",
				"checkIfExistInWhiteList(address)": "2972",
				"dai()": "2732",
				"daiMintPrice()": "2474",
				"freezeSmartContract()": "26718",
				"getApproved(uint256)": "5251",
				"getAvailableTokens()": "infinite",
				"gift()": "2734",
				"giftCount()": "2537",
				"isApprovedForAll(address,address)": "infinite",
				"maxMintsPerWallet()": "2583",
				"mintTokensByDAI(uint16,uint256)": "infinite",
				"mintTokensFromInviteByDAI(uint16,address,uint256)": "infinite",
				"mintedGiftTokenPerWallet(address,address)": "infinite",
				"mintedTokensPerWallet(address)": "3001",
				"name()": "infinite",
				"owner()": "2612",
				"ownerOf(uint256)": "3088",
				"removeWhiteList(address)": "27142",
				"renounceOwnership()": "30420",
				"safeTransferFrom(address,address,uint256)": "infinite",
				"safeTransferFrom(address,address,uint256,bytes)": "infinite",
				"setApprovalForAll(address,bool)": "infinite",
				"setBaseTokenURI(string)": "infinite",
				"setDAIAddress(address)": "27030",
				"setEnablewhitelist(bool)": "27037",
				"setGiftNFTAmount(uint8)": "27083",
				"setGiftNFTContractAddress(address)": "27050",
				"setMaxMintsPerWallet(uint16)": "24905",
				"setMintDAIPrice(uint256)": "24850",
				"setStartMintDate(uint256)": "24894",
				"setTotalTokens(uint16)": "29135",
				"supportsInterface(bytes4)": "820",
				"symbol()": "infinite",
				"tokenByIndex(uint256)": "infinite",
				"tokenURI(uint256)": "infinite",
				"totalSupply()": "2567",
				"totalTokens()": "2539",
				"transferFrom(address,address,uint256)": "infinite",
				"transferOwnership(address)": "30833",
				"withdrawDAI(address,uint256)": "infinite"
			},
			"internal": {
				"_baseURI()": "infinite",
				"_getTokenToBeMinted(uint16)": "infinite"
			}
		},
		"methodIdentifiers": {
			"_getRandomNumber(uint16,uint16)": "706d42c9",
			"addWhiteList(address)": "e7cd4a04",
			"approve(address,uint256)": "095ea7b3",
			"balanceOf(address)": "70a08231",
			"baseTokenURI()": "d547cfb7",
			"checkIfExistInWhiteList(address)": "5ab1a8fa",
			"dai()": "f4b9fa75",
			"daiMintPrice()": "a2ce325a",
			"freezeSmartContract()": "b4b2b18b",
			"getApproved(uint256)": "081812fc",
			"getAvailableTokens()": "e35568cb",
			"gift()": "24b04905",
			"giftCount()": "ed700374",
			"isApprovedForAll(address,address)": "e985e9c5",
			"maxMintsPerWallet()": "f516a2e6",
			"mintTokensByDAI(uint16,uint256)": "e7d6ea4d",
			"mintTokensFromInviteByDAI(uint16,address,uint256)": "bf5c86e7",
			"mintedGiftTokenPerWallet(address,address)": "f0d25336",
			"mintedTokensPerWallet(address)": "25187924",
			"name()": "06fdde03",
			"owner()": "8da5cb5b",
			"ownerOf(uint256)": "6352211e",
			"removeWhiteList(address)": "2042e5c2",
			"renounceOwnership()": "715018a6",
			"safeTransferFrom(address,address,uint256)": "42842e0e",
			"safeTransferFrom(address,address,uint256,bytes)": "b88d4fde",
			"setApprovalForAll(address,bool)": "a22cb465",
			"setBaseTokenURI(string)": "30176e13",
			"setDAIAddress(address)": "19709a9d",
			"setEnablewhitelist(bool)": "36710735",
			"setGiftNFTAmount(uint8)": "10430a42",
			"setGiftNFTContractAddress(address)": "4a73d757",
			"setMaxMintsPerWallet(uint16)": "c8494888",
			"setMintDAIPrice(uint256)": "3c440c0b",
			"setStartMintDate(uint256)": "493143e4",
			"setTotalTokens(uint16)": "d31dd6b0",
			"supportsInterface(bytes4)": "01ffc9a7",
			"symbol()": "95d89b41",
			"tokenByIndex(uint256)": "4f6ccce7",
			"tokenURI(uint256)": "c87b56dd",
			"totalSupply()": "18160ddd",
			"totalTokens()": "7e1c0c09",
			"transferFrom(address,address,uint256)": "23b872dd",
			"transferOwnership(address)": "f2fde38b",
			"withdrawDAI(address,uint256)": "eabdd572"
		}
	},
	"abi": [
		{
			"inputs": [],
			"stateMutability": "nonpayable",
			"type": "constructor"
		},
		{
			"anonymous": false,
			"inputs": [
				{
					"indexed": true,
					"internalType": "address",
					"name": "owner",
					"type": "address"
				},
				{
					"indexed": true,
					"internalType": "address",
					"name": "approved",
					"type": "address"
				},
				{
					"indexed": true,
					"internalType": "uint256",
					"name": "tokenId",
					"type": "uint256"
				}
			],
			"name": "Approval",
			"type": "event"
		},
		{
			"anonymous": false,
			"inputs": [
				{
					"indexed": true,
					"internalType": "address",
					"name": "owner",
					"type": "address"
				},
				{
					"indexed": true,
					"internalType": "address",
					"name": "operator",
					"type": "address"
				},
				{
					"indexed": false,
					"internalType": "bool",
					"name": "approved",
					"type": "bool"
				}
			],
			"name": "ApprovalForAll",
			"type": "event"
		},
		{
			"anonymous": false,
			"inputs": [
				{
					"indexed": false,
					"internalType": "address",
					"name": "ref",
					"type": "address"
				}
			],
			"name": "LogShow",
			"type": "event"
		},
		{
			"anonymous": false,
			"inputs": [
				{
					"indexed": true,
					"internalType": "address",
					"name": "previousOwner",
					"type": "address"
				},
				{
					"indexed": true,
					"internalType": "address",
					"name": "newOwner",
					"type": "address"
				}
			],
			"name": "OwnershipTransferred",
			"type": "event"
		},
		{
			"anonymous": false,
			"inputs": [
				{
					"indexed": true,
					"internalType": "address",
					"name": "from",
					"type": "address"
				},
				{
					"indexed": true,
					"internalType": "address",
					"name": "to",
					"type": "address"
				},
				{
					"indexed": true,
					"internalType": "uint256",
					"name": "tokenId",
					"type": "uint256"
				}
			],
			"name": "Transfer",
			"type": "event"
		},
		{
			"inputs": [
				{
					"internalType": "uint16",
					"name": "_upper",
					"type": "uint16"
				},
				{
					"internalType": "uint16",
					"name": "_totalMintedTokens",
					"type": "uint16"
				}
			],
			"name": "_getRandomNumber",
			"outputs": [
				{
					"internalType": "uint16",
					"name": "",
					"type": "uint16"
				}
			],
			"stateMutability": "view",
			"type": "function"
		},
		{
			"inputs": [
				{
					"internalType": "address",
					"name": "account",
					"type": "address"
				}
			],
			"name": "addWhiteList",
			"outputs": [],
			"stateMutability": "nonpayable",
			"type": "function"
		},
		{
			"inputs": [
				{
					"internalType": "address",
					"name": "to",
					"type": "address"
				},
				{
					"internalType": "uint256",
					"name": "tokenId",
					"type": "uint256"
				}
			],
			"name": "approve",
			"outputs": [],
			"stateMutability": "nonpayable",
			"type": "function"
		},
		{
			"inputs": [
				{
					"internalType": "address",
					"name": "owner",
					"type": "address"
				}
			],
			"name": "balanceOf",
			"outputs": [
				{
					"internalType": "uint256",
					"name": "",
					"type": "uint256"
				}
			],
			"stateMutability": "view",
			"type": "function"
		},
		{
			"inputs": [],
			"name": "baseTokenURI",
			"outputs": [
				{
					"internalType": "string",
					"name": "",
					"type": "string"
				}
			],
			"stateMutability": "view",
			"type": "function"
		},
		{
			"inputs": [
				{
					"internalType": "address",
					"name": "account",
					"type": "address"
				}
			],
			"name": "checkIfExistInWhiteList",
			"outputs": [
				{
					"internalType": "bool",
					"name": "",
					"type": "bool"
				}
			],
			"stateMutability": "view",
			"type": "function"
		},
		{
			"inputs": [],
			"name": "dai",
			"outputs": [
				{
					"internalType": "contract IERC20",
					"name": "",
					"type": "address"
				}
			],
			"stateMutability": "view",
			"type": "function"
		},
		{
			"inputs": [],
			"name": "daiMintPrice",
			"outputs": [
				{
					"internalType": "uint256",
					"name": "",
					"type": "uint256"
				}
			],
			"stateMutability": "view",
			"type": "function"
		},
		{
			"inputs": [],
			"name": "freezeSmartContract",
			"outputs": [],
			"stateMutability": "nonpayable",
			"type": "function"
		},
		{
			"inputs": [
				{
					"internalType": "uint256",
					"name": "tokenId",
					"type": "uint256"
				}
			],
			"name": "getApproved",
			"outputs": [
				{
					"internalType": "address",
					"name": "",
					"type": "address"
				}
			],
			"stateMutability": "view",
			"type": "function"
		},
		{
			"inputs": [],
			"name": "getAvailableTokens",
			"outputs": [
				{
					"internalType": "uint16",
					"name": "",
					"type": "uint16"
				}
			],
			"stateMutability": "view",
			"type": "function"
		},
		{
			"inputs": [],
			"name": "gift",
			"outputs": [
				{
					"internalType": "contract KOMPrivateSaleGift",
					"name": "",
					"type": "address"
				}
			],
			"stateMutability": "view",
			"type": "function"
		},
		{
			"inputs": [],
			"name": "giftCount",
			"outputs": [
				{
					"internalType": "uint8",
					"name": "",
					"type": "uint8"
				}
			],
			"stateMutability": "view",
			"type": "function"
		},
		{
			"inputs": [
				{
					"internalType": "address",
					"name": "owner",
					"type": "address"
				},
				{
					"internalType": "address",
					"name": "operator",
					"type": "address"
				}
			],
			"name": "isApprovedForAll",
			"outputs": [
				{
					"internalType": "bool",
					"name": "",
					"type": "bool"
				}
			],
			"stateMutability": "view",
			"type": "function"
		},
		{
			"inputs": [],
			"name": "maxMintsPerWallet",
			"outputs": [
				{
					"internalType": "uint256",
					"name": "",
					"type": "uint256"
				}
			],
			"stateMutability": "view",
			"type": "function"
		},
		{
			"inputs": [
				{
					"internalType": "uint16",
					"name": "amount",
					"type": "uint16"
				},
				{
					"internalType": "uint256",
					"name": "_DaiAmount",
					"type": "uint256"
				}
			],
			"name": "mintTokensByDAI",
			"outputs": [],
			"stateMutability": "nonpayable",
			"type": "function"
		},
		{
			"inputs": [
				{
					"internalType": "uint16",
					"name": "amount",
					"type": "uint16"
				},
				{
					"internalType": "address",
					"name": "_ref",
					"type": "address"
				},
				{
					"internalType": "uint256",
					"name": "_daiAmount",
					"type": "uint256"
				}
			],
			"name": "mintTokensFromInviteByDAI",
			"outputs": [],
			"stateMutability": "nonpayable",
			"type": "function"
		},
		{
			"inputs": [
				{
					"internalType": "address",
					"name": "",
					"type": "address"
				},
				{
					"internalType": "address",
					"name": "",
					"type": "address"
				}
			],
			"name": "mintedGiftTokenPerWallet",
			"outputs": [
				{
					"internalType": "uint8",
					"name": "",
					"type": "uint8"
				}
			],
			"stateMutability": "view",
			"type": "function"
		},
		{
			"inputs": [
				{
					"internalType": "address",
					"name": "",
					"type": "address"
				}
			],
			"name": "mintedTokensPerWallet",
			"outputs": [
				{
					"internalType": "uint16",
					"name": "",
					"type": "uint16"
				}
			],
			"stateMutability": "view",
			"type": "function"
		},
		{
			"inputs": [],
			"name": "name",
			"outputs": [
				{
					"internalType": "string",
					"name": "",
					"type": "string"
				}
			],
			"stateMutability": "view",
			"type": "function"
		},
		{
			"inputs": [],
			"name": "owner",
			"outputs": [
				{
					"internalType": "address",
					"name": "",
					"type": "address"
				}
			],
			"stateMutability": "view",
			"type": "function"
		},
		{
			"inputs": [
				{
					"internalType": "uint256",
					"name": "tokenId",
					"type": "uint256"
				}
			],
			"name": "ownerOf",
			"outputs": [
				{
					"internalType": "address",
					"name": "",
					"type": "address"
				}
			],
			"stateMutability": "view",
			"type": "function"
		},
		{
			"inputs": [
				{
					"internalType": "address",
					"name": "account",
					"type": "address"
				}
			],
			"name": "removeWhiteList",
			"outputs": [],
			"stateMutability": "nonpayable",
			"type": "function"
		},
		{
			"inputs": [],
			"name": "renounceOwnership",
			"outputs": [],
			"stateMutability": "nonpayable",
			"type": "function"
		},
		{
			"inputs": [
				{
					"internalType": "address",
					"name": "from",
					"type": "address"
				},
				{
					"internalType": "address",
					"name": "to",
					"type": "address"
				},
				{
					"internalType": "uint256",
					"name": "tokenId",
					"type": "uint256"
				}
			],
			"name": "safeTransferFrom",
			"outputs": [],
			"stateMutability": "nonpayable",
			"type": "function"
		},
		{
			"inputs": [
				{
					"internalType": "address",
					"name": "from",
					"type": "address"
				},
				{
					"internalType": "address",
					"name": "to",
					"type": "address"
				},
				{
					"internalType": "uint256",
					"name": "tokenId",
					"type": "uint256"
				},
				{
					"internalType": "bytes",
					"name": "_data",
					"type": "bytes"
				}
			],
			"name": "safeTransferFrom",
			"outputs": [],
			"stateMutability": "nonpayable",
			"type": "function"
		},
		{
			"inputs": [
				{
					"internalType": "address",
					"name": "operator",
					"type": "address"
				},
				{
					"internalType": "bool",
					"name": "approved",
					"type": "bool"
				}
			],
			"name": "setApprovalForAll",
			"outputs": [],
			"stateMutability": "nonpayable",
			"type": "function"
		},
		{
			"inputs": [
				{
					"internalType": "string",
					"name": "_uri",
					"type": "string"
				}
			],
			"name": "setBaseTokenURI",
			"outputs": [],
			"stateMutability": "nonpayable",
			"type": "function"
		},
		{
			"inputs": [
				{
					"internalType": "address",
					"name": "_daiAddr",
					"type": "address"
				}
			],
			"name": "setDAIAddress",
			"outputs": [],
			"stateMutability": "nonpayable",
			"type": "function"
		},
		{
			"inputs": [
				{
					"internalType": "bool",
					"name": "_enableWhitelist",
					"type": "bool"
				}
			],
			"name": "setEnablewhitelist",
			"outputs": [],
			"stateMutability": "nonpayable",
			"type": "function"
		},
		{
			"inputs": [
				{
					"internalType": "uint8",
					"name": "_giftCount",
					"type": "uint8"
				}
			],
			"name": "setGiftNFTAmount",
			"outputs": [],
			"stateMutability": "nonpayable",
			"type": "function"
		},
		{
			"inputs": [
				{
					"internalType": "contract KOMPrivateSaleGift",
					"name": "_giftAddr",
					"type": "address"
				}
			],
			"name": "setGiftNFTContractAddress",
			"outputs": [],
			"stateMutability": "nonpayable",
			"type": "function"
		},
		{
			"inputs": [
				{
					"internalType": "uint16",
					"name": "_maxMintsPerWallet",
					"type": "uint16"
				}
			],
			"name": "setMaxMintsPerWallet",
			"outputs": [],
			"stateMutability": "nonpayable",
			"type": "function"
		},
		{
			"inputs": [
				{
					"internalType": "uint256",
					"name": "_daiMintPrice",
					"type": "uint256"
				}
			],
			"name": "setMintDAIPrice",
			"outputs": [],
			"stateMutability": "nonpayable",
			"type": "function"
		},
		{
			"inputs": [
				{
					"internalType": "uint256",
					"name": "_startMintDate",
					"type": "uint256"
				}
			],
			"name": "setStartMintDate",
			"outputs": [],
			"stateMutability": "nonpayable",
			"type": "function"
		},
		{
			"inputs": [
				{
					"internalType": "uint16",
					"name": "_totalTokens",
					"type": "uint16"
				}
			],
			"name": "setTotalTokens",
			"outputs": [],
			"stateMutability": "nonpayable",
			"type": "function"
		},
		{
			"inputs": [
				{
					"internalType": "bytes4",
					"name": "interfaceId",
					"type": "bytes4"
				}
			],
			"name": "supportsInterface",
			"outputs": [
				{
					"internalType": "bool",
					"name": "",
					"type": "bool"
				}
			],
			"stateMutability": "view",
			"type": "function"
		},
		{
			"inputs": [],
			"name": "symbol",
			"outputs": [
				{
					"internalType": "string",
					"name": "",
					"type": "string"
				}
			],
			"stateMutability": "view",
			"type": "function"
		},
		{
			"inputs": [
				{
					"internalType": "uint256",
					"name": "tokenId",
					"type": "uint256"
				}
			],
			"name": "tokenByIndex",
			"outputs": [
				{
					"internalType": "uint256",
					"name": "",
					"type": "uint256"
				}
			],
			"stateMutability": "view",
			"type": "function"
		},
		{
			"inputs": [
				{
					"internalType": "uint256",
					"name": "tokenId",
					"type": "uint256"
				}
			],
			"name": "tokenURI",
			"outputs": [
				{
					"internalType": "string",
					"name": "",
					"type": "string"
				}
			],
			"stateMutability": "view",
			"type": "function"
		},
		{
			"inputs": [],
			"name": "totalSupply",
			"outputs": [
				{
					"internalType": "uint16",
					"name": "",
					"type": "uint16"
				}
			],
			"stateMutability": "view",
			"type": "function"
		},
		{
			"inputs": [],
			"name": "totalTokens",
			"outputs": [
				{
					"internalType": "uint16",
					"name": "",
					"type": "uint16"
				}
			],
			"stateMutability": "view",
			"type": "function"
		},
		{
			"inputs": [
				{
					"internalType": "address",
					"name": "from",
					"type": "address"
				},
				{
					"internalType": "address",
					"name": "to",
					"type": "address"
				},
				{
					"internalType": "uint256",
					"name": "tokenId",
					"type": "uint256"
				}
			],
			"name": "transferFrom",
			"outputs": [],
			"stateMutability": "nonpayable",
			"type": "function"
		},
		{
			"inputs": [
				{
					"internalType": "address",
					"name": "newOwner",
					"type": "address"
				}
			],
			"name": "transferOwnership",
			"outputs": [],
			"stateMutability": "nonpayable",
			"type": "function"
		},
		{
			"inputs": [
				{
					"internalType": "address",
					"name": "_to",
					"type": "address"
				},
				{
					"internalType": "uint256",
					"name": "_amount",
					"type": "uint256"
				}
			],
			"name": "withdrawDAI",
			"outputs": [],
			"stateMutability": "nonpayable",
			"type": "function"
		}
	]
}